:100000000C94830B0C94A4990C94D5990C94069A97
:100010000C94379A0C94689A0C94999A0C94CA9AF6
:100020000C94FB9A0C94B40B0C94B40B0C94B40B7E
:100030000C94B40B0C94B40B0C94B40B0C94B40B44
:100040000C94B40B0C94F40E0C94B40B0C94B40BF1
:100050000C94B40B0C94B40B0C94EB760C94D49CD1
:100060000C94B40B0C942F780C94B40B0C94B40B2C
:100070000C94B40B0C94B40B0C94B40B0C94B40B04
:100080000C94B40B0C94B40B0C94B40B0C94B40BF4
:100090000C94B40B0C94B40B0C94B40B0C94B40BE4
:1000A0000C94B40B0C94B40B0C94B40B0C94B40BD4
:1000B0000C94B40B0C94B40B0C94B40B0C94B40BC4
:1000C0000C94B40B0C94B40B0C94B40B0C94B40BB4
:1000D0000C94B40B0C94B40B0C94B40B0C94B40BA4
:1000E0000C94B40B084AD73B3BCE016E84BCBFFDD9
:1000F000C12F3D6C74319ABD56833DDA3D00C77FF8
:1001000011BED9E4BB4C3E916BAAAABE0000008090
:100110003F05A84CCDB2D44EB93836A9020C50B91F
:10012000918688083CA6AAAA2ABE000000803F65E6
:1001300063686F3A00656E6473746F7073206869EA
:10014000743A200020583A0020593A00205A3A00C8
:1001500024F404D9201BC40C5C0E9804C4095F026B
:1001600065077101F405F900FB04B300480487003A
:10017000C10369005803550003034500BE023A005D
:100180008402310053022A002902250004022000C3
:10019000E4011C00C8011900AF0117009801140008
:1001A00084011300710110006101100051010E0063
:1001B00043010D0036010B002B010B0020010B0049
:1001C000150109000C01090003010800FB000800EB
:1001D000F3000800EB000700E4000600DE00060064
:1001E000D8000600D2000600CC000500C7000500BC
:1001F000C2000500BD000400B9000400B500040001
:10020000B1000400AD000400A9000400A500030033
:10021000A20003009F0004009B000300980003005D
:100220009500020093000300900003008D0002007F
:100230008B00030088000200860002008400030097
:10024000810002007F0002007D0002007B000200AE
:1002500079000200770001007600020074000200BD
:1002600072000100710002006F0002006D000100C9
:100270006C0002006A0001006900020067000100D2
:1002800066000100650001006400020062000100D8
:1002900061000100600001005F0002005D000100DC
:1002A0005C0001005B0001005A00010059000100E0
:1002B00058000100570001005600010055000100E0
:1002C00054000100530000005300010052000100DF
:1002D00051000100500001004F0001004E000000DD
:1002E0004E0001004D0001004C0001004B000000D9
:1002F0004B0001004A0001004900010048000000D5
:1003000048000100470001004600000046000100CF
:1003100045000000450001004400010043000000CA
:1003200043000100420000004200010041000000C3
:1003300041000100400001003F0000003F000100BB
:100340003E0000003E0001003D0000003D000100B5
:100350003C0000003C0000003C0001003B000000AD
:100360003B0001003A0000003A00010039000000A3
:10037000390001003800000038000000380001009A
:100380003700000037000100360000003600000092
:100390003600010035000000350000003500010086
:1003A000340000003400000034000100330000007D
:1003B0003300000033000100320000003200000072
:1003C0003200010031000000310000003100010066
:1003D0003000000030000000300001002F0000005D
:1003E0002F0000002F0000002F0001002E00000051
:1003F0002E0000002E0001002D0000002D00000046
:100400002D0000002D0001002C0000002C00000039
:100410002C0000002C0001002B0000002B0000002D
:100420002B0000002B0001002A0000002A00000021
:100430002A0000002A000100290000002900000015
:100440002900000029000000290001002800000008
:1004500028000000280000002800000028000100FB
:1004600027000000270000002700000027000000F0
:1004700027000100260000002600000026000000E2
:1004800026000000260001002500000025000000D5
:1004900025000000250000002500000025000100C7
:1004A00024000000240000002400000024000000BC
:1004B00024000100230000002300000023000000AE
:1004C000230000002300000023000000230001009F
:1004D0002200000022000000220000002200000094
:1004E0002200000022000100210000002100000085
:1004F0002100000021000000210000002100000078
:100500002100010020000000200000002000000069
:10051000200000002000000020000000200000005B
:10052000200001001F0000001F0000001F0000004D
:100530001F0000001F0000001F0000001F0001003E
:100540001E0000001E0000001E0000001E00000033
:1005500024F4D43050C38E20C2A24017828B701175
:10056000127A910D816CD90AA861E108C758660713
:10057000615143061E4B5D05C145A7041A41110494
:10058000093D9803713931034036DB02653391022E
:10059000D4305402802E1D02632CEE01752AC50151
:1005A000B028A001102781018F2564012B244B0165
:1005B000E0223401AC211F018D200D01801FFC00C1
:1005C000841EED00971DDF00B81CD200E61BC6009C
:1005D000201BBC00641AB200B219A8000A19A000BE
:1005E0006A189900D117910040178B00B516840046
:1005F00031167E00B31579003A157300C7146F00E9
:1006000058146A00EE1366008813630025135E0019
:10061000C7125B006C12570015125400C111510033
:1006200070114F0021114B00D61049008D1047006A
:100630004610440002104200C00F4000800F3E00F0
:10064000420F3C00060F3B00CB0E3800930E3700E4
:100650005C0E3500270E3400F30D3200C10D310061
:10066000900D3000600D2E00320D2D00050D2C0078
:10067000D90C2B00AE0C2900850C29005C0C27003E
:10068000350C27000E0C2600E80B2400C40B2400B8
:10069000A00B23007D0B23005A0B2100390B2100F6
:1006A000180B2000F80A1F00D90A1E00BB0A1E0002
:1006B0009D0A1D00800A1D00630A1C00470A1B00DA
:1006C0002C0A1B00110A1A00F7091A00DD0919008B
:1006D000C4091900AB091900920917007B09180019
:1006E000630917004C091600360916002009160088
:1006F0000A091500F5081500E0081400CC081400DC
:10070000B8081400A4081400900813007D08120013
:100710006B08130058081200460812003408110034
:10072000230811001208110001081100F007100041
:10073000E0071000D0071000C0071000B0070F003E
:10074000A107100091070E0083070F0074070F0028
:1007500065070E0057070E0049070E003B070D0006
:100760002E070E0020070D0013070D0006070D00D1
:10077000F9060C00ED060D00E0060C00D4060C0096
:10078000C8060C00BC060C00B0060C00A4060B004A
:1007900099060C008D060B0082060B0077060B00F5
:1007A0006C060B0061060A0057060B004C060A0097
:1007B00042060A0038060A002E060A0024060A002D
:1007C0001A060A001006090007060A00FD050900BE
:1007D000F4050900EB050900E2050900D905090047
:1007E000D0050900C7050900BE050900B5050800C8
:1007F000AD050800A50509009C0508009405080042
:100800008C050800840508007C05080074050800B4
:100810006C050700650508005D0507005605080022
:100820004E0507004705070040050800380507008A
:10083000310507002A050700230507001C050600EF
:10084000160507000F05070008050600020507004A
:10085000FB040600F5040700EE040600E8040600A9
:10086000E2040700DB040600D5040600CF040600FE
:10087000C9040600C3040600BD040600B704060050
:10088000B1040500AC040600A6040600A00405009F
:100890009B04060095040500900406008A040500E8
:1008A00085040500800406007A040500750405002F
:1008B000700405006B040500660405006104050072
:1008C0005C04050057040500520405004D040500B2
:1008D00048040500430405003E0404003A040500F2
:1008E00035040500300404002C040500270404002E
:1008F000230405001E0404001A0404001604050065
:10090000110404000D04040009040500040404009B
:1009100000040400FC030400F8030400F4030400D2
:10092000F0030400EC030400E8030400E403040003
:10093000E0030400DC030400D8030400D403040033
:10094000D0030400CC030400C8030300C503030064
:1009500052656C65617365642E007C3C3E5E2B3D88
:100960003F2F5B5D3B2C2A225C006563686F3A0079
:10097000656E717565696E6720220022007374616F
:10098000727400506F7765725570002045787465F9
:10099000726E616C205265736574002042726F77CD
:1009A0006E206F75742052657365740020576174F2
:1009B0006368646F672052657365740020536F66C7
:1009C0007477617265205265736574004D61726C55
:1009D000696E3A2000312E302E30205243320020F2
:1009E0004C61737420557064617465643A20004DE5
:1009F00061726C696E2D5468752C20313220417003
:100A00007220323031322031343A30313A333020B2
:100A10002B30323030202D203431343430386232B3
:100A20006430666564343238623535343435663462
:100A30003862303164303039333261376139326392
:100A400000207C20417574686F723A2000427569FD
:100A50006C642D4D652D4D61726C696E002046727F
:100A60006565204D656D6F72793A20002020506CCD
:100A7000616E6E6572427566666572427974657301
:100A80003A200053746F7265642073657474696EE4
:100A90006773207265747265697665643A00537491
:100AA0006570732070657220756E69743A0020203D
:100AB0004D3932205800205900205A002045004D61
:100AC0006178696D756D20666565647261746573C2
:100AD00020286D6D2F73293A0020204D32303320AD
:100AE0005800205900205A002045004D6178696D5A
:100AF000756D20416363656C65726174696F6E200A
:100B0000286D6D2F7332293A0020204D323031206C
:100B10005800205900205A00204500416363656C4D
:100B200065726174696F6E3A20533D616363656CF1
:100B300065726174696F6E2C20543D7265747261C8
:100B4000637420616363656C65726174696F6E00C4
:100B500020204D323034205300205400416476610F
:100B60006E636564207661726961626C65733A20B8
:100B7000533D4D696E206665656472617465202819
:100B80006D6D2F73292C20543D4D696E2074726158
:100B900076656C20666565647261746520286D6D8C
:100BA0002F73292C20423D6D696E696D756D207320
:100BB00065676D656E742074696D6520286D732995
:100BC0002C20583D6D6178696D756D207859206ACB
:100BD00065726B20286D6D2F73292C20205A3D6D76
:100BE0006178696D756D205A206A65726B20286D79
:100BF0006D2F73290020204D3230352053002054B2
:100C000000204200205800205A002045005049444E
:100C10002073657474696E67733A002020204D3329
:100C200030312050002049002044006F6B00446F99
:100C30006E6520736176696E672066696C652E004B
:100C40004572726F723A004C696E65204E756D6226
:100C50006572206973206E6F74204C617374204C30
:100C6000696E65204E756D6265722B312C204C616A
:100C70007374204C696E653A00636865636B7375C5
:100C80006D206D69736D617463682C204C617374A1
:100C9000204C696E653A004E6F20436865636B7344
:100CA000756D2077697468206C696E65206E756D4E
:100CB0006265722C204C617374204C696E653A0039
:100CC0004E6F204C696E65204E756D62657220779F
:100CD00069746820636865636B73756D2C204C6163
:100CE0007374204C696E653A006F6B005072696EC8
:100CF0007465722073746F7070656420646575200C
:100D0000746F206572726F72732E2046697820743A
:100D10006865206572726F7220616E6420757365FC
:100D2000204D39393920746F207265737461727483
:100D3000212E202854656D7065726174757265206E
:100D400069732072657365742E205365742069740D
:100D5000206265666F726520726573746172746972
:100D60006E67290053544F505045442E2000446F65
:100D70006E65207072696E74696E672066696C6555
:100D8000004457454C4C2E2E2E004E6F206D6F7632
:100D9000652E00426567696E2066696C65206C6926
:100DA000737400456E642066696C65206C697374A9
:100DB000006F6B20543A0020423A0020403A00482D
:100DC000656174696E672E2E2E00543A0020453AF4
:100DD0000020573A0048656174696E6720646F6E41
:100DE000652E004265642048656174696E672E0057
:100DF000543A0020453A0020423A0042656420649B
:100E00006F6E652E005061727469616C2052656C62
:100E100065617365004649524D574152455F4E41E9
:100E20004D453A4D61726C696E2056313B205370CE
:100E300072696E7465722F6772626C206D6173687F
:100E4000757020666F722067656E36204649524D78
:100E5000574152455F55524C3A687474703A2F2F7F
:100E60007777772E6D656E64656C2D706172747323
:100E70002E636F6D2050524F544F434F4C5F564579
:100E80005253494F4E3A312E30204D414348494E3E
:100E9000455F545950453A4D656E64656C20455820
:100EA0005452554445525F434F554E543A310A000F
:100EB000583A00593A005A3A00453A0020436F75B3
:100EC0006E7420583A00593A005A3A00785F6D69BA
:100ED0006E3A00785F6D61783A00795F6D696E3ABD
:100EE00000795F6D61783A007A5F6D696E3A007AD9
:100EF0005F6D61783A00556E6B6E6F776E20636F31
:100F00006D6D616E643A2200220053657474696EDF
:100F100067732053746F72656400526573656E6405
:100F20003A006F6B005072696E7465722068616C74
:100F30007465642E206B696C6C28292063616C6C6D
:100F40006564202121004B494C4C45442E20005023
:100F500072696E7465722073746F7070656420645A
:100F6000657520746F206572726F72732E204669EA
:100F70007820746865206572726F7220616E6420DB
:100F8000757365204D39393920746F20726573741B
:100F9000617274212E202854656D706572617475BC
:100FA00072652069732072657365742E20536574B1
:100FB000206974206265666F726520726573746162
:100FC0007274696E67290053544F505045442E2067
:100FD000005072696E7465722052656164792E00EA
:100FE000022D2D2D2F2D2D2D0120006820006D00AC
:100FF0005A3A0025200025534400204D61696E2097
:101000000300204175746F73746172740020446929
:101010007361626C65205374657070657273002033
:101020004175746F20486F6D650020536574204FC3
:10103000726967696E00205072656865617420503E
:101040004C41002050726568656174204142530034
:1010500020436F6F6C646F776E00204D6F76652054
:10106000417869732020202020207E002050726566
:101070007061726520030020583A0020593A002020
:101080005A3A00204578747275646500204D616994
:101090006E2003002053706565643A0020024E6F95
:1010A0007A7A6C653A0020024265643A0020466113
:1010B0006E2073706565643A0020466C6F773A0065
:1010C00020436F6E74726F6C20030020024E6F7AA3
:1010D0007A6C653A0020024265643A002046616EEF
:1010E0002073706565643A00205049442D503A20C1
:1010F00000205049442D493A2000205049442D44B5
:101100003A2000205049442D433A200020436F6E7E
:1011100074726F6C200300204163633A003030002A
:10112000303000205678792D6A65726B3A200020A5
:10113000566D61782000783A00793A007A3A006575
:101140003A0020566D696E3A00205654726176203E
:101150006D696E3A0020416D61782000783A00791F
:101160003A007A3A00653A003030003030002041D1
:101170002D726574726163743A0030300030300053
:10118000205873746570732F6D6D3A002059737415
:101190006570732F6D6D3A00205A73746570732FEC
:1011A0006D6D3A00204573746570732F6D6D3A0054
:1011B000204D61696E202020202020202003002067
:1011C00054656D7065726174757265207E00204D86
:1011D0006F74696F6E2020202020207E00205374C1
:1011E0006F7265204550524F4D00204C6F61642056
:1011F0004550524F4D0020526573746F7265204602
:1012000061696C7361666500204D61696E20030041
:10121000045265667265736800200020576174632C
:101220006820202003002050726570617265207E66
:10123000002054756E65202020207E0020436F6EB4
:1012400074726F6C207E002053746F70205072692E
:101250006E742020207E002043617264204D656EF4
:1012600075202020207E00204E6F20436172640094
:101270004361726420696E736572746564004361D2
:1012800072642072656D6F766564002062696173B7
:101290003A200020643A2000206D696E3A20002038
:1012A0006D61783A2000204B753A20002054753A41
:1012B000200020436C617369632050494420002062
:1012C0004B703A2000204B693A2000204B643A20B2
:1012D0000020536F6D65206F76657273686F6F7451
:1012E0002000204B703A2000204B693A2000204B10
:1012F000643A2000204E6F206F76657273686F6FBE
:10130000742000204B703A2000204B693A200020C6
:101310004B643A2000504944204175746F74756ED7
:1013200065206661696C656420212C2054656D70B0
:101330006572617475726520746F206869676800F2
:101340006F6B20543A0020403A004572726F723A37
:1013500000202D20496E76616C6964206578747276
:1013600075646572206E756D6265722100202D2096
:10137000496E76616C696420657874727564657213
:10138000206E756D6265722021003A204578747276
:1013900075646572207377697463686564206F662D
:1013A000662E204D415854454D5020747269676730
:1013B000657265642021003A204578747275646511
:1013C00072207377697463686564206F66662E2087
:1013D0004D494E54454D502074726967676572657A
:1013E0006420210054656D706572617475726520AA
:1013F00068656174656420626564207377697463ED
:10140000686564206F66662E204D415854454D50E6
:1014100020747269676765726564202121006563C5
:10142000686F3A00534420696E6974206661696C84
:10143000004572726F723A00766F6C756D652E6939
:101440006E6974206661696C6564006F70656E52C8
:101450006F6F74206661696C65640053442063613A
:101460007264206F6B006F70656E206661696C65D9
:10147000642C2046696C653A20002E0046696C6534
:10148000206F70656E65643A002053697A653A0092
:1014900046696C652073656C6563746564006F7084
:1014A000656E206661696C65642C2046696C653ADE
:1014B00020002E006F70656E206661696C65642C7B
:1014C0002046696C653A20002E0057726974696E77
:1014D0006720746F2066696C653A20006F70656ED6
:1014E000206661696C65642C2046696C653A200051
:1014F0002E0046696C652064656C657465643A000D
:1015000044656C6574696F6E206661696C65642CF6
:101510002046696C653A20002E00534420707269A1
:101520006E74696E67206279746520002F004E6FBB
:1015300074205344207072696E74696E670065721E
:10154000726F722077726974696E6720746F20669B
:10155000696C650043616E6E6F7420656E746572B0
:10156000207375626469723A006563686F3A00209F
:10157000636F6C6420657874727573696F6E207028
:10158000726576656E7465640020746F6F206C6F91
:101590006E6720657874727573696F6E20707265FE
:1015A00076656E746564000000090A02080B0C0D74
:1015B0000706030401000000000000000000000016
:1015C000000000000000000000000000000000001B
:1015D00000000011100F00000000000000000000DB
:1015E00000000000000000000000000000010210E8
:1015F000202008081020401020408002010201082D
:1016000004020101020408102040808040201008DC
:101610000402018004020180402010080402010835
:101620000402010102040810204080010204081095
:101630002040800505050507050808080802020284
:10164000020A0A080804040404010101010101015D
:10165000010303030303030303040707070C0C0C34
:101660000C0C0C0C0C02020202060606060606060C
:10167000060B0B0B0B0B0B0B0B00002000230026A3
:101680000029002C002F0032000001000003010699
:1016900001090100002200250028002B002E003146
:1016A00000340002010000050108010B01000021C7
:1016B00000240027002A002D003000330001010023
:1016C00000040107010A01494E46494E4954594E4A
:1016D000414E000020410000C84200401C4620BC92
:1016E000BE4CCA1B0E5AAEC59D74CDCCCC3D0AD79C
:1016F000233C17B7D13877CC2B329595E6241FB110
:101700004F0A2A6D2F6D11241FBECFEFD1E2DEBF2D
:10171000CDBF00E00CBF14E0A0E0B2E0E0E4F7E5EC
:1017200001E00BBF02C007900D92AC38B107D9F7AA
:1017300010E1ACE8B4E001C01D92A635B107E1F7B5
:1017400017E1C4E0D7E100E006C022970109FE01DD
:101750000BBF0E944AA5C230D10780E00807A9F755
:101760000E94EF9D0C948EAB0C940000282F30E06B
:10177000A9015595479540654CBD80FD03C091E09A
:10178000863009F490E09DBD08958FEF8EBD0DB4B5
:1017900007FEFDCF8EB508958EBD0DB407FEFDCFBB
:1017A0000895FC01808161E00E949D9C0895CF9383
:1017B000DF93EC018A810E94B60B888160E00E9471
:1017C0009D9CDF91CF910895CF92DF92EF92FF928F
:1017D0000F931F93CF93DF93EC016B018A010E945B
:1017E0001E9DDC01CB017C010AC00E941E9D6E196A
:1017F0007F0981E06D32780710F081E108C00E9416
:10180000C50B8B838F3F89F38E3F39F08FE089833F
:10181000CE010E94D10B80E027C0980121503040BA
:1018200001151105C9F08FEF8EBDF60180E090E043
:101830004FEF07C00DB407FEFDCF5EB551934EBD0F
:10184000019682179307B0F30DB407FEFDCF8EB556
:101850002C0D3D1DF90180830E94C50B0E94C50B14
:10186000CE010E94D10B81E0DF91CF911F910F91AA
:10187000FF90EF90DF90CF9008950F931F93CF9339
:10188000DF93EB010E941E9D8B019C0107C00E940B
:101890001E9D601B710B6C177D0730F40E94C50BF9
:1018A0008F3FA9F781E001C080E0DF91CF911F91C8
:1018B0000F9108958F929F92AF92BF92EF92FF92F5
:1018C0000F931F93CF937C01C62F49015A010E94A9
:1018D000D70BC7016CE271E00E943D0C8C2F806435
:1018E0000E94CC0B08E110E0D501C401002E04C019
:1018F000B695A795979587950A94D2F70E94CC0B39
:10190000085010408FEF083F180771F7CC2321F0E3
:10191000C83021F08FEF03C085E901C087E80E943D
:10192000CC0BCC3011F40E94C50BC0E00E94C50B5B
:10193000F701838387FF04C0CF3F11F0CF5FF6CF5D
:10194000CF911F910F91FF90EF90BF90AF909F901C
:101950008F900895CF92DF92EF92FF920F931F9393
:10196000CF93DF93EC016A017B0189018C81833085
:1019700039F0A9E0CC0CDD1CEE1CFF1CAA95D1F7B8
:10198000CE0161E1A70196010E945A0C882339F02B
:1019900084E08983CE010E94D10B80E006C0CE0195
:1019A000B80140E052E00E94E40BDF91CF911F911B
:1019B0000F91FF90EF90DF90CF900895AF92BF927C
:1019C000CF92DF92EF92FF920F931F93CF93DF930B
:1019D000EC01162F1C82198248830E941E9DDC0197
:1019E000CB015C01888161E00E947C9CCE010E9459
:1019F000D10B82E360E00E947C9C83E361E00E9463
:101A00007C9C84E361E00E947C9C85E361E00E9411
:101A10007C9C85E361E00E949D9C85E08A830E9416
:101A2000B60B0AE08FEF0E94CC0B0150D9F70AC029
:101A30000E941E9D6A197B0987E0613D780710F0BE
:101A400081E05AC0CE0160E020E030E040E050E0AC
:101A50000E945A0C082F8B83813051F7CE0168E029
:101A60002AEA31E040E050E00E945A0C82FF02C0B6
:101A70000C830CC004E00E94C50B8B830150D9F786
:101A80008A3A11F082E038C082E08C838C81823007
:101A900031F4C12CD12CE12CB0E4FB2E0EC0CC24AF
:101AA000DD2476010AC00E941E9D6A197B0987E029
:101AB000613D780710F08AE01FC0CE0167E320E0A7
:101AC00030E040E050E00E945A0CCE0169E2A701EC
:101AD00096010E945A0C8B83882329F78C818230CF
:101AE000E9F4CE016AE320E030E040E050E00E94FB
:101AF0005A0C882331F088E08983CE010E94D10BF3
:101B000018C00E94C50B807C803C11F483E08C835C
:101B10000E94C50B0E94C50B0E94C50BCE010E94FE
:101B2000D10B173018F088E1898303C01A8381E054
:101B300001C080E0DF91CF911F910F91FF90EF9056
:101B4000DF90CF90BF90AF900895CF93DF93EC01DB
:101B50006EBDFA0180E090E00DB407FEFDCF20815C
:101B60002EBD0DB407FEFDCF21812EBD029632960B
:101B700022E08030920781F70DB407FEFDCF8FEF92
:101B80000E94CC0B8FEF0E94CC0B0E94C50B8B8365
:101B90008F71853039F083E18983CE010E94D10BAA
:101BA00080E001C081E0DF91CF910895CF92DF9274
:101BB000EF92FF920F931F93CF93DF93EC016A0193
:101BC0007B0189018C81833039F089E0CC0CDD1CEC
:101BD000EE1CFF1C8A95D1F7CE0168E1A7019601A2
:101BE0000E945A0C882311F086E01FC0CE016EEFD0
:101BF000A8010E94A50D8823C9F0CE0168E572E016
:101C00000E943D0C882311F487E10FC0CE016DE0E6
:101C100020E030E040E050E00E945A0C882321F49C
:101C20000E94C50B882379F086E18983CE010E944A
:101C3000D10B80E0DF91CF911F910F91FF90EF903A
:101C4000DF90CF900895CE010E94D10B81E0F2CFBA
:101C500080919E04882349F480919D04882329F46F
:101C600080919C04882309F4AEC0EFE2F1E007C044
:101C70009091C00095FFFCCF8093C600319684916F
:101C80008823B1F7E5E3F1E007C09091C00095FF2C
:101C9000FCCF8093C600319684918823B1F7809160
:101CA0009E04882349F1E4E4F1E007C09091C0006C
:101CB00095FFFCCF8093C600319684918823B1F7BD
:101CC00060919F047091A0048091A1049091A2045E
:101CD0000E94CEA12091FF0F309100104091011081
:101CE000509102100E9433A1AB01BC018BE59AE038
:101CF00022E030E00E948F7A80919D04882349F190
:101D0000E8E4F1E007C09091C00095FFFCCF80931C
:101D1000C600319684918823B1F76091A304709135
:101D2000A4048091A5049091A6040E94CEA12091C4
:101D300003103091041040910510509106100E943C
:101D400033A1AB01BC018BE59AE022E030E00E94B8
:101D50008F7A80919C04882349F1ECE4F1E007C07C
:101D60009091C00095FFFCCF8093C600319684917E
:101D70008823B1F76091A7047091A8048091A90409
:101D80009091AA040E94CEA12091071030910810D2
:101D90004091091050910A100E9433A1AB01BC017F
:101DA0008BE59AE022E030E00E948F7A8091C000BB
:101DB00085FFFCCF8AE08093C60010929E041092AB
:101DC0009D0410929C04089510929E0410929D040C
:101DD00010929C040895809307040895EFE6F0E0C4
:101DE00080818260808308951F920F920FB60F92B8
:101DF0000BB60F9211240F931F932F933F934F9382
:101E00005F936F937F938F939F93AF93BF93CF9382
:101E1000DF93EF93FF938091AF049091B00400970C
:101E200009F082C19091E20A8091E10A9817A1F02D
:101E30002091E10A30E08DE490E0289FF001299F95
:101E4000F00D389FF00D1124ED51F54FDF01A45B2B
:101E5000BF4F81E08C9302C0E0E0F0E0F093B0046B
:101E6000E093AF04309709F459C11092B104109275
:101E7000B2041092B3041092B40464AD75AD7093C3
:101E8000B6046093B5042CE96134720728F48EE43B
:101E90006132780748F002C060E47CE97695679586
:101EA0007695679584E007C0E7E261317E0730F000
:101EB0007695679582E08093B70408C081E08093AF
:101EC000B7046032710510F460E270E06052704057
:101ED000F8E060307F07E0F0272F30E0220F331F5B
:101EE000220F331F205B3E4FF9013296859194916A
:101EF000AA27699FE001689FC10DDA1F0694CA1FD7
:101F0000DA1F1124F901459154914C1B5D0B1FC040
:101F1000CB01969587958C7F805B9A4FFC0145910C
:101F200054910296FC01A591B491862F90E08770A0
:101F30009070A89F9001A99F300DB89F300D11247B
:101F4000D3E036952795DA95E1F7421B530B4436DB
:101F50005105A0F4E0E0F2E006C09091C00095FFCA
:101F6000FCCF8093C60081918823B9F78BE59AE076
:101F70004AE050E00E94B47944E650E0CA01A0E093
:101F8000B0E08093B8049093B904A093BA04B093DE
:101F9000BB045093890040938800E091AF04F09116
:101FA000B00460AD71AD2CE96134720728F48EE4A1
:101FB0006132780748F002C060E47CE97695679565
:101FC0007695679584E007C0E7E261317E0730F0DF
:101FD0007695679582E08093B70408C081E080938E
:101FE000B7046032710510F460E270E06052704036
:101FF000F8E060307F07E0F0272F30E0220F331F3A
:10200000220F331F205B3E4FF90132968591949148
:10201000AA27699FE001689FC10DDA1F0694CA1FB5
:10202000DA1F1124F901459154914C1B5D0B1FC01F
:10203000CB01969587958C7F805B9A4FFC014591EB
:1020400054910296FC01A591B491862F90E087707F
:102050009070A89F9001A99F300DB89F300D11245A
:10206000E3E036952795EA95E1F7421B530B44369A
:102070005105A0F4E0E0F2E006C09091C00095FFA9
:10208000FCCF8093C60081918823B9F78BE59AE055
:102090004AE050E00E94B47944E650E05093BD0419
:1020A0004093BC04E091AF04F091B0048089918921
:1020B000A289B389B695A79597958795B095A09570
:1020C000909581959F4FAF4FBF4F8093BE049093E3
:1020D000BF04A093C004B093C1048093C204909342
:1020E000C304A093C404B093C5048093C604909322
:1020F000C704A093C804B093C9048093CA04909302
:10210000CB04A093CC04B093CD041092AB041092F6
:10211000AC041092AD041092AE0406C080ED97E0BE
:102120009093890080938800E091AF04F091B0040F
:10213000309709F41AC580A18093CE0480FF37C080
:10214000119A8FEF8093030420B1217031E023278F
:1021500059F18091CF04882339F180819181A28146
:10216000B381181619061A061B06F4F480918C0424
:1021700090918D04A0918E04B0918F0480939F0460
:102180009093A004A093A104B093A20430939E0462
:1021900080899189A289B3898093AB049093AC0420
:1021A000A093AD04B093AE042093CF0436C0119831
:1021B00081E08093030421E0029B02C020E02BC059
:1021C0008091D004882339F180819181A281B381EB
:1021D000181619061A061B06F4F480918C049091C7
:1021E0008D04A0918E04B0918F0480939F049093EE
:1021F000A004A093A104B093A20420939E0480891C
:102200009189A289B3898093AB049093AC04A09385
:10221000AD04B093AE042093D0048091CE0481FF2E
:102220003BC044988FEF8093040421E0049B02C0DC
:1022300020E02FC08091D104882359F1E091AF04B0
:10224000F091B00484819581A681B7811816190692
:102250001A061B06F4F48091900490919104A091C9
:102260009204B09193048093A3049093A404A09348
:10227000A504B093A60420939D0480899189A28926
:10228000B3898093AB049093AC04A093AD04B09356
:10229000AE042093D1043AC0449A81E080930404B0
:1022A00021E0069B02C020E02FC08091D204882349
:1022B00059F1E091AF04F091B00484819581A68139
:1022C000B781181619061A061B06F4F480919004BB
:1022D00090919104A0919204B09193048093A304EF
:1022E0009093A404A093A504B093A60420939D0406
:1022F00080899189A289B3898093AB049093AC04BF
:10230000A093AD04B093AE042093D2048091CE0488
:1023100082FF3DC0A29A8FEF8093050426B12095DD
:10232000221F2227221F81F18091D304882361F18B
:10233000E091AF04F091B00480859185A285B385CA
:10234000181619061A061B06FCF480919404909145
:102350009504A0919604B09197048093A70490935C
:10236000A804A093A904B093AA0481E080939C04DC
:1023700080899189A289B3898093AB049093AC043E
:10238000A093AD04B093AE042093D3043AC0A298B6
:1023900081E08093050421E0359B02C020E02FC03E
:1023A0008091D404882359F1E091AF04F091B004F6
:1023B00080859185A285B385181619061A061B0615
:1023C000F4F48091940490919504A0919604B091B6
:1023D00097048093A7049093A804A093A904B093B2
:1023E000AA0420939C0480899189A289B38980934F
:1023F000AB049093AC04A093AD04B093AE042093CF
:10240000D4048091CE049FB7F89483FF08C08091D4
:102410000B018F7E80930B019FBF8FEF07C08091D0
:102420000B01806180930B019FBF81E080930604C4
:10243000C0E0D0E086C18091C00087FF1AC06091E3
:10244000C6008091DC0A9091DD0AAC014F5F5F4FBE
:102450004F7750702091DE0A3091DF0A4217530700
:1024600041F0845A954FFC0160835093DD0A4093FC
:10247000DC0AE091AF04F091B0044091BE045091A9
:10248000BF046091C0047091C10480819181A281D8
:10249000B381480F591F6A1F7B1F4093BE0450939E
:1024A000BF046093C0047093C10414161506160689
:1024B000170644F5139A80899189A289B389481B2C
:1024C000590B6A0B7B0B4093BE045093BF0460937F
:1024D000C0047093C104139880918C0490918D0472
:1024E000A0918E04B0918F0420910304820F911D5E
:1024F000A11DB11D80938C0490938D04A0938E0434
:10250000B0938F04E091AF04F091B0044091C20405
:102510005091C3046091C4047091C5048481958175
:10252000A681B781480F591F6A1F7B1F4093C204C1
:102530005093C3046093C4047093C5041416150625
:102540001606170644F5469A80899189A289B389AF
:10255000481B590B6A0B7B0B4093C2045093C30476
:102560006093C4047093C504469880919004909140
:102570009104A0919204B091930420910404820FDD
:10258000911DA11DB11D8093900490939104A0937F
:102590009204B0939304E091AF04F091B0044091A1
:1025A000C6045091C7046091C8047091C904808525
:1025B0009185A285B385480F591F6A1F7B1F4093E1
:1025C000C6045093C7046093C8047093C9041416DA
:1025D00015061606170644F5409A80899189A28946
:1025E000B389481B590B6A0B7B0B4093C60450936D
:1025F000C7046093C8047093C90440988091940400
:1026000090919504A0919604B091970420910504AF
:10261000820F911DA11DB11D809394049093950488
:10262000A0939604B0939704E091AF04F091B004A6
:102630008091CA049091CB04A091CC04B091CD04B8
:102640004485558566857785840F951FA61FB71F1E
:102650008093CA049093CB04A093CC04B093CD0490
:10266000181619061A061B060CF042C09FB7F894FC
:1026700080910B01806480930B019FBFE091AF04B8
:10268000F091B0048091CA049091CB04A091CC0445
:10269000B091CD044089518962897389841B950B5F
:1026A000A60BB70B8093CA049093CB04A093CC04E1
:1026B000B093CD049FB7F89480910B018F7B8093EA
:1026C0000B019FBF8091980490919904A0919A0466
:1026D000B0919B0420910604820F911DA11DB11D94
:1026E0008093980490939904A0939A04B0939B04C8
:1026F0008091AB049091AC04A091AD04B091AE0474
:102700000196A11DB11D8093AB049093AC04A093DE
:10271000AD04B093AE048091AB049091AC04A09151
:10272000AD04B091AE042196E091AF04F091B004F5
:10273000408951896289738984179507A607B7076D
:1027400038F48091B70490E0C817D9070CF473CE21
:102750004091AB045091AC046091AD047091AE0413
:10276000E091AF04F091B00484899589A689B78976
:1027700084179507A607B70708F4DCC00091B804D2
:102780001091B9042091BA043091BB04448D558D49
:10279000668D778DAA27059FB12D169FC001269FB4
:1027A000900D259F800D911D069FB00D811D9A1FD4
:1027B000159FB00D811D9A1F249FB00D811D9A1F7A
:1027C000149FB10D8A1F9A1FB6958A1F9A1F112454
:1027D00024AD35AD280F391F3093B6042093B504CE
:1027E00080AD91ADA2ADB3ADA90160E070E08417FA
:1027F0009507A607B70720F49093B6048093B50415
:102800006091B5047091B604FCE961347F0728F447
:102810002EE46132720748F002C060E47CE97695EC
:1028200067957695679584E007C087E26131780700
:1028300030F07695679582E08093B70408C081E018
:102840008093B7046032710510F460E270E060526A
:102850007040E8E060307E07E0F0272F30E0220F84
:10286000331F220F331F205B3E4FF90132968591B3
:102870009491AA27699FE001689FC10DDA1F069411
:10288000CA1FDA1F1124F901459154914C1B5D0BAD
:102890001FC0CB01969587958C7F805B9A4FFC017A
:1028A000459154910296FC01A591B491862F90E038
:1028B00087709070A89F9001A99F300DB89F300D30
:1028C0001124D3E036952795DA95E1F7421B530B97
:1028D00044365105A0F4E0E0F2E006C09091C0005B
:1028E00095FFFCCF8093C60081918823B9F78BE5D3
:1028F0009AE04AE050E00E94B47944E650E05093F8
:1029000089004093880060E070E08091B804909165
:10291000B904A091BA04B091BB04840F951FA61FFF
:10292000B71F8093B8049093B904A093BA04B093EE
:10293000BB04F6C04091AB045091AC046091AD046F
:102940007091AE04808D918DA28DB38D8417950703
:10295000A607B70708F0DCC00091B1041091B204DB
:102960002091B3043091B404448D558D668D778DDC
:10297000AA27059FB12D169FE001269FD00D259F08
:10298000C00DD11D069FB00DC11DDA1F159FB00DE2
:10299000C11DDA1F249FB00DC11DDA1F149FB10D98
:1029A000CA1FDA1FB695CA1FDA1F11248091B50419
:1029B0009091B604E05CFF4F8C179D0718F480815E
:1029C000918102C08C1B9D0B40815181628173817A
:1029D0008C0120E030E0041715072607370708F4BC
:1029E000CA01FCE981349F0728F42EE48132920762
:1029F00048F002C080E49CE9969587959695879566
:102A000024E007C0E7E281319E0730F09695879574
:102A100022E02093B70408C021E02093B70480325D
:102A2000910510F480E290E0BC0160527040F8E043
:102A300060307F07E0F0272F30E0220F331F220F96
:102A4000331F205B3E4FF901329685919491AA275E
:102A5000699FE001689FC10DDA1F0694CA1FDA1F43
:102A60001124F901459154914C1B5D0B1FC0CB0102
:102A7000969587958C7F805B9A4FFC014591549188
:102A80000296FC01A591B491862F90E0877090701A
:102A9000A89F9001A99F300DB89F300D1124E3E04D
:102AA00036952795EA95E1F7421B530B44365105BD
:102AB000A0F4E0E0F2E006C09091C00095FFFCCFEA
:102AC0008093C60081918823B9F78BE59AE04AE0AC
:102AD00050E00E94B47944E650E05093890040935E
:102AE000880060E070E08091B1049091B204A09100
:102AF000B304B091B404840F951FA61FB71F809331
:102B0000B1049093B204A093B304B093B40408C08A
:102B10008091BC049091BD049093890080938800BB
:102B20004091AB045091AC046091AD047091AE043F
:102B3000E091AF04F091B00480899189A289B389B2
:102B4000481759076A077B0780F01092B00410926B
:102B5000AF049091E20A8091E10A981731F08091D8
:102B6000E10A8F5F8F708093E10AFF91EF91DF910F
:102B7000CF91BF91AF919F918F917F916F915F9115
:102B80004F913F912F911F910F910F900BBE0F907E
:102B90000FBE0F901F901895099A3C9A9A9AEAE0F6
:102BA000F1E08081806180838081846080830D9AE0
:102BB000159A0F9A179A3A9A429A989AA09A229A34
:102BC0002A9A0898109A0A98129A0C98149A0E98B1
:102BD000169A3F98479A3D98459A0B9A159A3E9AAD
:102BE000179A389A429A808180648083A09A808163
:102BF000816080832A9AA1E8B0E08C918F7E8C93CB
:102C00008C9188608C93E0E8F0E080818D7F8083F8
:102C100080818E7F808380818F73808380818F7C91
:102C200080838C91887F82608C9380E090E4909385
:102C30008900809388001092850010928400EFE64E
:102C4000F0E080818260808381E080930704789443
:102C500008959091E20A8091E10A981741F00E944C
:102C6000EF6D81E00E94882C0E946358F2CF089596
:102C7000CF93DF93EFB7F894EC0188819981AA8113
:102C8000BB8180938C0490938D04A0938E04B093A9
:102C90008F04EB0188819981AA81BB818093900484
:102CA00090939104A0939204B0939304EA018881D5
:102CB0009981AA81BB818093940490939504A093F9
:102CC0009604B0939704E90188819981AA81BB8118
:102CD0008093980490939904A0939A04B0939B04D2
:102CE000EFBFDF91CF9108952FB7F894FC01808159
:102CF0009181A281B3818093980490939904A093C9
:102D00009A04B0939B042FBF08950F931F939FB70E
:102D1000F894E82FF0E0EE0FFF1FEE0FFF1FE457CF
:102D2000FB4F00811181228133819FBFB801C9010E
:102D30001F910F9108950E94291680E599E00E9445
:102D4000022C159A179A429AA09A089580916F00C2
:102D50008D7F80936F0006C08091E10A8F5F8F7036
:102D60008093E10A9091E20A8091E10A981751F468
:102D70001092B0041092AF0480916F008260809333
:102D80006F0008959091E20A8091E10A981751F33B
:102D9000E3CFCF93DF93EC019C012C5F3F4F898DF4
:102DA0009A8D41E050E060E070E00E94DC218823D1
:102DB000A1F08D899E89AF89B88D0097A105B105D5
:102DC00071F48C819D81AE81BF818D8B9E8BAF8B89
:102DD000B88F89818068898302C080E001C081E06A
:102DE000DF91CF910895CF92DF92EF92FF920F93F0
:102DF0001F93CF938C01FC0181899289A389B489A7
:102E0000803EFFEF9F07FFE1AF07F0E0BF0708F04C
:102E100079C0C8010E94C916882309F473C00E94B2
:102E2000DC1F882309F46EC0D8015996ED91FC91FE
:102E30005A971496CD90DD90ED90FC9017978EEFF9
:102E40009FEFAFEFBFEFC80ED91EEA1EFB1E058431
:102E500004C0CC0CDD1CEE1CFF1C0A94D2F7868546
:102E60009785A089B189C80ED91EEA1EFB1E81E094
:102E70008093DB04C092DE06D092DF06E092E0068B
:102E8000F092E10680E092E0EEEDF4E0DF019C01DB
:102E90001D9221503040E1F7C1E011C0B701A601F9
:102EA0004C0F511D611D711D8091DC049091DD045A
:102EB0002EED34E00E94D60D882321F1CF5FD8019A
:102EC0005996ED91FC915A978481C81738F380E0A8
:102ED00092E0A0E0B0E0058404C0880F991FAA1F0B
:102EE000BB1F0A94D2F7F80141895289638974891A
:102EF000480F591F6A1F7B1F418B528B638B748B4A
:102F000081E001C080E0CF911F910F91FF90EF9081
:102F1000DF90CF900895CF93DF93EC018C859D8552
:102F2000AE85BF8541E0662309F440E0BC01CD01D8
:102F30000E941920882351F0888990E025E0880FAD
:102F4000991F2A95E1F782529B4F02C080E090E0E2
:102F5000DF91CF910895FC0190E080E02EE2308176
:102F6000303269F0983029F4DB01A80FB11D2C93A1
:102F70008F5F3081DB01A80FB11D3C938F5F9F5F96
:102F800031969B3061F7680F711DFB011082089527
:102F9000CF93DF93EB01FC012381222389F02250A0
:102FA000223020F48FE28883198208C060E00E94FA
:102FB0008B17009729F0BE010E94AB1781E001C07A
:102FC00080E0DF91CF910895CF93DF93EA01FB0179
:102FD0002BE030E231932150E9F7DC0130E047E0AB
:102FE0001CC04A3069F138E04AE017C0E21741F1ED
:102FF000FC010196E491EE23C9F7431708F1213251
:10300000F8F02F37E8F4FB01E30FF11D822F815612
:103010008A3108F4205220833F5F9A2F8B2F2D9105
:10302000222339F02F3229F02E32D9F28AE599E0A5
:10303000DFCF9883898381E0FB019081903209F48E
:1030400080E0DF91CF9108950F931F93CF93DF938B
:10305000EC018B018B81882309F040C0FB0187893B
:10306000803109F041C082E08B831D8A1E8A1F8A4D
:10307000188E808D918DA0E0B0E035E0880F991F0B
:10308000AA1FBB1F3A95D1F7898B9A8BAB8BBC8B50
:1030900013C083E08B83F801428D538D648D758D51
:1030A0004D8B5E8B6F8B788F9E012F5E3F4FC801DB
:1030B0000E94D620882391F01A8F098F81E089839E
:1030C0001C821D821E821F82188619861A861B8604
:1030D0001C861D861E861F86188A01C080E0DF912F
:1030E000CF911F910F9108958032C1F7D2CF2F92C7
:1030F0003F924F925F926F927F928F929F92AF9288
:10310000BF92CF92DF92EF92FF920F931F93CF93D4
:10311000DF9300D000D0CDB7DEB79C838B83662EC3
:10312000272E2A01DC0113968C911397882309F42A
:10313000D2C011968C91119780FFCDC0E7C02A01B3
:10314000481A590A5201862C922CEB81FC81349644
:10315000FA83E983212C02E0302EB7C0EB81FC8199
:1031600080859185A285B3857FEF672E71E0772EEC
:103170006822792223816C017D0119E0F694E7949D
:10318000D794C7941A95D1F7418D528D5E834D83A4
:10319000223061F4DA015A964D915D916D917C91E6
:1031A0005D974C0D5D1D6E1D7F1D4EC0ED81FE8136
:1031B000048101500C216114710411F5002301F503
:1031C0000097A105B10559F4EB81FC8185899689A9
:1031D000A789B08D84839583A683B78311C0AB8103
:1031E000BC8114964D915D916D917C9117978D8165
:1031F0009E8129813A810E945320882309F46BC063
:10320000AB81BC815996ED91FC915A9714964D91E2
:103210005D916D917C911797425050406040704095
:10322000058404C0440F551F661F771F0A94D2F708
:1032300086859785A089B189480F591F6A1F7B1F12
:10324000400F511D611D711DC1018619970985012E
:103250008A159B0508F48C01B2E000301B0709F0C9
:1032600073C08091DE069091DF06A091E006B091D8
:10327000E106481759076A077B0709F465C0809182
:10328000DC049091DD0494010E94AA0C882341F48F
:1032900022C0B30162527B4FC401A8010E9441A821
:1032A000800E911EA80160E070E0EB81FC818085BA
:1032B0009185A285B385840F951FA61FB71F8087B0
:1032C0009187A287B387A01AB10AA114B10409F0AB
:1032D00045CFC20102C08FEF9FEF26960FB6F8943C
:1032E000DEBF0FBECDBFDF91CF911F910F91FF9039
:1032F000EF90DF90CF90BF90AF909F908F907F9096
:103300006F905F904F903F902F900895AB81BC815C
:1033100051964D915D916D917C91549718968D9138
:103320009D910D90BC91A02D820120E030E06A01BA
:103330007B01C81AD90AEA0AFB0A0C151D052E05DD
:103340003F0508F0FCCEFECECB01BA0140E00E9462
:103350001920882309F09DCFBECFCF93DF930F9222
:10336000CDB7DEB7BE016F5F7F4F41E050E00E94F6
:1033700077188130910519F4898190E002C08FEFB0
:103380009FEF0F90DF91CF9108950F931F93CF93ED
:10339000DF938C01EB01FC018381823020F1808579
:1033A0009185A285B3858F719070A070B0700097E1
:1033B000A105B105C1F4C801BE0140E250E00E9480
:1033C00077188032910519F0009769F40EC0888152
:1033D000882359F0853E79F38E3269F38B8583FD1E
:1033E000EACF80E203C08FEF01C080E0DF91CF9190
:1033F0001F910F910895CF92DF92EF92FF92CF939A
:10340000DF93EC018B81823038F1C884D984EA845F
:10341000FB84CE010E94AD1997FD1EC08885998559
:10342000AA85BB854F96A11DB11D88879987AA875C
:10343000BB87D701C60125E0B695A79597958795D7
:103440002A95D1F78F7090E035E0880F991F3A9553
:10345000E1F782529B4F02C080E090E0DF91CF9174
:10346000FF90EF90DF90CF9008958F929F92AF9250
:10347000BF92CF92DF92EF92FF920F931F93CF9361
:10348000DF93EC014A015B012B81222309F475C013
:1034900089899A89AB89BC8984179507A607B707DC
:1034A00008F46BC078C081149104A104B10449F4FC
:1034B0001C821D821E821F82188619861A861B8610
:1034C0005AC0488559856A857B85E98DFA8D2585A1
:1034D00030E0275F3F4FDB01CA010197A109B10925
:1034E000022E04C0B695A795979587950A94D2F7B2
:1034F000750164010894C108D108E108F10804C00D
:10350000F694E794D794C7942A95D2F7C816D906AB
:10351000EA06FB0628F0411551056105710549F4DD
:103520008D899E89AF89B88D8C839D83AE83BF833F
:1035300016C0C81AD90AEA0AFB0A11C04C815D817B
:103540006E817F81898D9A8D98010E945320089405
:10355000C108D108E108F108882321F40EC08E01CA
:103560000C5F1F4FC114D104E104F10439F78886C0
:103570009986AA86BB8681E001C080E0DF91CF9169
:103580001F910F91FF90EF90DF90CF90BF90AF9081
:103590009F908F900895223009F085CFE8CF40E0CA
:1035A00050E060E070E00E94351A08950F931F9379
:1035B000CF93DF938C01FC0183818823C9F1818142
:1035C00087FF33C0C80161E00E948B17EC010097B0
:1035D00079F18881853E61F1F8018381823040F480
:1035E00081899289A389B4898C8F9D8FAE8FBF8F7B
:1035F000F80185899689A789B08D9B8F8A8FBD8BAD
:10360000AC8BE091D504F091D604309751F0BE0117
:103610006A5E7F4FCE0148961995888D998D9B8B58
:103620008A8BF80181818F7781830E94DC1F04C01F
:1036300081E0F801808380E0DF91CF911F910F91AD
:103640000895CF93DF93EC010E94D61A1B82DF917D
:10365000CF910895CF93DF93EC018B81882321F0E4
:10366000CE010E94D61A1B82DF91CF9108954F920E
:103670005F926F927F928F929F92AF92BF92EF92E2
:10368000FF920F931F93CF93DF9300D00F92CDB78C
:10369000DEB77C014A015B01FC018381813009F0C6
:1036A00085C0818181FF82C095C00097A105B105C9
:1036B00009F47AC0F7014084518462847384C7019D
:1036C000B501A4010E94351A882309F46FC0F701DF
:1036D000818D928D81149104A104B10479F44589FE
:1036E00056896789708D0E94ED22882309F45EC097
:1036F000F701158A168A178A108E3CC0F70144819B
:103700005581668177819E012F5F3F4F0E94532034
:10371000882309F44BC0F701818D928D49815A812C
:103720006B817C81FC012789203149F4483FFFEF00
:103730005F07F0E06F07F0E07F07E0F408C0483F64
:103740002FEF52072FEF62072FE0720798F40E94C5
:10375000ED22882359F1F7014481558166817781F3
:10376000818D928D0FEF1FEF2FEF3FE00E944421DC
:103770008823E1F0F701818A928AA38AB48A818141
:1037800080688183C7010E94D61A882379F0B50129
:10379000A401481459046A047B0410F4B301A20183
:1037A000C7010E94351A03C081E001C080E00F907C
:1037B0000F900F900F90DF91CF911F910F91FF907D
:1037C000EF90BF90AF909F908F907F906F905F90A1
:1037D0004F900895F70181899289A389B48984174C
:1037E0009507A607B70708F060CFE0CFCF93DF9328
:1037F000EC0140E050E060E070E00E94371B88235D
:1038000069F0CE0161E00E948B17009739F025EE38
:10381000FC0120831B820E94DC1F01C080E0DF913D
:10382000CF9108951F93CF93DF93EC01142FE62FD0
:10383000F0E035E0EE0FFF1F3A95E1F7E252FB4F63
:103840008385817121F0842F827109F05DC08091A0
:10385000DE069091DF06A091E006B091E1068C872C
:103860009D87AE87BF87688B4489558960E070E08B
:10387000BA0155274427828D938DA0E0B0E0482BF4
:10388000592B6A2B7B2B4D8B5E8B6F8B788F8385AF
:1038900090E088719070009751F4848D958DA68D7D
:1038A000B78D898B9A8BAB8BBC8B81E00DC080313F
:1038B000910551F59E012F5E3F4F898D9A8D0E9493
:1038C000D620882309F184E08B83812F8F70898330
:1038D0001C821D821E821F82188619861A861B86EC
:1038E00014FF18C0CE0140E050E060E070E00E949C
:1038F000371B882351F00EC049895A896B897C890E
:10390000CE010E94351A02C01B8280E0DF91CF9168
:103910001F91089515FDF0CF81E0F8CF7F928F922F
:103920009F92AF92BF92CF92DF92EF92FF920F934E
:103930001F93CF93DF935C01EB01942E852E722EA3
:10394000898D9A8DF501928F818FCB010E94CF1ABC
:1039500010E037C0CE010E94FB19BC01009709F4AA
:1039600090C0D701C60135E0B695A7959795879584
:103970003A95D1F7082F0F70FB018081882311F051
:10398000853EB1F4112379F48091DE069091DF0633
:10399000A091E006B091E106F50184879587A6879E
:1039A000B787008B11E0FB018081882351F417C099
:1039B000892D982D4BE050E00E9434A8009709F41F
:1039C0006FC0C884D984EA84FB8489899A89AB89C9
:1039D000BC89C816D906EA06FB0608F4BBCF76FEFA
:1039E00050C071FE4EC0112351F0F5010089C50190
:1039F00061E00E948B17EC01009769F442C08B8153
:103A0000823009F43EC0CE010E94F3168823C9F12A
:103A1000CEEDD4E000E080E2FE0111928A95E9F754
:103A2000FE01A92DB82D8BE00D9001928150E1F798
:103A3000E091D504F091D604309739F0BE01625F71
:103A40007F4FCE014096199508C081E298E2998B8C
:103A5000888B80E098E09F878E87888999899B8BE7
:103A60008A8B998F888F8E859F859F8B8E8B0E94E6
:103A7000DC1F882331F0C501602F472D0E94121CE6
:103A800001C080E0DF91CF911F910F91FF90EF90E7
:103A9000DF90CF90BF90AF909F908F907F900895D0
:103AA00077FEE9CFEECF5F926F927F928F929F92D7
:103AB000AF92BF92CF92DF92EF92FF920F931F933C
:103AC000CF93DF93CDB7DEB7C354D0400FB6F89491
:103AD000DEBF0FBECDBF4C016B0124965FAF4EAF72
:103AE0002497522E1FA21AA61C861F8661157105E7
:103AF00009F47AC0FC018381882309F075C0FA01BA
:103B000080818F3291F405C031962496FFAFEEAFDD
:103B100024972496EEADFFAD249780818F32A1F3D8
:103B2000F60183818250823050F4860157E2E52EFF
:103B3000F12CEC0EFD1E3701BE2CAF2C11C0F6018E
:103B4000618D728DCE010C960E942418882309F491
:103B50004BC08E01045F1F4FE9CF8701EB2CFA2C7D
:103B600024968EAD9FAD2497BE016F5F7F4FAE014F
:103B70004E5B5F4F0E94E417882331F435C03196C5
:103B80002496FFAFEEAF24972496EEADFFAD2497B9
:103B900080818F32A1F38823E9F0C701B801AE011B
:103BA0004F5F5F4F21E00E948E1C8823E9F00C15C7
:103BB0001D0529F0C8010E94D61AF8011382E614E7
:103BC000F70459F64CE0E42EF12CEC0EFD1E0B2D03
:103BD0001A2DC6CFC401B801AE014F5F5F4F252D2E
:103BE0000E948E1C082F01C000E0CE010C960E949E
:103BF0002A1BCE0187960E942A1B802FCD5BDF4FA8
:103C00000FB6F894DEBF0FBECDBFDF91CF911F91ED
:103C10000F91FF90EF90DF90CF90BF90AF909F906B
:103C20008F907F906F905F9008951F93CF93DF9355
:103C3000CDB7DEB76B970FB6F894DEBF0FBECDBF22
:103C40009C01AB0119821C82CE010196B90122E0D0
:103C50000E94531D882331F0CE0101960E94F61B6D
:103C6000182F01C010E0CE0101960E942A1B812F5F
:103C70006B960FB6F894DEBF0FBECDBFDF91CF912C
:103C80001F9108952F923F924F925F926F927F9271
:103C90008F929F92BF92CF92DF92EF92FF920F93FB
:103CA0001F93CF93DF9300D000D0CDB7DEB78C0148
:103CB000B62EC72E5E834D83DC0113968C9113972D
:103CC000813009F059C111968C91119781FF54C12F
:103CD00070C1F80141895289638974898085918511
:103CE000A285B38584179507A607B70731F0C801E9
:103CF0000E94351A882309F43FC14D805E802B2C29
:103D00003C2C07C1F801218D328DF901B480BA94A1
:103D1000AC01BD01032E39E076956795579547951F
:103D20003A95D1F7302DB4224FEF642E41E0742E36
:103D300068227922BB2009F04BC06114710409F09C
:103D400047C0D80114964D915D916D917C91179764
:103D5000411551056105710559F455968D919D9157
:103D60000D90BC91A02D0097A105B10561F525C06E
:103D7000C9019E012F5F3F4F0E945320882309F401
:103D8000FBC089819A81AB81BC81F801218D328D84
:103D9000F9012789203149F4883FFFEF9F07F0E0C0
:103DA000AF07F0E0BF0748F40EC0883F2FEF92073F
:103DB0002FEFA2072FE0B20730F0C8010E94C9160A
:103DC000882331F4D9C0F80184839583A683B7830F
:103DD00080E092E08619970942018415950508F460
:103DE0004C01D8015996ED91FC915A971496CD90BB
:103DF000DD90ED90FC9017978EEF9FEFAFEFBFEF48
:103E0000C80ED91EEA1EFB1E058404C0CC0CDD1CA6
:103E1000EE1CFF1C0A94D2F786859785A089B1898C
:103E2000C80ED91EEA1EFB1ECB0CD11CE11CF11CD6
:103E300090E0891692E0990639F58091DE0690911E
:103E4000DF06A091E006B091E1068C159D05AE0558
:103E5000BF0571F41092DB048FEF9FEFAFEFBFEF60
:103E60008093DE069093DF06A093E006B093E10610
:103E70008091DC049091DD04B701A60191010E94BC
:103E8000D60D882391F578C061147104F9F4F80116
:103E900080859185A285B38541895289638974891A
:103EA00084179507A607B70788F00E94DC1F8823B0
:103EB00009F462C081E08093DB04C092DE06D092F8
:103EC000DF06E092E006F092E10608C0C701B60105
:103ED00041E00E941920882309F44EC0C301825298
:103EE0009B4FB101A4010E9441A8A40160E070E0D1
:103EF000F80180859185A285B385840F951FA61F43
:103F0000B71F80879187A287B387280C391C481870
:103F10005908F80180859185A285B3854114510423
:103F200009F0F0CE4189528963897489481759078D
:103F30006A077B0740F4818B928BA38BB48B8181C2
:103F4000806881830DC08091D5049091D60400973C
:103F500039F08D819E81009719F08181806881837D
:103F6000F801818183FF05C0C8010E94D61A882309
:103F700019F08D819E8105C081E0D8018C938FEF6F
:103F80009FEF26960FB6F894DEBF0FBECDBFDF9130
:103F9000CF911F910F91FF90EF90DF90CF90BF9046
:103FA0009F908F907F906F905F904F903F902F9059
:103FB000089582FD8ECEA1CE8091DB04882399F1F5
:103FC0004091DE065091DF066091E0067091E106B7
:103FD0008091DC049091DD042EED34E00E94D60D3A
:103FE000882319F14091D7045091D8046091D904E5
:103FF0007091DA04411551056105710591F08091C8
:10400000DC049091DD042EED34E00E94D60D88236F
:1040100071F01092D7041092D8041092D904109223
:10402000DA041092DB0481E0089580E0089580E0D6
:104030000895CF92DF92EF92FF92CF936B017C01B4
:10404000C42F8091DE069091DF06A091E006B0912A
:10405000E1068C159D05AE05BF05C1F00E94DC1F71
:104060008823D1F08091DC049091DD04B701A60192
:104070002EED34E00E94AA0C882371F0C092DE0677
:10408000D092DF06E092E006F092E10681E0CC23D8
:1040900021F08093DB0401C080E0CF91FF90EF908E
:1040A000DF90CF900895CF92DF92EF92FF920F931F
:1040B0001F93CF93DF93EC016A017B01890189850E
:1040C0009A85AB85BC850196A11DB11D8417950706
:1040D000A607B70708F460C08F89803129F4BB2791
:1040E000AF2D9E2D8D2D0CC0803209F055C0DB0107
:1040F000CA0147E0B695A795979587954A95D1F758
:104100004B895C896D897E89840F951FA61FB71F17
:104110004091DE065091DF066091E0067091E10665
:1041200084179507A607B70739F0BC01CD0140E019
:104130000E941920882381F18F89803191F48FEFBB
:1041400090E0A0E0B0E0C822D922EA22FB22F601EA
:10415000EE0FFF1FE252FB4F80819181A0E0B0E0A3
:1041600014C08FE790E0A0E0B0E0C822D922EA2294
:10417000FB22F601EE0FFF1FEE0FFF1FE252FB4F77
:1041800080819181A281B381BF70F8018083918386
:10419000A283B38381E001C080E0DF91CF911F91C2
:1041A0000F91FF90EF90DF90CF9008956F927F92E4
:1041B0008F929F92AF92BF92CF92DF92EF92FF9237
:1041C0000F931F93CF93DF9300D00F92CDB7DEB73D
:1041D0008C0149835A836B837C833901CC24DD2491
:1041E0007601812CE2E09E2EA12CB12C49815A81CE
:1041F0006B817C81C8019E012F5F3F4F0E9453203D
:10420000882371F1D501C401F801058404C0880F29
:10421000991FAA1FBB1F0A94D2F7C80ED91EEA1E07
:10422000FB1E89819A81AB81BC812789203149F4A9
:10423000883FFFEF9F07F0E0AF07F0E0BF0748F4CB
:10424000D5CF883F2FEF92072FEFA2072FE0B207BD
:1042500068F2F301C082D182E282F38281E001C080
:1042600080E00F900F900F900F90DF91CF911F91F2
:104270000F91FF90EF90DF90CF90BF90AF909F9005
:104280008F907F906F9008954F925F926F927F9280
:104290008F929F92AF92BF92CF92DF92EF92FF9256
:1042A0000F931F93CF93DF93EC014A015B01280129
:1042B0003901423051056105710508F46BC08985EB
:1042C0009A85AB85BC850196A11DB11D8417950704
:1042D000A607B70708F45EC08F89803129F4C52E80
:1042E000D62EE72EFF240CC0803209F053C06A019D
:1042F0007B0187E0F694E794D794C7948A95D1F729
:104300008B899C89AD89BE89C80ED91EEA1EFB1E09
:10431000C701B60141E00E9419208823D9F18F8995
:10432000803181F48FEF90E0A0E0B0E08822992204
:10433000AA22BB22F401EE0FFF1FE252FB4F518273
:10434000408213C08FE790E0A0E0B0E0882299227D
:10435000AA22BB22F401EE0FFF1FEE0FFF1FE25255
:10436000FB4F40825182628273828A89823080F060
:104370008D819E81AF81B8858C0D9D1DAE1DBF1DA9
:104380008093D7049093D804A093D904B093DA040F
:1043900081E001C080E0DF91CF911F910F91FF90EC
:1043A000EF90DF90CF90BF90AF909F908F907F90D5
:1043B0006F905F904F9008952F923F924F925F922F
:1043C0006F927F928F929F92AF92BF92CF92DF9225
:1043D000EF92FF920F931F93CF93DF93CDB7DEB78A
:1043E0002F970FB6F894DEBF0FBECDBF1C014C87D0
:1043F0005D876E877F873B872A87DC0119962D9121
:104400003D914D915C911C972F5F3F4F4F4F5F4FF8
:104410002E833F8348875987EA85FB8540805180FA
:1044200062807380411451046104710431F0089476
:10443000411C511C611C711C10C0DC014D905D9031
:104440006D907C90B1E0BD832C853D854E855F8568
:10445000213031054105510509F01D82530142010A
:10446000CC24DD247601F10181859285A385B48574
:10447000C816D906EA06FB0608F093C02E813F81D4
:1044800048855985281539054A055B0550F422E011
:10449000822E912CA12CB12C32E0432E512C612C78
:1044A000712CC101B501A4019E012F5F3F4F0E94F5
:1044B0005320882309F475C049815A816B817C811E
:1044C000D501C4010196A11DB11D4115510561051C
:1044D000710519F02C013D010DC084199509A6093B
:1044E000B7092C853D854E855F8582179307A40704
:1044F000B50759F00894C11CD11CE11CF11C0894AB
:10450000811C911CA11CB11CAECFC101A401B5013D
:104510000FEF1FEF2FEF3FE00E944421882391F41B
:1045200040C0680179010894C108D108E108F10888
:10453000C101B701A6010E944421882391F197018E
:10454000860102C095018401401651066206730679
:1045500040F3AA85BB854D915D916D917C91139738
:10456000411551056105710539F0C10193018201C1
:104570000E9444218823A9F0EA85FB85408251826C
:1045800062827382FD81FF2371F00894411C511CEB
:10459000611C711CD1014D925D926D927C921397BA
:1045A00002C080E001C081E02F960FB6F894DEBF14
:1045B0000FBECDBFDF91CF911F910F91FF90EF9074
:1045C000DF90CF90BF90AF909F908F907F906F9033
:1045D0005F904F903F902F900895AF92BF92CF92EF
:1045E000DF92EF92FF920F931F93CF93DF9300D050
:1045F0000F92CDB7DEB75C016A017B0182E090E0EB
:10460000A0E0B0E0F50180839183A283B383C5016C
:10461000B701A6019E012F5F3F4F0E9453208823C0
:1046200041F1C501B701A60100E010E020E030E053
:104630000E9444218823E9F0C980DA80EB80FC8065
:10464000F5018789803151F4F8EFCF16FFEFDF06CF
:10465000F0E0EF06F0E0FF0650F4D9CF88EFC8167F
:104660008FEFD8068FEFE8068FE0F80680F281E042
:1046700001C080E00F900F900F900F90DF91CF91CD
:104680001F910F91FF90EF90DF90CF90BF90AF9070
:1046900008956F927F928F929F92AF92BF92CF9226
:1046A000DF92EF92FF921F93CF93DF93EC01142FD1
:1046B0007093DD046093DC041F8A82E090E0A0E048
:1046C000B0E088839983AA83BB831092DB041092A5
:1046D000D7041092D8041092D9041092DA048FEF04
:1046E0009FEFAFEFBFEF8093DE069093DF06A093BE
:1046F000E006B093E106442389F1453008F008C193
:1047000060E070E080E090E040E00E9419208823A3
:1047100009F4FEC0E12FF0E0A4E0EE0FFF1FAA9520
:10472000E1F7E457F94F808190E08F779070009720
:1047300009F0EEC084859585A685B78584369105F8
:10474000A105B10508F4E4C080849184A284B384F7
:1047500081149104A104B10421F4DAC088249924BD
:104760005401C501B40140E00E941920882309F4D6
:10477000CFC08091E9049091EA0422E08030920752
:1047800009F0C6C03091EE04332309F4C1C0809112
:10479000EC049091ED04009709F4BAC02091EB0469
:1047A000222309F4B5C03A8B2C831D8630E041E00A
:1047B00050E006C0812F8F5F8D87183008F0A8C0A9
:1047C0001D85CA01012E02C0880F991F0A94E2F7C5
:1047D0002817390779F78091F4049091F504009730
:1047E00019F0A0E0B0E008C08091020590910305A7
:1047F000A0910405B09105058D839E83AF83B88792
:104800002091EC043091ED046901EE24FF24C80CE2
:10481000D91CEA1CFB1CCB8ADC8AED8AFE8A6090DC
:10482000EF047090F004798E688E2091EE0430E0F1
:1048300040E050E0BC01CD010E94C7A4DC01CB01E7
:104840008C0D9D1DAE1DBF1D8A8F9B8FAC8FBD8FA4
:10485000A301E5E0440F551FEA95E1F741505E4F93
:10486000452F5527469560E070E0480F591F6A1F95
:104870007B1F4E875F87688B798B8091F1049091C5
:10488000F204009719F0A0E0B0E008C08091FE04A7
:104890009091FF04A0910005B0910105841A950A3A
:1048A000A60AB70A880E991EAA1EBB1E04C0B6949B
:1048B000A794979487941A95D2F789869A86AB869F
:1048C000BC8685EF88168FE0980680E0A80680E019
:1048D000B80618F48CE08F8B1BC025EF82162FEFE3
:1048E000920620E0A20620E0B20610F480E10DC09E
:1048F00080910A0590910B05A0910C05B0910D05D2
:104900008A8F9B8FAC8FBD8F80E28F8B81E001C03F
:1049100080E0DF91CF911F91FF90EF90DF90CF90DB
:10492000BF90AF909F908F907F906F900895CF939E
:10493000DF930F92CDB7DEB769830496BE016F5F38
:104940007F4F41E050E00E94421E0F90DF91CF91D7
:104950000895DB010D900020E9F7AD014150504072
:10496000461B570B04960E94421E0895CF93DF9377
:10497000CAE6D9E0FE0107C09091C00095FFFCCFC8
:104980008093C600319684918823B1F7EEE9FAE06E
:1049900007C09091C00095FFFCCF8093C600319670
:1049A00084918823B1F78091C00085FFFCCF8AE015
:1049B0008093C600FE018491EAE6F9E008C0909178
:1049C000C00095FFFCCF8093C60031968491882368
:1049D000B1F7EEEAFAE007C09091C00095FFFCCF76
:1049E0008093C600319684918823B1F74091FF0FE0
:1049F0005091001060910110709102108BE59AE0C7
:104A000022E030E00E948F7AE6EBFAE007C0909156
:104A1000C00095FFFCCF8093C60031968491882317
:104A2000B1F74091031050910410609105107091FE
:104A300006108BE59AE022E030E00E948F7AE9EBE5
:104A4000FAE007C09091C00095FFFCCF8093C600AC
:104A5000319684918823B1F7409107105091081046
:104A60006091091070910A108BE59AE022E030E025
:104A70000E948F7AECEBFAE007C09091C00095FF9E
:104A8000FCCF8093C600319684918823B1F7409182
:104A90000B1050910C1060910D1070910E108BE561
:104AA0009AE022E030E00E948F7A8091C00085FF7A
:104AB000FCCF8AE08093C600FE018491EAE6F9E02B
:104AC00008C09091C00095FFFCCF8093C60031963E
:104AD00084918823B1F7EFEBFAE007C09091C00012
:104AE00095FFFCCF8093C600319684918823B1F75F
:104AF0008091C00085FFFCCF8AE08093C600FE0154
:104B00008491EAE6F9E008C09091C00095FFFCCFDF
:104B10008093C600319684918823B1F7E9EDFAE0DD
:104B200007C09091C00095FFFCCF8093C6003196DE
:104B300084918823B1F740910F105091101060912B
:104B40001110709112108BE59AE022E030E00E9483
:104B50008F7AE2EEFAE007C09091C00095FFFCCF9B
:104B60008093C600319684918823B1F74091131049
:104B70005091141060911510709116108BE59AE009
:104B800022E030E00E948F7AE5EEFAE007C09091D3
:104B9000C00095FFFCCF8093C60031968491882396
:104BA000B1F7409117105091181060911910709141
:104BB0001A108BE59AE022E030E00E948F7AE8EE4E
:104BC000FAE007C09091C00095FFFCCF8093C6002B
:104BD000319684918823B1F740911B1050911C109D
:104BE00060911D1070911E108BE59AE022E030E07C
:104BF0000E948F7A8091C00085FFFCCF8AE080936D
:104C0000C600FE018491EAE6F9E008C09091C00078
:104C100095FFFCCF8093C600319684918823B1F72D
:104C2000EBEEFAE007C09091C00095FFFCCF8093B7
:104C3000C600319684918823B1F78091C00085FF2A
:104C4000FCCF8AE08093C600FE018491EAE6F9E099
:104C500008C09091C00095FFFCCF8093C6003196AC
:104C600084918823B1F7E9E0FBE007C09091C00090
:104C700095FFFCCF8093C600319684918823B1F7CD
:104C80004091EF0F5091F00F6091F10F7091F20F82
:104C90008BE59AE02AE030E00E944979E2E1FBE00E
:104CA00007C09091C00095FFFCCF8093C60031965D
:104CB00084918823B1F74091F30F5091F40F6091E4
:104CC000F50F7091F60F8BE59AE02AE030E00E9434
:104CD0004979E5E1FBE007C09091C00095FFFCCF6A
:104CE0008093C600319684918823B1F74091F70FE5
:104CF0005091F80F6091F90F7091FA0F8BE59AE0DF
:104D00002AE030E00E944979E8E1FBE007C0909199
:104D1000C00095FFFCCF8093C60031968491882314
:104D2000B1F74091FB0F5091FC0F6091FD0F709116
:104D3000FE0F8BE59AE02AE030E00E9449798091ED
:104D4000C00085FFFCCF8AE08093C600FE018491FD
:104D5000EAE6F9E008C09091C00095FFFCCF80938F
:104D6000C600319684918823B1F7EBE1FBE007C0E0
:104D70009091C00095FFFCCF8093C600319684913E
:104D80008823B1F78091C00085FFFCCF8AE0809333
:104D9000C600FE018491EAE6F9E008C09091C000E7
:104DA00095FFFCCF8093C600319684918823B1F79C
:104DB000E0E5FBE007C09091C00095FFFCCF809339
:104DC000C600319684918823B1F74091E70F509146
:104DD000E80F6091E90F7091EA0F8BE59AE022E00D
:104DE00030E00E948F7AE9E5FBE007C09091C000B7
:104DF00095FFFCCF8093C600319684918823B1F74C
:104E00004091E30F5091E40F6091E50F7091E60F30
:104E10008BE59AE022E030E00E948F7A8091C0001A
:104E200085FFFCCF8AE08093C600FE018491EAE60C
:104E3000F9E008C09091C00095FFFCCF8093C600B8
:104E4000319684918823B1F7ECE5FBE007C090919F
:104E5000C00095FFFCCF8093C600319684918823D3
:104E6000B1F78091C00085FFFCCF8AE08093C60037
:104E7000FE018491EAE6F9E008C09091C00095FF38
:104E8000FCCF8093C600319684918823B1F7E5EF7B
:104E9000FBE007C09091C00095FFFCCF8093C60057
:104EA000319684918823B1F74091EB0F5091EC0F2C
:104EB0006091ED0F7091EE0F8BE59AE022E030E00B
:104EC0000E948F7AEEEFFBE007C09091C00095FF43
:104ED000FCCF8093C600319684918823B1F740912E
:104EE000D30F5091D40F6091D50F7091D60F8BE5F1
:104EF0009AE022E030E00E948F7AE1E0FCE007C017
:104F00009091C00095FFFCCF8093C60031968491AC
:104F10008823B1F740911F1050912010609121100B
:104F2000709122108BE59AE02AE030E00E944979E6
:104F3000E4E0FCE007C09091C00095FFFCCF8093B7
:104F4000C600319684918823B1F74091DF0F5091CC
:104F5000E00F6091E10F7091E20F8BE59AE022E0A3
:104F600030E00E948F7AE7E0FCE007C09091C0003B
:104F700095FFFCCF8093C600319684918823B1F7CA
:104F80004091DB0F5091DC0F6091DD0F7091DE0FCF
:104F90008BE59AE022E030E00E948F7AEAE0FCE0C4
:104FA00007C09091C00095FFFCCF8093C60031965A
:104FB00084918823B1F74091D70F5091D80F609119
:104FC000D90F7091DA0F8BE59AE022E030E00E9471
:104FD0008F7A8091C00085FFFCCF8AE08093C60065
:104FE000FE018491EAE6F9E008C09091C00095FFC7
:104FF000FCCF8093C600319684918823B1F7EDE011
:10500000FCE007C09091C00095FFFCCF8093C600E4
:10501000319684918823B1F78091C00085FFFCCF41
:105020008AE08093C600FE01C491EAE6F9E008C078
:105030008091C00085FFFCCFC093C6003196C4911B
:10504000CC23B1F7EBE1FCE007C09091C00095FFE5
:10505000FCCF8093C600319684918823B1F74091AC
:1050600036045091370460913804709139048BE50F
:105070009AE022E030E00E948F7AE5E2FCE007C08F
:105080009091C00095FFFCCF8093C600319684912B
:105090008823B1F760913204709133048091340415
:1050A000909135042FE632E143E05EE30E9433A1A4
:1050B000AB01BC018BE59AE022E030E00E948F7AE0
:1050C000E8E2FCE007C09091C00095FFFCCF809320
:1050D000C600319684918823B1F760912E047091B7
:1050E0002F0480913004909131042FE632E143E0A7
:1050F0005EE30E9401A4AB01BC018BE59AE022E0D3
:1051000030E00E948F7A8091C00085FFFCCF8AE05A
:105110008093C600DF91CF910895CF93DF930F92D4
:105120000F92CDB7DEB780915010909151109E0133
:105130002F5F3F4F009719F42655304102C0281BBE
:10514000390B3A83298389819A810F900F90DF91DF
:10515000CF910895BC018091060890910708843092
:1051600091050CF06EC0209108083091090840E6C6
:1051700050E0249FC001259F900D349F900D112475
:10518000865F974F0E9460A8EAE6F9E007C0909119
:10519000C00095FFFCCF8093C60031968491882390
:1051A000B1F7E0E7F9E007C09091C00095FFFCCFB0
:1051B0008093C600319684918823B1F72091080826
:1051C0003091090880E690E0289FF001299FF00DBA
:1051D000389FF00D1124E65FF74F06C09091C00094
:1051E00095FFFCCF8093C60081918823B9F7EBE748
:1051F000F9E007C09091C00095FFFCCF8093C600F6
:10520000319684918823B1F78091C00085FFFCCF4F
:105210008AE08093C6008091080890910908019661
:1052200064E070E00E94FAA4909309088093080853
:105230008091060890910708019690930708809343
:1052400006080895809A889A0895809A8898089503
:105250008091940990919509019660E070E00E9418
:105260004EA5462F572F682F792FCB01BA010895ED
:105270008091940990919509019660E070E04AE070
:1052800050E00E94CDA60895682FE0918E09F0911C
:105290008F0940E650E0E49F9001E59F300DF49FB8
:1052A000300D1124C901865F974F70E00E9455A808
:1052B0009C01909395098093940981E02115310513
:1052C00009F480E008950E941E9DDC01CB018093CB
:1052D000A6099093A709A093A809B093A909E09102
:1052E0008E09F0918F09E657F64F80818823A1F44B
:1052F000E2E2FFE007C09091C00095FFFCCF8093F1
:10530000C600319684918823B1F78091C00085FF53
:10531000FCCF8AE08093C60008958BE59AE00E9456
:10532000C278EAE1FFE007C09091C00095FFFCCF92
:105330008093C600319684918823B1F740919A09F1
:1053400050919B0960919C0970919D094F5F5F4F3F
:105350006F4F7F4F8BE59AE02AE030E00E945E7944
:105360008091C00085FFFCCF8AE08093C6000E9438
:10537000632908956F927F928F929F92AF92BF920E
:10538000CF92DF92EF92FF920F931F93CF9385E41A
:10539000682E84E0782E0BE017E09EEAC92E99E093
:1053A000D92E2EE1E22E27E0F22EC0E0F30181910A
:1053B0003F010E944429882309F10E9428294B01BA
:1053C0005C01F7018081882319F46091BE0901C056
:1053D00061E070E080E090E00E94CEA1F8012081C1
:1053E0003181428153810E9401A49B01AC01C5011E
:1053F000B4010E9453A0DC01CB0105C0F8018081FB
:105400009181A281B381F60180839183A283B383CA
:10541000CF5F0C5F1F4F84E090E0C80ED91E089448
:10542000E11CF11CC43011F686E40E944429882353
:10543000E1F00E9428296B017C016093C8097093F8
:10544000C9098093CA099093CB0920E030E040E07D
:1054500050E00E942FA3181644F4C0921C04D0926E
:105460001D04E0921E04F0921F04CF911F910F9132
:10547000FF90EF90DF90CF90BF90AF909F908F9074
:105480007F906F9008950E94BA2989E40E94442970
:10549000882329F00E942829DC01CB0104C080E088
:1054A00090E0A0E0B0E08093CC099093CD09A09368
:1054B000CE09B093CF098AE40E944429882329F0B9
:1054C0000E942829DC01CB0104C080E090E0A0E02C
:1054D000B0E08093D0099093D109A093D209B09302
:1054E000D30908958F929F92AF92BF92CF92DF928D
:1054F000EF92FF920F931F93CF93DF930E941E9D15
:10550000DC01CB018093A6099093A709A093A80979
:10551000B093A90960910A0470910B04CEEAD9E016
:1055200034E0C32ED12CCC0EDD1E48E0A42EB12CCD
:10553000AC0EBD1E5CE0852E912C8C0E9D1E882726
:1055400077FD8095982F0E94CEA120911C04309168
:105550001D0440911E0450911F040E9401A420E0EC
:1055600030E040E752E40E9433A120E030E048EC14
:1055700052E40E9433A17B018C01CE01B601A5014A
:105580009401EEEFCE2EE6E0DE2E0E946D8D80912E
:10559000AE099091AF09A091B009B091B109809383
:1055A0000B0790930C07A0930D07B0930E07809103
:1055B000B2099091B309A091B409B091B509809353
:1055C0000F0790931007A0931107B09312078091D3
:1055D000B6099091B709A091B809B091B909809323
:1055E000130790931407A0931507B09316078091A3
:1055F000BA099091BB09A091BC09B091BD098093F3
:10560000170790931807A0931907B0931A07DF9113
:10561000CF911F910F91FF90EF90DF90CF90BF90AF
:10562000AF909F908F9008954F925F926F927F926C
:10563000AF92BF92CF92DF92EF920F931F93CF93CF
:10564000C82F6091CC097091CD098091CE099091BD
:10565000CF092091D0093091D1094091D2095091C0
:10566000D3090E943CA32B013C0160910A04709174
:105670000B0400D000D00DB71EB70F5F1F4F882757
:1056800077FD8095982F0E94CEA120911C04309127
:105690001D0440911E0450911F040E9401A420E0AB
:1056A00030E040E752E40E9433A120E030E048ECD3
:1056B00052E40E9433A15B016C01F80140825182E7
:1056C00062827382C4838091FE0685838BE097E0BB
:1056D0006EEA79E04CEC59E020E001E0A2E0EA2E2D
:1056E0000E947E848091AE099091AF09A091B0098B
:1056F000B091B10980930B0790930C07A0930D070D
:10570000B0930E078091B2099091B309A091B409AA
:10571000B091B50980930F0790931007A0931107DC
:10572000B09312078091B6099091B709A091B8097A
:10573000B091B9098093130790931407A0931507AC
:10574000B09316078091BA099091BB09A091BC094A
:10575000B091BD098093170790931807A09319077C
:10576000B0931A078DB79EB706960FB6F8949EBFF2
:105770000FBE8DBF0E941E9DDC01CB018093A60948
:105780009093A709A093A809B093A909CF911F915D
:105790000F91EF90DF90CF90BF90AF907F906F9080
:1057A0005F904F9008958091FC060895CF93DF930A
:1057B000EC0105C082EE96E00E94359E2196FE0126
:1057C00064916623B9F7DF91CF9108950F931F93EA
:1057D000CF93DF938C01C8EDD9E0CE01B80144E14D
:1057E00050E00E9475A8F80101900020E9F7319778
:1057F000E01BF10BEC0FFD1F1082DF91CF911F9189
:105800000F910895FC01349120E0A8EDB9E08A1BC6
:105810009B0B332349F0243139F03D932F5FFD0179
:10582000E80FF91F3491F5CF1C9208950E94717012
:105830008091FC068823C1F581E08093FC0680916D
:105840009A0990919B09A0919C09B0919D09809320
:10585000C4099093C509A093C609B093C709E0E4B1
:10586000FCE007C09091C00095FFFCCF8093C6007C
:10587000319684918823B1F7EFE4FFE007C090915F
:10588000C00095FFFCCF8093C60031968491882399
:10589000B1F78091C00085FFFCCF8AE08093C600FD
:1058A00087EC9FE00E94022C0895F8940E9471708A
:1058B000159A179A429AA09A8CE060E00E947C9C0C
:1058C000E0E4FCE007C09091C00095FFFCCF80931E
:1058D000C600319684918823B1F7E5E2FFE007C066
:1058E0009091C00095FFFCCF8093C60031968491C3
:1058F0008823B1F78091C00085FFFCCF8AE08093B8
:10590000C60086E49FE00E94022C0E942529FFCF5A
:105910000F931F930E941E9DDC01CB014091C00993
:105920005091C1096091C2097091C3090091A60903
:105930001091A7092091A8093091A909801B910B0A
:10594000A20BB30B481759076A077B0738F44115B8
:1059500051056105710511F00E94552C80912104BB
:1059600090912204A0912304B09124040097A105F2
:10597000B10539F10E941E9DDC01CB014091A609C1
:105980005091A7096091A8097091A909841B950BF2
:10599000A60BB70B4091210450912204609123047F
:1059A00070912404481759076A077B0750F49091B7
:1059B000E20A8091E10A981721F4159A179A429AFF
:1059C000A09A0E94168D1F910F9108952F923F92D9
:1059D0004F925F926F927F928F929F92AF92BF92FF
:1059E000CF92DF92EF92FF920F931F93CF93DF93AB
:1059F000CDB7DEB76E970FB6F894DEBF0FBECDBF42
:105A000030E6632E712CECEEFCE034904AE0542E2C
:105A1000E9EEFCE044901CC28D3051F08A3321F451
:105A200090919109992321F04F3551050CF4F1C162
:105A30004115510509F4F5C28091080890910908B3
:105A4000869D7001879DF00C969DF00C11244E0DE3
:105A50005F1D465F574FFA01108220919109222362
:105A600009F0D2C1109291098657964FFC0110821D
:105A70008701065F174FC8016EE470E00E9455A8C9
:105A8000009709F410C19093950980939409801BA5
:105A9000910B8E0D9F1D855F974F60E070E04AE08F
:105AA00050E00E94CDA6DC01CB0180939609909333
:105AB0009709A0939809B093990980909A099090BA
:105AC0009B09A0909C09B0909D09B501A4014F5F6E
:105AD0005F4F6F4F7F4F84179507A607B70709F4ED
