:100000000C943F080C94B64B0C94E74B0C94184C92
:100010000C94494C0C947A4C0C94AB4C0C94DC4CE6
:100020000C940D4D0C9460080C9460080C946008BE
:100030000C9460080C9460080C9460080C946008A0
:100040000C9460080C942E090C9460080C946008C1
:100050000C9460080C9460080C9433330C94E64EB6
:100060000C9460080C946F340C9460080C94600835
:100070000C9460080C9460080C9460080C94600860
:100080000C9460080C9460080C9460080C94600850
:100090000C9460080C9460080C9460080C94600840
:1000A0000C9460080C9460080C9460080C94600830
:1000B0000C9460080C9460080C9460080C94600820
:1000C0000C9460080C9460080C9460080C94600810
:1000D0000C9460080C9460080C9460080C94600800
:1000E0000C946008084AD73B3BCE016E84BCBFFD30
:1000F000C12F3D6C74319ABD56833DDA3D00C77FF8
:1001000011BED9E4BB4C3E916BAAAABE0000008090
:100110003F05A84CCDB2D44EB93836A9020C50B91F
:10012000918688083CA6AAAA2ABE000000803F65E6
:1001300063686F3A00656E6473746F7073206869EA
:10014000743A200020583A0020593A00205A3A00C8
:1001500024F404D9201BC40C5C0E9804C4095F026B
:1001600065077101F405F900FB04B300480487003A
:10017000C10369005803550003034500BE023A005D
:100180008402310053022A002902250004022000C3
:10019000E4011C00C8011900AF0117009801140008
:1001A00084011300710110006101100051010E0063
:1001B00043010D0036010B002B010B0020010B0049
:1001C000150109000C01090003010800FB000800EB
:1001D000F3000800EB000700E4000600DE00060064
:1001E000D8000600D2000600CC000500C7000500BC
:1001F000C2000500BD000400B9000400B500040001
:10020000B1000400AD000400A9000400A500030033
:10021000A20003009F0004009B000300980003005D
:100220009500020093000300900003008D0002007F
:100230008B00030088000200860002008400030097
:10024000810002007F0002007D0002007B000200AE
:1002500079000200770001007600020074000200BD
:1002600072000100710002006F0002006D000100C9
:100270006C0002006A0001006900020067000100D2
:1002800066000100650001006400020062000100D8
:1002900061000100600001005F0002005D000100DC
:1002A0005C0001005B0001005A00010059000100E0
:1002B00058000100570001005600010055000100E0
:1002C00054000100530000005300010052000100DF
:1002D00051000100500001004F0001004E000000DD
:1002E0004E0001004D0001004C0001004B000000D9
:1002F0004B0001004A0001004900010048000000D5
:1003000048000100470001004600000046000100CF
:1003100045000000450001004400010043000000CA
:1003200043000100420000004200010041000000C3
:1003300041000100400001003F0000003F000100BB
:100340003E0000003E0001003D0000003D000100B5
:100350003C0000003C0000003C0001003B000000AD
:100360003B0001003A0000003A00010039000000A3
:10037000390001003800000038000000380001009A
:100380003700000037000100360000003600000092
:100390003600010035000000350000003500010086
:1003A000340000003400000034000100330000007D
:1003B0003300000033000100320000003200000072
:1003C0003200010031000000310000003100010066
:1003D0003000000030000000300001002F0000005D
:1003E0002F0000002F0000002F0001002E00000051
:1003F0002E0000002E0001002D0000002D00000046
:100400002D0000002D0001002C0000002C00000039
:100410002C0000002C0001002B0000002B0000002D
:100420002B0000002B0001002A0000002A00000021
:100430002A0000002A000100290000002900000015
:100440002900000029000000290001002800000008
:1004500028000000280000002800000028000100FB
:1004600027000000270000002700000027000000F0
:1004700027000100260000002600000026000000E2
:1004800026000000260001002500000025000000D5
:1004900025000000250000002500000025000100C7
:1004A00024000000240000002400000024000000BC
:1004B00024000100230000002300000023000000AE
:1004C000230000002300000023000000230001009F
:1004D0002200000022000000220000002200000094
:1004E0002200000022000100210000002100000085
:1004F0002100000021000000210000002100000078
:100500002100010020000000200000002000000069
:10051000200000002000000020000000200000005B
:10052000200001001F0000001F0000001F0000004D
:100530001F0000001F0000001F0000001F0001003E
:100540001E0000001E0000001E0000001E00000033
:1005500024F4D43050C38E20C2A24017828B701175
:10056000127A910D816CD90AA861E108C758660713
:10057000615143061E4B5D05C145A7041A41110494
:10058000093D9803713931034036DB02653391022E
:10059000D4305402802E1D02632CEE01752AC50151
:1005A000B028A001102781018F2564012B244B0165
:1005B000E0223401AC211F018D200D01801FFC00C1
:1005C000841EED00971DDF00B81CD200E61BC6009C
:1005D000201BBC00641AB200B219A8000A19A000BE
:1005E0006A189900D117910040178B00B516840046
:1005F00031167E00B31579003A157300C7146F00E9
:1006000058146A00EE1366008813630025135E0019
:10061000C7125B006C12570015125400C111510033
:1006200070114F0021114B00D61049008D1047006A
:100630004610440002104200C00F4000800F3E00F0
:10064000420F3C00060F3B00CB0E3800930E3700E4
:100650005C0E3500270E3400F30D3200C10D310061
:10066000900D3000600D2E00320D2D00050D2C0078
:10067000D90C2B00AE0C2900850C29005C0C27003E
:10068000350C27000E0C2600E80B2400C40B2400B8
:10069000A00B23007D0B23005A0B2100390B2100F6
:1006A000180B2000F80A1F00D90A1E00BB0A1E0002
:1006B0009D0A1D00800A1D00630A1C00470A1B00DA
:1006C0002C0A1B00110A1A00F7091A00DD0919008B
:1006D000C4091900AB091900920917007B09180019
:1006E000630917004C091600360916002009160088
:1006F0000A091500F5081500E0081400CC081400DC
:10070000B8081400A4081400900813007D08120013
:100710006B08130058081200460812003408110034
:10072000230811001208110001081100F007100041
:10073000E0071000D0071000C0071000B0070F003E
:10074000A107100091070E0083070F0074070F0028
:1007500065070E0057070E0049070E003B070D0006
:100760002E070E0020070D0013070D0006070D00D1
:10077000F9060C00ED060D00E0060C00D4060C0096
:10078000C8060C00BC060C00B0060C00A4060B004A
:1007900099060C008D060B0082060B0077060B00F5
:1007A0006C060B0061060A0057060B004C060A0097
:1007B00042060A0038060A002E060A0024060A002D
:1007C0001A060A001006090007060A00FD050900BE
:1007D000F4050900EB050900E2050900D905090047
:1007E000D0050900C7050900BE050900B5050800C8
:1007F000AD050800A50509009C0508009405080042
:100800008C050800840508007C05080074050800B4
:100810006C050700650508005D0507005605080022
:100820004E0507004705070040050800380507008A
:10083000310507002A050700230507001C050600EF
:10084000160507000F05070008050600020507004A
:10085000FB040600F5040700EE040600E8040600A9
:10086000E2040700DB040600D5040600CF040600FE
:10087000C9040600C3040600BD040600B704060050
:10088000B1040500AC040600A6040600A00405009F
:100890009B04060095040500900406008A040500E8
:1008A00085040500800406007A040500750405002F
:1008B000700405006B040500660405006104050072
:1008C0005C04050057040500520405004D040500B2
:1008D00048040500430405003E0404003A040500F2
:1008E00035040500300404002C040500270404002E
:1008F000230405001E0404001A0404001604050065
:10090000110404000D04040009040500040404009B
:1009100000040400FC030400F8030400F4030400D2
:10092000F0030400EC030400E8030400E403040003
:10093000E0030400DC030400D8030400D403040033
:10094000D0030400CC030400C8030300C503030064
:100950006563686F3A00656E717565696E67202220
:10096000002200737461727400506F776572557065
:10097000002045787465726E616C205265736574F1
:10098000002042726F776E206F7574205265736518
:100990007400205761746368646F672052657365E3
:1009A000740020536F6674776172652052657365B9
:1009B00074004D61726C696E3A2000312E302E3019
:1009C0002052433200204C6173742055706461746E
:1009D00065643A20004D61726C696E2D4D6F6E2C0E
:1009E0002035204D617220323031322030393A3595
:1009F000363A3530202D30383030202D20663330D7
:100A000039353439336230366435326133336165B8
:100A100037376130623863316639326132323633AA
:100A2000333236316100207C20417574686F723A30
:100A300020004275696C642D4D652D4D61726C69A5
:100A40006E002046726565204D656D6F72793A20A3
:100A5000002020506C616E6E65724275666665722C
:100A600042797465733A200053746F726564207321
:100A7000657474696E6773207265747265697665F2
:100A8000643A0053746570732070657220756E69E6
:100A9000743A0020204D3932205800205900205A45
:100AA000002045004D6178696D756D20666565644F
:100AB000726174657320286D6D2F73293A002020B0
:100AC0004D323033205800205900205A0020450074
:100AD0004D6178696D756D20416363656C65726108
:100AE00074696F6E20286D6D2F7332293A002020B3
:100AF0004D323031205800205900205A0020450046
:100B0000416363656C65726174696F6E3A20533D31
:100B1000616363656C65726174696F6E2C20543D0E
:100B20007265747261637420616363656C65726180
:100B300074696F6E0020204D3230342053002054F1
:100B400000416476616E63656420766172696162FA
:100B50006C65733A20533D4D696E2066656564721D
:100B600061746520286D6D2F73292C20543D4D69CB
:100B70006E2074726176656C20666565647261745E
:100B80006520286D6D2F73292C20423D6D696E699B
:100B90006D756D207365676D656E742074696D6524
:100BA00020286D73292C20583D6D6178696D756D15
:100BB000207859206A65726B20286D6D2F73292C5F
:100BC00020205A3D6D6178696D756D205A206A65E7
:100BD000726B20286D6D2F73290020204D32303527
:100BE000205300205400204200205800205A0020AA
:100BF00045005049442073657474696E67733A0008
:100C00002020204D33303120500020490020440066
:100C10004572726F723A004C696E65204E756D6256
:100C20006572206973206E6F74204C617374204C60
:100C3000696E65204E756D6265722B312C204C619A
:100C40007374204C696E653A00636865636B7375F5
:100C50006D206D69736D617463682C204C617374D1
:100C6000204C696E653A004E6F20436865636B7374
:100C7000756D2077697468206C696E65206E756D7E
:100C80006265722C204C617374204C696E653A0069
:100C90004E6F204C696E65204E756D6265722077CF
:100CA00069746820636865636B73756D2C204C6193
:100CB0007374204C696E653A006F6B006F6B205443
:100CC0003A0020423A0020403A00543A0020453A87
:100CD0000020573A00543A0020453A0020423A009A
:100CE0004649524D574152455F4E414D453A4D613F
:100CF000726C696E2056313B20537072696E746558
:100D0000722F6772626C206D617368757020666FF8
:100D1000722067656E36204649524D574152455FF5
:100D200055524C3A687474703A2F2F7777772E6D3E
:100D3000656E64656C2D70617274732E636F6D20C7
:100D400050524F544F434F4C5F56455253494F4EAC
:100D50003A312E30204D414348494E455F54595059
:100D6000453A4D656E64656C20455854525544456E
:100D7000525F434F554E543A310A00583A00593A9F
:100D8000005A3A00453A0020436F756E7420583A75
:100D900000593A005A3A00785F6D696E3A00785F00
:100DA0006D61783A00795F6D696E3A00795F6D61C7
:100DB000783A007A5F6D696E3A007A5F6D61783AD1
:100DC00000556E6B6E6F776E20636F6D6D616E6434
:100DD0003A2200220053657474696E67732053745D
:100DE0006F72656400526573656E643A006F6B00E4
:100DF0005072696E7465722068616C7465642E202F
:100E00006B696C6C28292063616C6C6564202121FE
:100E1000004572726F723A00202D20496E76616C27
:100E20006964206578747275646572206E756D6290
:100E300065722100202D20496E76616C6964206501
:100E400078747275646572206E756D6265722021AA
:100E5000003A2045787472756465722073776974FE
:100E600063686564206F66662E204D415854454D79
:100E700050207472696767657265642021003A20AA
:100E800045787472756465722073776974636865F8
:100E900064206F66662E204D494E54454D50207497
:100EA000726967676572656420210054656D7065BD
:100EB000726174757265206865617465642062652D
:100EC00064207377697463686564206F66662E209A
:100ED0004D415854454D502074726967676572657D
:100EE00064202121006563686F3A0020636F6C64A1
:100EF00020657874727573696F6E2070726576659F
:100F00006E7465640020746F6F206C6F6E6720656F
:100F10007874727573696F6E2070726576656E7421
:100F20006564000000090A02080B0C0D07060304A3
:100F300001000000000000000000000000000000B0
:100F40000000000000000000000000000000001190
:100F5000100F000000000000000000000000000072
:100F6000000000000000000000010210202008081E
:100F700010204010204080020102010804020101FB
:100F800002040810204080804020100804020180E4
:100F9000040201804020100804020108040201013B
:100FA000020408102040800102040810204080053F
:100FB000050505070508080808020202020A0A08D2
:100FC00008040404040101010101010101030303F8
:100FD0000303030303040707070C0C0C0C0C0C0C95
:100FE0000C0202020206060606060606060B0B0B9C
:100FF0000B0B0B0B0B000020002300260029002CFC
:10100000002F003200000100000301060109010069
:10101000002200250028002B002E003100340002A1
:10102000010000050108010B010000210024002738
:10103000002A002D003000330001010000040107E8
:10104000010A01494E46494E4954594E414E00004D
:1010500020410000C84200401C4620BCBE4CCA1BB8
:101060000E5AAEC59D74CDCCCC3D0AD7233C17B7E4
:10107000D13877CC2B329595E6241FB14F0A112435
:101080001FBECFEFD1E2DEBFCDBF00E00CBF13E04B
:10109000A0E0B2E0EEEFF5EB00E00BBF02C007907E
:1010A0000D92AA36B107D9F71BE0AAE6B3E001C05A
:1010B0001D92A93EB107E1F70E94F74F0C94FD5A2B
:1010C0000C94000080917C03882349F480917B0379
:1010D000882329F480917A03882309F4AEC0EFE2D3
:1010E000F1E007C09091C00095FFFCCF8093C6004F
:1010F000319684918823B1F7E5E3F1E007C0909140
:10110000C00095FFFCCF8093C60031968491882360
:10111000B1F780917C03882349F1E4E4F1E007C052
:101120009091C00095FFFCCF8093C60031968491CA
:101130008823B1F760917D0370917E0380917F03D6
:10114000909180030E9480512091920B3091930BDB
:101150004091940B5091950B0E94E550AB01BC015E
:101160008EEE95E022E030E00E94CF3680917B0346
:10117000882349F1E8E4F1E007C09091C00095FFB1
:10118000FCCF8093C600319684918823B1F760919B
:1011900081037091820380918303909184030E9464
:1011A00080512091960B3091970B4091980B509164
:1011B000990B0E94E550AB01BC018EEE95E022E058
:1011C00030E00E94CF3680917A03882349F1ECE425
:1011D000F1E007C09091C00095FFFCCF8093C6005E
:1011E000319684918823B1F76091850370918603CD
:1011F00080918703909188030E94805120919A0BDF
:1012000030919B0B40919C0B50919D0B0E94E5509F
:10121000AB01BC018EEE95E022E030E00E94CF36BB
:101220008091C00085FFFCCF8AE08093C6001092B9
:101230007C0310927B0310927A03089510927C0332
:1012400010927B0310927A0308958093FB02089515
:10125000EFE6F0E080818260808308951F920F9214
:101260000FB60F920BB60F9211240F931F932F936B
:101270003F934F935F936F937F938F939F93AF931E
:10128000BF93CF93DF93EF93FF9380918D03909162
:101290008E03009709F082C19091750680917406C3
:1012A0009817A1F02091740630E08DE490E0289F1B
:1012B000F001299FF00D389FF00D1124EA58F94FE5
:1012C000DF01A45BBF4F81E08C9302C0E0E0F0E05F
:1012D000F0938E03E0938D03309709F459C1109277
:1012E0008F0310929003109291031092920364ADB9
:1012F00075AD70939403609393032CE96134720786
:1013000028F48EE46132780748F002C060E47CE99A
:10131000769567957695679584E007C0E7E2613139
:101320007E0730F07695679582E08093950308C03C
:1013300081E0809395036032710510F460E270E003
:1013400060527040F8E060307F07E0F0272F30E017
:10135000220F331F220F331F205B3E4FF9013296BD
:1013600085919491AA27699FE001689FC10DDA1FBA
:101370000694CA1FDA1F1124F901459154914C1BA0
:101380005D0B1FC0CB01969587958C7F805B9A4F34
:10139000FC01459154910296FC01A591B491862FD0
:1013A00090E087709070A89F9001A99F300DB89F22
:1013B000300D1124D3E036952795DA95E1F7421BDD
:1013C000530B44365105A0F4E0E0F2E006C09091E2
:1013D000C00095FFFCCF8093C60081918823B9F7A8
:1013E0008EEE95E04AE050E00E94F43544E650E08D
:1013F000CA01A0E0B0E08093960390939703A09376
:101400009803B09399035093890040938800E0912A
:101410008D03F0918E0360AD71AD2CE961347207DC
:1014200028F48EE46132780748F002C060E47CE979
:10143000769567957695679584E007C0E7E2613118
:101440007E0730F07695679582E08093950308C01B
:1014500081E0809395036032710510F460E270E0E2
:1014600060527040F8E060307F07E0F0272F30E0F6
:10147000220F331F220F331F205B3E4FF90132969C
:1014800085919491AA27699FE001689FC10DDA1F99
:101490000694CA1FDA1F1124F901459154914C1B7F
:1014A0005D0B1FC0CB01969587958C7F805B9A4F13
:1014B000FC01459154910296FC01A591B491862FAF
:1014C00090E087709070A89F9001A99F300DB89F01
:1014D000300D1124E3E036952795EA95E1F7421B9C
:1014E000530B44365105A0F4E0E0F2E006C09091C1
:1014F000C00095FFFCCF8093C60081918823B9F787
:101500008EEE95E04AE050E00E94F43544E650E06B
:1015100050939B0340939A03E0918D03F0918E03C7
:1015200080899189A289B389B695A7959795879562
:10153000B095A095909581959F4FAF4FBF4F8093E9
:101540009C0390939D03A0939E03B0939F0380936D
:10155000A0039093A103A093A203B093A30380934D
:10156000A4039093A503A093A603B093A70380932D
:10157000A8039093A903A093AA03B093AB0310927E
:10158000890310928A0310928B0310928C0306C079
:1015900080ED97E09093890080938800E0918D031F
:1015A000F0918E03309709F41AC580A18093AC03A3
:1015B00080FF37C0119A8FEF8093F70220B121701E
:1015C00031E0232759F18091AD03882339F18081DF
:1015D0009181A281B381181619061A061B06F4F42C
:1015E00080916A0390916B03A0916C03B0916D039D
:1015F00080937D0390937E03A0937F03B093800339
:1016000030937C0380899189A289B389809389036F
:1016100090938A03A0938B03B0938C032093AD0324
:1016200036C0119881E08093F70221E0029B02C04E
:1016300020E02BC08091AE03882339F18081918115
:10164000A281B381181619061A061B06F4F48091BC
:101650006A0390916B03A0916C03B0916D0380932A
:101660007D0390937E03A0937F03B0938003209328
:101670007C0380899189A289B3898093890390939F
:101680008A03A0938B03B0938C032093AE038091C5
:10169000AC0381FF3BC044988FEF8093F80221E0B8
:1016A000049B02C020E02FC08091AF03882359F132
:1016B000E0918D03F0918E0384819581A681B7819D
:1016C000181619061A061B06F4F480916E03909101
:1016D0006F03A0917003B091710380938103909385
:1016E0008203A0938303B093840320937B038089B8
:1016F0009189A289B3898093890390938A03A093E7
:101700008B03B0938C032093AF033AC0449A81E0DB
:101710008093F80221E0069B02C020E02FC0809158
:10172000B003882359F1E0918D03F0918E038481F9
:101730009581A681B781181619061A061B06F4F4BE
:1017400080916E0390916F03A0917003B09171032B
:101750008093810390938203A0938303B0938403C7
:1017600020937B0380899189A289B389809389031F
:1017700090938A03A0938B03B0938C032093B003C0
:101780008091AC0382FF3DC0A29A8FEF8093F90253
:1017900026B12095221F2227221F81F18091B103BB
:1017A000882361F1E0918D03F0918E03808591850E
:1017B000A285B385181619061A061B06FCF480913B
:1017C000720390917303A0917403B0917503809399
:1017D000850390938603A0938703B093880381E0E9
:1017E00080937A0380899189A289B3898093890340
:1017F00090938A03A0938B03B0938C032093B1033F
:101800003AC0A29881E08093F90221E0359B02C0A2
:1018100020E02FC08091B203882359F1E0918D031D
:10182000F0918E0380859185A285B38518161906DF
:101830001A061B06F4F48091720390917303A09131
:101840007403B09175038093850390938603A093EE
:101850008703B093880320937A0380899189A289B2
:10186000B3898093890390938A03A0938B03B093E9
:101870008C032093B2038091AC039FB7F89483FF4D
:1018800008C080910B018F7E80930B019FBF8FEF6B
:1018900007C080910B01806180930B019FBF81E0A5
:1018A0008093FA02C0E0D0E086C18091C00087FF3B
:1018B0001AC06091C60080916F0690917006AC01CD
:1018C0004F5F5F4F4F7750702091710630917206D5
:1018D0004217530741F081519A4FFC0160835093A6
:1018E000700640936F06E0918D03F0918E03409156
:1018F0009C0350919D0360919E0370919F03808192
:101900009181A281B381480F591F6A1F7B1F4093A9
:101910009C0350939D0360939E0370939F03141642
:1019200015061606170644F5139A80899189A2892F
:10193000B389481B590B6A0B7B0B40939C03509354
:101940009D0360939E0370939F03139880916A0395
:1019500090916B03A0916C03B0916D032091F702FD
:10196000820F911DA11DB11D80936A0390936B039B
:10197000A0936C03B0936D03E0918D03F0918E03FF
:101980004091A0035091A1036091A2037091A30321
:1019900084819581A681B781480F591F6A1F7B1FDB
:1019A0004093A0035093A1036093A2037093A303F9
:1019B000141615061606170644F5469A808991896D
:1019C000A289B389481B590B6A0B7B0B4093A00378
:1019D0005093A1036093A2037093A3034698809150
:1019E0006E0390916F03A0917003B09171032091E9
:1019F000F802820F911DA11DB11D80936E0390937B
:101A00006F03A0937003B0937103E0918D03F09185
:101A10008E034091A4035091A5036091A603709199
:101A2000A70380859185A285B385480F591F6A1F3A
:101A30007B1F4093A4035093A5036093A603709368
:101A4000A703141615061606170644F5409A808952
:101A50009189A289B389481B590B6A0B7B0B409370
:101A6000A4035093A5036093A6037093A703409823
:101A70008091720390917303A0917403B0917503E8
:101A80002091F902820F911DA11DB11D8093720357
:101A900090937303A0937403B0937503E0918D0347
:101AA000F0918E038091A8039091A903A091AA03BD
:101AB000B091AB034485558566857785840F951F66
:101AC000A61FB71F8093A8039093A903A093AA030E
:101AD000B093AB03181619061A061B060CF042C089
:101AE0009FB7F89480910B01806480930B019FBF96
:101AF000E0918D03F0918E038091A8039091A9034A
:101B0000A091AA03B091AB0340895189628973897E
:101B1000841B950BA60BB70B8093A8039093A90386
:101B2000A093AA03B093AB039FB7F89480910B01E5
:101B30008F7B80930B019FBF8091760390917703F9
:101B4000A0917803B09179032091FA02820F911D40
:101B5000A11DB11D8093760390937703A093780322
:101B6000B09379038091890390918A03A0918B03AC
:101B7000B0918C030196A11DB11D809389039093B0
:101B80008A03A0938B03B0938C0380918903909177
:101B90008A03A0918B03B0918C032196E0918D0371
:101BA000F0918E0340895189628973898417950762
:101BB000A607B70738F48091950390E0C817D907B6
:101BC0000CF473CE4091890350918A0360918B038A
:101BD00070918C03E0918D03F0918E038489958937
:101BE000A689B78984179507A607B70708F4DCC04C
:101BF00000919603109197032091980330919903D7
:101C0000448D558D668D778DAA27059FB12D169F22
:101C1000C001269F900D259F800D911D069FB00D40
:101C2000811D9A1F159FB00D811D9A1F249FB00D15
:101C3000811D9A1F149FB10D8A1F9A1FB6958A1F86
:101C40009A1F112424AD35AD280F391F309394030A
:101C50002093930380AD91ADA2ADB3ADA90160E037
:101C600070E084179507A607B70720F490939403B4
:101C7000809393036091930370919403FCE9613422
:101C80007F0728F42EE46132720748F002C060E456
:101C90007CE9769567957695679584E007C087E23D
:101CA0006131780730F07695679582E080939503EF
:101CB00008C081E0809395036032710510F460E202
:101CC00070E060527040E8E060307E07E0F0272F5F
:101CD00030E0220F331F220F331F205B3E4FF901EC
:101CE000329685919491AA27699FE001689FC10D62
:101CF000DA1F0694CA1FDA1F1124F9014591549185
:101D00004C1B5D0B1FC0CB01969587958C7F805B2C
:101D10009A4FFC01459154910296FC01A591B49112
:101D2000862F90E087709070A89F9001A99F300D3A
:101D3000B89F300D1124D3E036952795DA95E1F759
:101D4000421B530B44365105A0F4E0E0F2E006C01C
:101D50009091C00095FFFCCF8093C60081918823AD
:101D6000B9F78EEE95E04AE050E00E94F43544E683
:101D700050E0509389004093880060E070E08091CB
:101D8000960390919703A0919803B0919903840FC3
:101D9000951FA61FB71F8093960390939703A09358
:101DA0009803B0939903F6C04091890350918A0338
:101DB00060918B0370918C03808D918DA28DB38D7A
:101DC00084179507A607B70708F0DCC000918F03BA
:101DD000109190032091910330919203448D558D81
:101DE000668D778DAA27059FB12D169FE001269F4E
:101DF000D00D259FC00DD11D069FB00DC11DDA1F4E
:101E0000159FB00DC11DDA1F249FB00DC11DDA1F33
:101E1000149FB10DCA1FDA1FB695CA1FDA1F11240D
:101E20008091930390919403E05CFF4F8C179D0782
:101E300018F48081918102C08C1B9D0B40815181DF
:101E4000628173818C0120E030E0041715072607BA
:101E5000370708F4CA01FCE981349F0728F42EE40F
:101E60008132920748F002C080E49CE996958795FC
:101E70009695879524E007C0E7E281319E0730F010
:101E80009695879522E02093950308C021E0209342
:101E900095038032910510F480E290E0BC0160521D
:101EA0007040F8E060307F07E0F0272F30E0220F2D
:101EB000331F220F331F205B3E4FF901329685916D
:101EC0009491AA27699FE001689FC10DDA1F0694CB
:101ED000CA1FDA1F1124F901459154914C1B5D0B67
:101EE0001FC0CB01969587958C7F805B9A4FFC0134
:101EF000459154910296FC01A591B491862F90E0F2
:101F000087709070A89F9001A99F300DB89F300DE9
:101F10001124E3E036952795EA95E1F7421B530B30
:101F200044365105A0F4E0E0F2E006C09091C00014
:101F300095FFFCCF8093C60081918823B9F78EEE80
:101F400095E04AE050E00E94F43544E650E05093BA
:101F500089004093880060E070E080918F03909149
:101F60009003A0919103B0919203840F951FA61F37
:101F7000B71F80938F0390939003A0939103B09326
:101F8000920308C080919A0390919B0390938900DB
:101F9000809388004091890350918A0360918B035C
:101FA00070918C03E0918D03F0918E03808991896B
:101FB000A289B389481759076A077B0780F01092F6
:101FC0008E0310928D039091750680917406981778
:101FD00031F0809174068F5F8F7080937406FF914B
:101FE000EF91DF91CF91BF91AF919F918F917F91B1
:101FF0006F915F914F913F912F911F910F910F9092
:102000000BBE0F900FBE0F901F901895099A3C9A27
:102010009A9AEAE0F1E08081806180838081846027
:1020200080830D9A159A0F9A179A3A9A429A989A1B
:10203000A09A229A2A9A0898109A0A98129A0C98AA
:10204000149A0E98169A3F98479A3D98459A0B9A7B
:102050003E9A389A80818064808380818160808309
:10206000A1E8B0E08C918F7E8C938C9188608C93EA
:10207000E0E8F0E080818D7F808380818E7F8083A7
:1020800080818F73808380818F7C80838C91887F17
:1020900082608C9380E090E4909389008093880024
:1020A0001092850010928400EFE6F0E0808182605B
:1020B000808381E08093FB02789408959091750667
:1020C00080917406981731F00E94113081E00E94CF
:1020D000E019F4CF0895CF93DF93EFB7F894EC01B4
:1020E00088819981AA81BB8180936A0390936B0355
:1020F000A0936C03B0936D03EB0188819981AA8151
:10210000BB8180936E0390936F03A0937003B09391
:102110007103EA0188819981AA81BB81809372034E
:1021200090937303A0937403B0937503E9018881BE
:102130009981AA81BB818093760390937703A093C2
:102140007803B0937903EFBFDF91CF9108952FB754
:10215000F894FC0180819181A281B3818093760300
:1021600090937703A0937803B09379032FBF0895DA
:102170000F931F939FB7F894E82FF0E0EE0FFF1F27
:10218000EE0FFF1FE659FC4F008111812281338140
:102190009FBFB801C9011F910F9108950E945E1061
:1021A000159A179A429AA09A0895CF93DF93C0E5A3
:1021B000D9E0FE0107C09091C00095FFFCCF80934D
:1021C000C600319684918823B1F7E3E8FAE007C0AE
:1021D0009091C00095FFFCCF8093C600319684910A
:1021E0008823B1F78091C00085FFFCCF8AE08093FF
:1021F000C600FE018491E0E5F9E008C09091C000BE
:1022000095FFFCCF8093C600319684918823B1F767
:10221000E3E9FAE007C09091C00095FFFCCF8093FE
:10222000C600319684918823B1F74091920B50916A
:10223000930B6091940B7091950B8EEE95E022E0DC
:1022400030E00E94CF36EBE9FAE007C09091C00081
:1022500095FFFCCF8093C600319684918823B1F717
:102260004091960B5091970B6091980B7091990B40
:102270008EEE95E022E030E00E94CF36EEE9FAE003
:1022800007C09091C00095FFFCCF8093C6003196A7
:1022900084918823B1F740919A0B50919B0B6091E8
:1022A0009C0B70919D0B8EEE95E022E030E00E9439
:1022B000CF36E1EAFAE007C09091C00095FFFCCF6D
:1022C0008093C600319684918823B1F740919E0B8C
:1022D00050919F0B6091A00B7091A10B8EEE95E039
:1022E00022E030E00E94CF368091C00085FFFCCF15
:1022F0008AE08093C600FE018491E0E5F9E008C021
:102300009091C00095FFFCCF8093C60031968491D8
:102310008823B1F7E4EAFAE007C09091C00095FF86
:10232000FCCF8093C600319684918823B1F78091C9
:10233000C00085FFFCCF8AE08093C600FE01849137
:10234000E0E5F9E008C09091C00095FFFCCF8093D4
:10235000C600319684918823B1F7EEEBFAE007C00E
:102360009091C00095FFFCCF8093C6003196849178
:102370008823B1F74091A20B5091A30B6091A40B5D
:102380007091A50B8EEE95E022E030E00E94CF36F2
:10239000E7ECFAE007C09091C00095FFFCCF809376
:1023A000C600319684918823B1F74091A60B5091D5
:1023B000A70B6091A80B7091A90B8EEE95E022E01F
:1023C00030E00E94CF36EAECFAE007C09091C000FE
:1023D00095FFFCCF8093C600319684918823B1F796
:1023E0004091AA0B5091AB0B6091AC0B7091AD0B6F
:1023F0008EEE95E022E030E00E94CF36EDECFAE080
:1024000007C09091C00095FFFCCF8093C600319625
:1024100084918823B1F74091AE0B5091AF0B60913E
:10242000B00B7091B10B8EEE95E022E030E00E948F
:10243000CF368091C00085FFFCCF8AE08093C60034
:10244000FE018491E0E5F9E008C09091C00095FF9D
:10245000FCCF8093C600319684918823B1F7E0EDDC
:10246000FAE007C09091C00095FFFCCF8093C600B2
:10247000319684918823B1F78091C00085FFFCCF0D
:102480008AE08093C600FE018491E0E5F9E008C08F
:102490009091C00095FFFCCF8093C6003196849147
:1024A0008823B1F7EEEEFAE007C09091C00095FFE7
:1024B000FCCF8093C600319684918823B1F7409178
:1024C000820B5091830B6091840B7091850B8EEE83
:1024D00095E02AE030E00E948935E7EFFAE007C096
:1024E0009091C00095FFFCCF8093C60031968491F7
:1024F0008823B1F74091860B5091870B6091880B30
:102500007091890B8EEE95E02AE030E00E948935CB
:10251000EAEFFAE007C09091C00095FFFCCF8093EE
:10252000C600319684918823B1F740918A0B50916F
:102530008B0B60918C0B70918D0B8EEE95E02AE0E9
:1025400030E00E948935EDEFFAE007C09091C000BD
:1025500095FFFCCF8093C600319684918823B1F714
:1025600040918E0B50918F0B6091900B7091910B5D
:102570008EEE95E02AE030E00E9489358091C0001F
:1025800085FFFCCF8AE08093C600FE018491E0E5E0
:10259000F9E008C09091C00095FFFCCF8093C60081
:1025A000319684918823B1F7E0E0FBE007C0909179
:1025B000C00095FFFCCF8093C6003196849188239C
:1025C000B1F78091C00085FFFCCF8AE08093C60000
:1025D000FE018491E0E5F9E008C09091C00095FF0C
:1025E000FCCF8093C600319684918823B1F7E5E350
:1025F000FBE007C09091C00095FFFCCF8093C60020
:10260000319684918823B1F740917A0B50917B0BDE
:1026100060917C0B70917D0B8EEE95E022E030E0B6
:102620000E94CF36EEE3FBE007C09091C00095FF1B
:10263000FCCF8093C600319684918823B1F74091F6
:10264000760B5091770B6091780B7091790B8EEE31
:1026500095E022E030E00E94CF368091C00085FFF7
:10266000FCCF8AE08093C600FE018491E0E5F9E0AA
:1026700008C09091C00095FFFCCF8093C6003196B2
:1026800084918823B1F7E1E4FBE007C09091C0009A
:1026900095FFFCCF8093C600319684918823B1F7D3
:1026A0008091C00085FFFCCF8AE08093C600FE01C8
:1026B0008491E0E5F9E008C09091C00095FFFCCF5F
:1026C0008093C600319684918823B1F7EAEDFBE050
:1026D00007C09091C00095FFFCCF8093C600319653
:1026E00084918823B1F740917E0B50917F0B6091CC
:1026F000800B7091810B8EEE95E022E030E00E941D
:10270000CF36E3EEFBE007C09091C00095FFFCCF11
:102710008093C600319684918823B1F74091660B6F
:102720005091670B6091680B7091690B8EEE95E08C
:1027300022E030E00E94CF36E6EEFBE007C0909149
:10274000C00095FFFCCF8093C6003196849188230A
:10275000B1F74091B20B5091B30B6091B40B7091F3
:10276000B50B8EEE95E02AE030E00E948935E9EE67
:10277000FBE007C09091C00095FFFCCF8093C6009E
:10278000319684918823B1F74091720B5091730B6D
:102790006091740B7091750B8EEE95E022E030E045
:1027A0000E94CF36ECEEFBE007C09091C00095FF91
:1027B000FCCF8093C600319684918823B1F7409175
:1027C0006E0B50916F0B6091700B7091710B8EEED0
:1027D00095E022E030E00E94CF36EFEEFBE007C04C
:1027E0009091C00095FFFCCF8093C60031968491F4
:1027F0008823B1F740916A0B50916B0B60916C0B81
:1028000070916D0B8EEE95E022E030E00E94CF36A5
:102810008091C00085FFFCCF8AE08093C600FE0156
:102820008491E0E5F9E008C09091C00095FFFCCFED
:102830008093C600319684918823B1F7E2EFFBE0E4
:1028400007C09091C00095FFFCCF8093C6003196E1
:1028500084918823B1F78091C00085FFFCCF8AE086
:102860008093C600FE01C491E0E5F9E008C08091C4
:10287000C00085FFFCCFC093C6003196C491CC2325
:10288000B1F7E0E0FCE007C09091C00095FFFCCFFD
:102890008093C600319684918823B1F74091250337
:1028A0005091260360912703709128038EEE95E0E6
:1028B00022E030E00E94CF36EAE0FCE007C09091D1
:1028C000C00095FFFCCF8093C60031968491882389
:1028D000B1F76091210370912203809123039091BD
:1028E00024032FE632E143E05EE30E94E550AB01B2
:1028F000BC018EEE95E022E030E00E94CF36EDE0A4
:10290000FCE007C09091C00095FFFCCF8093C6000B
:10291000319684918823B1F760911D0370911E0355
:1029200080911F03909120032FE632E143E05EE3A4
:102930000E94B353AB01BC018EEE95E022E030E083
:102940000E94CF368091C00085FFFCCF8AE0809343
:10295000C600DF91CF910895CF93DF930F920F922E
:10296000CDB7DEB78091E30B9091E40B9E012F5F12
:102970003F4F009719F4295E3B4002C0281B390BDA
:102980003A83298389819A810F900F90DF91CF91AB
:102990000895809A889A0895809A889808958091D9
:1029A000660590916705019660E070E00E94FC5416
:1029B000462F572F682F792FCB01BA0108958091A8
:1029C000660590916705019660E070E04AE050E08E
:1029D0000E947B560895682FE0916005F091610593
:1029E00040E650E0E49F9001E59F300DF49F300DEC
:1029F0001124C90184529C4F70E00E94DA579C0157
:102A0000909367058093660581E02115310509F4EF
:102A100080E008950E94304FDC01CB018093700567
:102A200090937105A0937205B0937305EDEEFDE0F0
:102A300007C09091C00095FFFCCF8093C6003196EF
:102A400084918823B1F78091C00085FFFCCF8AE094
:102A50008093C60008958EEE95E00E940235E5EE63
:102A6000FDE007C09091C00095FFFCCF8093C600A9
:102A7000319684918823B1F740916C0550916D0592
:102A800060916E0570916F054F5F5F4F6F4F7F4F85
:102A90008EEE95E02AE030E00E949E358091C000E5
:102AA00085FFFCCF8AE08093C6000E940A15089536
:102AB0002F923F925F926F927F928F929F92AF92EE
:102AC000BF92CF92DF92EF92FF920F931F93CF931B
:102AD000DF9330E6832E912C44E0242E312CE9EB59
:102AE000FCE074905AE0652E55245394F6C18D3065
:102AF00031F08A3321F04F3551050CF4D0C1411526
:102B0000510519F4109265050BC28091DA0390917A
:102B1000DB03889D8001899D100D989D100D112467
:102B2000400F511F44525C4FFA01108220916505FD
:102B3000222309F0AFC110926505845A9A4FFC0117
:102B40001082E801C452DC4FCE016EE470E00E94B6
:102B5000DA57009709F410C19093670580936605D2
:102B60008C1B9D0B800F911F83529C4F60E070E087
:102B70004AE050E00E947B56DC01CB01809368055F
:102B800090936905A0936A05B0936B05C0906C059E
:102B9000D0906D05E0906E05F0906F05B701A6012D
:102BA0004F5F5F4F6F4F7F4F84179507A607B7079B
:102BB00009F43AC02091DA033091DB03289DC0016B
:102BC000299D900D389D900D112484529C4F64E1F5
:102BD00072E00E94F357009739F5E0E1FCE007C08E
:102BE0009091C00095FFFCCF8093C60031968491F0
:102BF0008823B1F7E7E1FCE007C09091C00095FFA2
:102C0000FCCF8093C600319684918823B1F78EEE75
:102C100095E0B701A6012AE030E00E949E35809140
:102C2000C00085FFFCCF91C08091DA039091DB0357
:102C3000889D8001899D100D989D100D11242CED0B
:102C4000A22E23E0B22EA00EB11EC5016AE270E0F2
:102C50000E94DA57009721F452C0C3272F5F02C0A9
:102C600020E0C0E0F801E20FF11DE452FC4F30819A
:102C70003A3299F790936705809366058A199B0904
:102C8000800F911F83529C4F60E070E00E94FC54C3
:102C90000E944D51AB01BC018C2F90E08417950729
:102CA00009F459C0E0E1FCE007C09091C00095FF35
:102CB000FCCF8093C600319684918823B1F7E9E474
:102CC000FCE007C09091C00095FFFCCF8093C60048
:102CD000319684918823B1F740916C0550916D0530
:102CE00060916E0570916F058EEE95E02AE030E000
:102CF0000E949E358091C00085FFFCCF26C0E0E198
:102D0000FCE007C09091C00095FFFCCF8093C60007
:102D1000319684918823B1F7E7E6FCE007C09091F3
:102D2000C00095FFFCCF8093C60031968491882324
:102D3000B1F78EEE95E0B701A6012AE030E00E94DF
:102D40009E358091C00085FFFCCF8AE08093C6004D
:102D50000E942B1547C08091680590916905A0914C
:102D60006A05B0916B0580936C0590936D05A093F7
:102D70006E05B0936F053BC0CE016AE270E00E9421
:102D8000DA570097A1F1E0E1FCE007C09091C000A4
:102D900095FFFCCF8093C600319684918823B1F7CC
:102DA000E0E9FCE007C09091C00095FFFCCF809364
:102DB000C600319684918823B1F740916C055091FB
:102DC0006D0560916E0570916F058EEE95E02AE0BD
:102DD00030E00E949E358091C00085FFFCCF8AE0E4
:102DE0008093C600109264051092630599C080918B
:102DF000DA039091DB03889D8001899D100D989DD9
:102E0000100D1124E801C452DC4FCE0167E470E0DC
:102E10000E94DA57009749F1909367058093660501
:102E20008C1B9D0B800F911F83529C4F60E070E0C4
:102E30000E94FC540E944D51DC01CB01843091056D
:102E4000A0F4872DE9EBFCE008C09091C00095FF4D
:102E5000FCCF8093C600319684918823B1F780918E
:102E6000C00085FFFCCF6092C6008091DA0390918C
:102E7000DB030196B1010E9498549093DB03809389
:102E8000DA038091D8039091D90301969093D903E6
:102E90008093D80310926405109263051EC08B3393
:102EA00011F450926505909165059923B1F4209134
:102EB000DA033091DB03289DF001299DF00D389D48
:102EC000F00D1124E40FF51FE452FC4F80834F5F97
:102ED0005F4F509364054093630580916F06909116
:102EE00070062091710630917206821B930B8F77CA
:102EF00090700097A9F08091D8039091D903843005
:102F0000910574F48EEE95E00E94E634809362059C
:102F100040916305509164058A3009F0E8CDEFCD0A
:102F2000DF91CF911F910F91FF90EF90DF90CF90A5
:102F3000BF90AF909F908F907F906F905F903F90E9
:102F40002F9008956F927F928F929F92AF92BF922F
:102F5000CF92DF92EF92FF920F931F93CF936CE289
:102F6000662E63E0762E01EC13E078E7C72E75E05D
:102F7000D72EE4EDEE2EE3E0FE2EC0E0F3018191CA
:102F80003F010E94EB14882309F10E94CF144B01EA
:102F90005C01F7018081882319F46091880501C0E4
:102FA00061E070E080E090E00E948051F8012081B3
:102FB0003181428153810E94B3539B01AC01C50111
:102FC000B4010E940550DC01CB0105C0F8018081ED
:102FD0009181A281B381F60180839183A283B3831F
:102FE000CF5F0C5F1F4F84E090E0C80ED91E08949D
:102FF000E11CF11CC43011F686E40E94EB14882316
:10300000E1F00E94CF146B017C01609396057093F0
:103010009705809398059093990520E030E040E073
:1030200050E00E94E152181644F4C0921003D0926E
:103030001103E0921203F0921303CF911F910F91AD
:10304000FF90EF90DF90CF90BF90AF909F908F90C8
:103050007F906F9008950E94A21789E40E94EB145C
:10306000882361F00E94CF14DC01CB0180939A0584
:1030700090939B05A0939C05B0939D058AE40E94C4
:10308000EB14882361F00E94CF14DC01CB01809304
:103090009E0590939F05A093A005B093A105089568
:1030A0008F929F92AF92BF92CF92DF92EF92FF9258
:1030B0000F931F93CF93DF936091FE027091FF02F5
:1030C000C8E7D5E0F4E0CF2ED12CCC0EDD1EA8E071
:1030D000AA2EB12CAC0EBD1EBCE08B2E912C8C0EFA
:1030E0009D1E882777FD8095982F0E948051209102
:1030F00010033091110340911203509113030E9469
:10310000B35320E030E040E752E40E94E55020E075
:1031100030E048EC52E40E94E5507B018C01CE0186
:10312000B601A5019401E4EBCE2EE3E0DE2E0E9471
:10313000B93F8091780590917905A0917A05B09179
:103140007B058093C1039093C203A093C303B09304
:10315000C40380917C0590917D05A0917E05B0917E
:103160007F058093C5039093C603A093C703B093D4
:10317000C8038091800590918105A0918205B0914E
:1031800083058093C9039093CA03A093CB03B093A4
:10319000CC038091840590918505A0918605B0911E
:1031A00087058093CD039093CE03A093CF03B09374
:1031B000D0030E94304FDC01CB01809370059093C7
:1031C0007105A0937205B0937305DF91CF911F91A4
:1031D0000F91FF90EF90DF90CF90BF90AF909F90B6
:1031E0008F9008954F925F926F927F92AF92BF92AD
:1031F000CF92DF92EF920F931F93CF93C82F6091DE
:103200009A0570919B0580919C0590919D05209158
:103210009E0530919F054091A0055091A1050E9407
:10322000EE522B013C016091FE027091FF0200D032
:1032300000D00DB71EB70F5F1F4F882777FD809511
:10324000982F0E94805120911003309111034091DA
:103250001203509113030E94B35320E030E040E783
:1032600052E40E94E55020E030E048EC52E40E9435
:10327000E5505B016C01F8014082518262827382E9
:10328000C4838091B403858381EC93E068E775E0A3
:103290004AE955E020E001E0A2E0EA2E0E94D236A1
:1032A0008091780590917905A0917A05B0917B0580
:1032B0008093C1039093C203A093C303B093C4034C
:1032C00080917C0590917D05A0917E05B0917F0550
:1032D0008093C5039093C603A093C703B093C8031C
:1032E0008091800590918105A0918205B091830520
:1032F0008093C9039093CA03A093CB03B093CC03EC
:103300008091840590918505A0918605B0918705EF
:103310008093CD039093CE03A093CF03B093D003BB
:103320008DB79EB706960FB6F8949EBF0FBE8DBFA1
:103330000E94304FDC01CB018093700590937105A2
:10334000A0937205B0937305CF911F910F91EF90E9
:10335000DF90CF90BF90AF907F906F905F904F9035
:103360000895F8940E949332159A179A429AA09A57
:103370008CE060E00E948E4EE0E1FCE007C090919E
:10338000C00095FFFCCF8093C600319684918823BE
:10339000B1F7E0EFFDE007C09091C00095FFFCCFD2
:1033A0008093C600319684918823B1F78091C00044
:1033B00085FFFCCF8AE08093C6000E94CC14FFCF2B
:1033C0000F931F930E94304FDC01CB014091920577
:1033D0005091930560919405709195050091700549
:1033E000109171052091720530917305801B910B2E
:1033F000A20BB30B481759076A077B0738F441152E
:1034000051056105710511F00E94B11980911503F4
:1034100090911603A0911703B09118030097A1058E
:10342000B10509F10E94304FDC01CB0140917005DC
:10343000509171056091720570917305841B950B15
:10344000A60BB70B4091150350911603609117031B
:1034500070911803481759076A077B0720F4159ADB
:10346000179A429AA09A0E94623F1F910F91089565
:10347000EF92FF920F931F93CF93DF937C018B0109
:10348000C4E0D0E0F70120813181C9010196918328
:103490008083F80161918F01C9010E944C5A2197E4
:1034A00089F784E090E0DF91CF911F910F91FF9019
:1034B000EF900895EF92FF920F931F93CF93DF93B6
:1034C0007C018B01C0E1D0E0F70120813181C9018D
:1034D000019691838083F80161918F01C9010E9457
:1034E0004C5A219789F780E190E0DF91CF911F91AD
:1034F0000F91FF90EF900895EF92FF920F931F931B
:10350000CF93DF937C018B01C4E0D0E0F7012081F1
:103510003181C901019691838083F80161918F0106
:10352000C9010E944C5A219789F784E090E0DF910D
:10353000CF911F910F91FF90EF9008950F931F93DC
:10354000CF93DF93CDB7DEB72A970FB6F894DEBFDF
:103550000FBECDBF80E390E3A0E3B0E08F839887F8
:10356000A987BA8784E690E09A838983CE01019681
:10357000BE01695F7F4F0E94381ACE01019662E951
:103580007BE00E945A1ACE01019662EA7BE00E941B
:103590005A1A02E81BE089819A819C012F5F3F4FF4
:1035A0003A832983F80161918F010E944C5AFBE014
:1035B00002391F0781F7CE0101966AE77BE00E947E
:1035C0007C1ACE01019666E77BE00E947C1ACE0150
:1035D00001966EE77BE00E947C1ACE01019666E6BA
:1035E0007BE00E947C1A02EB1BE089819A819C019E
:1035F0002F5F3F4F3A832983F80161918F010E9429
:103600004C5AFBE0063B1F0781F7CE01019662E7AB
:103610007BE00E947C1ACE0101966EE67BE00E9460
:103620007C1ACE0101966AE67BE00E947C1ACE01EC
:10363000019665E273E00E947C1ACE01019661E278
:1036400073E00E947C1ACE0101966DE173E00E9446
:103650007C1A86E590E3A5E3B0E08B839C83AD8381
:10366000BE8384E690E09A838983CE010196BE01F1
:103670006D5F7F4F0E94381AE0E5F9E007C0909136
:10368000C00095FFFCCF8093C600319684918823BB
:10369000B1F7E5EDFDE007C09091C00095FFFCCFCC
:1036A0008093C600319684918823B1F78091C00041
:1036B00085FFFCCF8AE08093C6002A960FB6F89467
:1036C000DEBF0FBECDBFDF91CF911F910F91089547
:1036D000EF92FF920F931F93CF93DF937C018B01A7
:1036E000C0E1D0E0F701808191819C012F5F3F4FC5
:1036F000318320830E94445AF80181938F012197DE
:1037000089F780E190E0DF91CF911F910F91FF90B9
:10371000EF900895EF92FF920F931F93CF93DF9353
:103720007C018B01C4E0D0E0F701808191819C0194
:103730002F5F3F4F318320830E94445AF8018193C9
:103740008F01219789F784E090E0DF91CF911F915D
:103750000F91FF90EF900895AF92BF92CF92DF92BA
:10376000EF92FF920F931F93CF93DF93CDB7DEB706
:10377000EA970FB6F894DEBF0FBECDBFD82E84E611
:1037800090E09A83898386E590E3A5E3B0E08B839C
:103790009C83AD83BE832BE0E22EF12CEC0EFD1E4C
:1037A0008E01095F1F4F89819A819C012F5F3F4FD6
:1037B0003A8329830E94445AF80181938F01EE15C0
:1037C000FF0589F7DD2009F097C0CE010396BE0101
:1037D000695F7F4F43E050E00E94E557009709F092
:1037E0008BC0CE01019662E97BE00E94681BCE018E
:1037F000019662EA7BE00E94681B02E81BE0898177
:103800009A819C012F5F3F4F3A8329830E94445A3B
:10381000F80181938F01FBE002391F0781F7CE0188
:1038200001966AE77BE00E948A1BCE01019666E75B
:103830007BE00E948A1BCE0101966EE77BE00E942E
:103840008A1BCE01019666E67BE00E948A1B02EB92
:103850001BE089819A819C012F5F3F4F3A83298326
:103860000E94445AF80181938F01FBE0063B1F0739
:1038700081F7CE01019662E77BE00E948A1BCE01B0
:1038800001966EE67BE00E948A1BCE0101966AE6F5
:103890007BE00E948A1BCE01019665E273E00E94E4
:1038A0008A1BCE01019661E273E00E948A1BCE0161
:1038B00001966DE173E00E948A1BE0E5F9E007C024
:1038C0009091C00095FFFCCF8093C6003196849103
:1038D0008823B1F7E8E6FAE007C09091C00095FFB1
:1038E000FCCF8093C600319684918823B1F78091F4
:1038F000C00085FFFCCFCEC0DE019B96E1E3F2E085
:1039000080E101900D928150E1F7DE015B96E1E4E8
:10391000F2E080E101900D928150E1F7DE011B960B
:10392000E1E5F2E080E101900D928150E1F7BBE228
:10393000AB2EB12CAC0EBD1E42E95BE0BE01655E54
:103940007F4F02EA1BE08BE0E82EF12CEC0EFD1E0F
:1039500092E8C92E9BE0D92E24E030E0F501819158
:103960009191A191B1915F01FA0181939193A193FA
:10397000B193AF01FB0181919191A191B191BF01EF
:10398000F80181939193A193B1938F01F7018191F4
:103990009191A191B1917F01F60181939193A193AE
:1039A000B1936F0121503040C9F680E090E8ABE35D
:1039B000B5E480937A0B90937B0BA0937C0BB09330
:1039C0007D0B8093760B9093770BA093780BB0933D
:1039D000790B80E090E0A0E0B0E080937E0B9093C4
:1039E0007F0BA093800BB093810B40E25EE460E01C
:1039F00070E04093B20B5093B30B6093B40B709391
:103A0000B50B8093660B9093670BA093680BB093F4
:103A1000690B80E090E0A0EAB1E48093720B909390
:103A2000730BA093740BB093750B8DEC9CECACEC0A
:103A3000BEE380936E0B90936F0BA093700BB093CB
:103A4000710B80E090E0A0EAB0E480936A0B909361
:103A50006B0BA0936C0BB0936D0BE0E5F9E007C026
:103A60009091C00095FFFCCF8093C6003196849161
:103A70008823B1F7E9E1F2E006C09091C00095FF1C
:103A8000FCCF8093C60081918823B9F78091C00054
:103A900085FFFCCF8AE08093C6000E94D510EA968D
:103AA0000FB6F894DEBF0FBECDBFDF91CF911F914F
:103AB0000F91FF90EF90DF90CF90BF90AF9008955F
:103AC0002F923F924F925F926F927F928F929F922E
:103AD000AF92BF92CF92DF92EF92FF920F931F931C
:103AE000CF93DF93CDB7DEB7A2970FB6F894DEBFC2
:103AF0000FBECDBF87E40E94EB14882309F4C7C52D
:103B00000E94CF140E944D5164307105A9F16530B7
:103B1000710554F46230710521F1633071052CF5A3
:103B200077FF19C00C944F2D6A35710509F445C50E
:103B30006B35710534F46C31710511F00C944F2D17
:103B40005FC06B35710509F43CC56C35710511F02A
:103B50000C944F2D3BC50E94A2170E9450180C9444
:103B6000742D0E942B1881E003C00E942B1880E066
:103B70000E94F2180C94742D80E50E94EB148823A7
:103B800039F00E94CF140E9452516B017C0103C096
:103B9000CC24DD24760183E50E94EB14882361F0B8
:103BA0000E94CF1420E030E04AE754E40E94B3536F
:103BB0000E9452516B017C010E945E100E94304FA6
:103BC0004B015C018C0C9D1CAE1CBF1C0E94304F35
:103BD000DC01CB018093700590937105A093720571
:103BE000B093730502C00E9411300E94304FDC0177
:103BF000CB0188159905AA05BB05A8F30C944F2D98
:103C00008091100390911103A0911203B0911303BE
:103C10008093740590937505A0937605B09377050E
:103C20008091FE029091FF029093D3038093D20380
:103C300084E690E09093FF028093FE0281E00E9470
:103C400025098091C1039091C203A091C303B09153
:103C5000C4038093780590937905A0937A05B09377
:103C60007B058091C5039091C603A091C703B091D5
:103C7000C80380937C0590937D05A0937E05B09347
:103C80007F058091C9039091CA03A091CB03B091A5
:103C9000CC038093800590938105A0938205B09317
:103CA00083058091CD039091CE03A091CF03B09175
:103CB000D0038093840590938505A0938605B093E7
:103CC000870580E090E0A0E0B0E08093100390933F
:103CD0001103A0931203B093130388E50E94EB1421
:103CE000882361F489E50E94EB14882339F48AE57E
:103CF0000E94EB14882311F481E001C080E08093DE
:103D0000140388E50E94EB14882309F4E8C089E5D0
:103D10000E94EB14882309F4E2C080E090E0A0E068
:103D2000B0E08093C1039093C203A093C303B09308
:103D3000C4038093C5039093C603A093C703B093B5
:103D4000C80381EC93E065EC73E049EC53E02DECA3
:103D500033E00E94E54A80E090ECA9E9B3EC80935F
:103D6000780590937905A0937A05B0937B058093AD
:103D70007C0590937D05A0937E05B0937F052091EF
:103D800000033091010340910203509103032093FB
:103D90001003309311034093120350931303C09008
:103DA0000403D0900503E0900603F0900703C701D9
:103DB000B6010E94DE5087FF08C0C0921003D09267
:103DC0001103E0921203F0921303609110037091BB
:103DD0001103809112039091130320E030E040E73B
:103DE00052E40E94E5507B018C0188E795E06CE786
:103DF00075E040E855E024E835E0F4EBCF2EF3E041
:103E0000DF2E0E94B93F0E945E100F2EF0E08F2E31
:103E1000F0E09F2EF0E0AF2EF0E0BF2EF02D80926C
:103E2000C1039092C203A092C303B092C4038092D4
:103E3000C5039092C603A092C703B092C80381EC59
:103E400093E065EC73E049EC53E02DEC33E00E9425
:103E5000E54A8091C1039091C203A091C303B09140
:103E6000C4038093780590937905A0937A05B09365
:103E70007B058091C5039091C603A091C703B091C3
:103E8000C80380937C0590937D05A0937E05B09335
:103E90007F0560911003709111038091120390913E
:103EA000130320E030E040E752E40E94E5507B013C
:103EB0008C0188E795E06CE775E040E855E024E880
:103EC00035E00E94B93F8092100390921103A092B6
:103ED0001203B09213030E945E100E941E0980918B
:103EE0001403882331F488E50E94EB14882309F435
:103EF000E7C00F2EF0E08F2EF0E09F2EF0E0AF2E07
:103F0000F0E0BF2EF02D8092C1039092C203A092E8
:103F1000C303B092C40381EC93E065EC73E049EC19
:103F200053E02DEC33E00E94E54A80E090ECA9E9F3
:103F3000B3EC8093780590937905A0937A05B093BC
:103F40007B056091000370910103809102039091C1
:103F500003036093100370931103809312039093F3
:103F6000130320E030E040E752E40E94E5507B017B
:103F70008C0188E795E06CE775E040E855E024E8BF
:103F800035E0E4EBCE2EE3E0DE2E0E94B93F0E9446
:103F90005E108092C1039092C203A092C303B092BC
:103FA000C40381EC93E065EC73E049EC53E02DEC45
:103FB00033E00E94E54A80E090E0A0EAB0E480931C
:103FC000780590937905A0937A05B0937B0560916D
:103FD000100370911103809112039091130320E05C
:103FE00030E040E752E40E94E5507B018C0188E715
:103FF00095E06CE775E040E855E024E835E00E9484
:10400000B93F0E945E1080E090E0A0E2B1EC8093A6
:10401000780590937905A0937A05B0937B0560911C
:10402000000370910103809102039091030320E04B
:1040300030E040E05FE30E94B3539B01F82FE92F8B
:10404000462F532F682F792F40931003509311035D
:104050006093120370931303822F932FAF2FBE2F01
:10406000BC01CD0120E030E040E752E40E94E55081
:104070007B018C0188E795E06CE775E040E855E04E
:1040800024E835E00E94B93F0E945E108092C1038F
:104090009092C203A092C303B092C40380927805A9
:1040A00090927905A0927A05B0927B0580921003D8
:1040B00090921103A0921203B09213030E941E0962
:1040C00080911403882331F489E50E94EB1488233E
:1040D00009F4E7C00F2EF0E08F2EF0E09F2EF0E005
:1040E000AF2EF0E0BF2EF02D8092C5039092C60354
:1040F000A092C703B092C80381EC93E065EC73E033
:1041000049EC53E02DEC33E00E94E54A80E090EC6E
:10411000A9E9B3EC80937C0590937D05A0937E057F
:10412000B0937F05609104037091050380910603AD
:10413000909107036093100370931103809312030F
:104140009093130320E030E040E752E40E94E550F2
:104150007B018C0188E795E06CE775E040E855E06D
:1041600024E835E0F4EBCF2EF3E0DF2E0E94B93FD8
:104170000E945E108092C5039092C603A092C7036E
:10418000B092C80381EC93E065EC73E049EC53E036
:104190002DEC33E00E94E54A80E090E0A0EAB0E434
:1041A00080937C0590937D05A0937E05B0937F0559
:1041B0006091100370911103809112039091130389
:1041C00020E030E040E752E40E94E5507B018C01A2
:1041D00088E795E06CE775E040E855E024E835E0D5
:1041E0000E94B93F0E945E1080E090E0A0E2B1EC36
:1041F00080937C0590937D05A0937E05B0937F0509
:104200006091040370910503809106039091070368
:1042100020E030E040E05FE30E94B3539B01F82FC1
:10422000E92F462F532F682F792F40931003509377
:1042300011036093120370931303822F932FAF2FF8
:10424000BE2FBC01CD0120E030E040E752E40E94E7
:10425000E5507B018C0188E795E06CE775E040E86C
:1042600055E024E835E00E94B93F0E945E1080923C
:10427000C5039092C603A092C703B092C803809270
:104280007C0590927D05A0927E05B0927F0580927C
:10429000100390921103A0921203B09213030E9494
:1042A0001E0980911403882331F48AE50E94EB14DF
:1042B000882309F4E7C00F2EF0E08F2EF0E09F2E48
:1042C000F0E0AF2EF0E0BF2EF02D8092C903909267
:1042D000CA03A092CB03B092CC0381EC93E065ECCF
:1042E00073E049EC53E02DEC33E00E94E54A80E0B6
:1042F00090E0A6E9B3EC8093800590938105A093AC
:104300008205B09383056091080370910903809141
:104310000A0390910B036093100370931103809331
:1043200012039093130320E030E040E752E40E9430
:10433000E5507B018C0188E795E06CE775E040E88B
:1043400055E024E835E0E4EBCE2EE3E0DE2E0E94DB
:10435000B93F0E945E108092C9039092CA03A09256
:10436000CB03B092CC0381EC93E065EC73E049ECB5
:1043700053E02DEC33E00E94E54A80E090E0A0E8B5
:10438000BFE38093800590938105A0938205B0934D
:104390008305609110037091110380911203909135
:1043A000130320E030E040E752E40E94E5507B0137
:1043B0008C0188E795E06CE775E040E855E024E87B
:1043C00035E00E94B93F0E945E1080E090E0A0E0DE
:1043D000B0EC8093800590938105A0938205B09303
:1043E0008305609108037091090380910A039091FD
:1043F0000B0320E030E040E05FE30E94B3539B01F9
:10440000F82FE92F462F532F682F792F4093100351
:10441000509311036093120370931303822F932F11
:10442000AF2FBE2FBC01CD0120E030E040E752E4C9
:104430000E94E5507B018C0188E795E06CE775E010
:1044400040E855E024E835E00E94B93F0E945E1044
:104450008092C9039092CA03A092CB03B092CC037E
:104460008092800590928105A0928205B09283058A
:104470008092100390921103A0921203B092130342
:104480000E941E0988E50E94EB148823F1F00E9427
:10449000DF14DC01CB010097A105B105B1F00E944A
:1044A000CF142091B5033091B6034091B7035091DA
:1044B000B8030E940550DC01CB018093C1039093A7
:1044C000C203A093C303B093C40389E50E94EB1415
:1044D0008823F1F00E94DF14DC01CB010097A105D5
:1044E000B105B1F00E94CF142091B9033091BA0305
:1044F0004091BB035091BC030E940550DC01CB01ED
:104500008093C5039093C603A093C703B093C803D9
:104510008AE50E94EB148823F1F00E94DF14DC018D
:10452000CB010097A105B105B1F00E94CF142091F5
:10453000BD033091BE034091BF035091C0030E9460
:104540000550DC01CB018093C9039093CA03A0936B
:10455000CB03B093CC0381EC93E065EC73E049ECC2
:1045600053E02DEC33E00E94E54A80917405909170
:104570007505A0917605B09177058093100390930F
:104580001103A0931203B09313038091D20390916F
:10459000D3039093FF028093FE020E94304FDC0110
:1045A000CB018093700590937105A0937205B09331
:1045B00073050E941E090C944F2D109288050C94CF
:1045C0004F2D81E0809388050C944F2D85E40E9447
:1045D000EB14882311F40E945E103CE2832E33E03A
:1045E000932E45EBC42E43E0D42E51ECE52E53E040
:1045F000F52E00E0F40181914F010E94EB14882315
:10460000D1F10E94CF14F601208131814281538182
:104610000E940550DC01CB01F70180839183A283C6
:10462000B383033071F40E94CF14DC01CB01F70196
:1046300080839183A283B3838DEC93E00E94954B9A
:104640001AC00E94CF14F60120813181428153812A
:104650000E940550DC01CB01F70180839183A28386
:10466000B38381EC93E065EC73E049EC53E02DEC0F
:1046700033E00E94E54A0F5F24E030E0C20ED31E13
:10468000E20EF31E043009F0B5CF0C944F2D8DE4EB
:104690000E94EB14882311F40C94A12C0E94CF14D7
:1046A0000E944D516337710509F484C56437710563
:1046B0000CF05AC06435710509F4FBC46535710509
:1046C00064F56A32710509F434C16B32710574F412
:1046D0006231710509F4EDC46F31710509F4BAC096
:1046E0006131710511F00C944F2DAEC0613571052B
:1046F00009F4D3C46235710534F46035710511F0E5
:104700000C944F2DC8C46235710509F4CBC46335D0
:10471000710511F00C944F2DC8C46936710509F468
:10472000C7C16A36710574F46C35710509F424C586
:104730006836710509F445C16535710511F00C94B1
:104740004F2D02C56B36710509F4A2C46B36710595
:104750000CF476C46D36710509F43FC262377105F9
:1047600011F00C944F2D34C56C3D710511F40C946F
:10477000862B6D3D710564F5693C710509F4BEC673
:104780006A3C710574F46C38710509F47CC16E3BA8
:10479000710509F4B6C36737710511F00C944F2DFC
:1047A000F3C56C3C710509F405C76D3C710534F423
:1047B0006B3C710511F00C944F2DDEC66D3C7105FC
:1047C00009F41CC76E3C710511F00C944F2D80C785
:1047D00031E06039730711F40C94922C81E0613957
:1047E000780794F491E06D32790711F40C94AB2BB7
:1047F000E1E06E327E0711F40C948E2C6D3D710554
:1048000011F00C944F2D96C7F1E0653F7F0711F42E
:104810000C94982C21E0663F720744F431E0643F29
:10482000730711F00C944F2D0C94952C81E0663F8A
:10483000780711F40C949A2C91E0673F790711F0F6
:104840000C944F2D0C949E2C159817984298A09874
:104850000C944F2D0E94304FDC01CB0180938905D1
:1048600090938A05A0938B05B0938C0540918D059C
:1048700050918E0560918F0570919005841B950B6A
:10488000A60BB70BBC01CD0128EE33E040E050E0B1
:104890000E94AB54EDB7FEB738970FB6F894FEBF41
:1048A0000FBEEDBF0DB71EB70F5F1F4FCE010196B4
:1048B0009283818387E692E0F80193838283CA0121
:1048C000B9012CE330E040E050E00E94AB54DC0141
:1048D000CB01F80135832483978386830E940D588A
:1048E000E0E5F9E084912DB73EB7285F3F4F0FB662
:1048F000F8943EBF0FBE2DBF08C09091C00095FF39
:10490000FCCF8093C600319684918823B1F7FE01D5
:10491000319606C09091C00095FFFCCF8093C600F1
:1049200081918823B9F78091C00085FFFCCF0C945A
:104930004C2D83E50E94EB14882311F40C944F2D29
:104940000E94CF146B017C0180E50E94EB14882348
:1049500011F40C944F2DC701B6010E944D51DC019A
:10496000CB017C0197FF02C00C944F2D8F3F910526
:1049700019F014F00C944F2D0E94CF140E944D5149
:104980008B019C01E0E3F3E020E08191919180179D
:10499000910711F40C944F2D2F5F2A33B1F717FFB5
:1049A00002C00C944F2D802F61E00E948E4E802F0C
:1049B0006E2D0E94AF4E802FB7010E943E4D0C9489
:1049C0004F2D8091B4038093910584E50E94EB14F0
:1049D000882379F10E94CF140E945251609391056F
:1049E000662339F1E0E5F9E007C09091C00095FF3A
:1049F000FCCF8093C600319684918823B1F7E6E717
:104A0000F2E006C09091C00095FFFCCF8093C600F5
:104A100081918823B9F78EEE95E06091910540E091
:104A200050E00E9496358091C00085FFFCCF0C9429
:104A30004C2D83E50E94EB14882309F10E94CF14CA
:104A40006B017C0100919105802E99240E944D51AB
:104A5000DC01CB01602F0E94752FF401EE0FFF1FC8
:104A6000E055FA4F91838083F401EE0FFF1FEE0FA4
:104A7000FF1FEA55FA4FC082D182E282F3820E9480
:104A800092320C944F2D83E50E94EB14882311F48D
:104A90000C944F2D0E94CF140E944D51DC01CB018C
:104AA0000E94BD2F9093AF058093AE050C944F2DBF
:104AB0008091B4038093910584E50E94EB148823D0
:104AC00079F10E94CF140E945251609391056623A0
:104AD00039F1E0E5F9E007C09091C00095FFFCCF07
:104AE0008093C600319684918823B1F7EDE8F2E017
:104AF00006C09091C00095FFFCCF8093C6008191C5
:104B00008823B9F78EEE95E06091910540E050E082
:104B10000E9496358091C00085FFFCCF0C944C2DEF
:104B2000ECEBFCE007C09091C00095FFFCCF8093B8
:104B3000C600319684918823B1F760919105E62FE4
:104B4000F0E0EE0FFF1FE455FA4F808191810E9443
:104B5000C02FAB01BC018EEE95E022E030E00E9458
:104B6000CF36E2ECFCE007C09091C00095FFFCCF8F
:104B70008093C600319684918823B1F78091AA056D
:104B80009091AB050E943032AB01BC018EEE95E0F6
:104B900022E030E00E94CF36E6ECFCE007C09091C6
:104BA000C00095FFFCCF8093C60031968491882386
:104BB000B1F78091910590E00E946F2FBC018EEEBD
:104BC00095E04AE050E00E94D3358091C00085FF17
:104BD000FCCF8AE08093C60087C78091B40380939E
:104BE000910584E50E94EB14882371F10E94CF1493
:104BF0000E94525160939105662331F1E0E5F9E09E
:104C000007C09091C00095FFFCCF8093C6003196FD
:104C100084918823B1F7E4EAF2E006C09091C000E5
:104C200095FFFCCF8093C60081918823B9F78EEE63
:104C300095E06091910540E050E00E9496358091AA
:104C4000C00085FFFCCF28C783E50E94EB148823B2
:104C500009F10E94CF146B017C0100919105802E17
:104C600099240E944D51DC01CB01602F0E94752FC9
:104C7000F401EE0FFF1FE055FA4F91838083F4019A
:104C8000EE0FFF1FEE0FFF1FEA55FA4FC082D182D1
:104C9000E282F3820E9492320E94304F2B013C014B
:104CA0008091910590E0880F991FFC01E055FA4F23
:104CB0002081318138A32F8F84559A4FFC010190B8
:104CC000F081E02DFAA3E9A388248A94982C54015A
:104CD000EAECFCE03490EDECFCE02490E1EDFCE04B
:104CE00004911AE0FCC0832DEAECFCE008C090912E
:104CF000C00095FFFCCF8093C60031968491882335
:104D0000B1F760919105E62FF0E0EE0FFF1FE4553B
:104D1000FA4F808191810E94C02FAB01BC018EEEC1
:104D200095E022E030E00E94CF36822DEDECFCE0F1
:104D300008C09091C00095FFFCCF8093C6003196CB
:104D400084918823B1F7609191058EEE95E070E033
:104D50004AE050E00E94D335802FE1EDFCE008C02E
:104D60009091C00095FFFCCF8093C600319684914E
:104D70008823B1F7B7FE03C0EBEBF2E029C00E9435
:104D8000304FAB01BC01D501C401805D9A48AF4FE3
:104D9000BF4F841B950BA60BB70BBC01CD0128EEB2
:104DA00033E040E050E00E94AB548EEE95E0BA0153
:104DB000A9012AE030E00E9489358091C00085FF7A
:104DC000FCCF0DC09091C00095FFFCCF8093C60032
:104DD00081918823B9F78091C00085FFFCCF1093A3
:104DE000C6000E94304F2B013C010E941130FFEFA2
:104DF0008F16FFEF9F06FFEFAF06FFEFBF0619F517
:104E0000A09191052F8D38A189A19AA1B0E0AA0F98
:104E1000BB1FFD01E055FA4FA455BA4F8217930707
:104E20004CF4808191812D913C911197281739077D
:104E3000F4F541C0808191812D913C9111978217A9
:104E40009307ACF538C0B7FC36C060919105E62FEA
:104E5000F0E0EE0FFF1FE455FA4F808191810E9430
:104E6000C02F6B017C0160919105E62FF0E0EE0F01
:104E7000FF1FE055FA4F808191810E94C02F9B0156
:104E8000AC01C701B6010E9404500E944D51AB0114
:104E9000BC0177FF07C070956095509541955F4FB5
:104EA0006F4F7F4F443051056105710524F00E941A
:104EB000304F4B015C019FEF89169FEF99069FEFE2
:104EC000A9069FEFB90659F0B7FCECC50E94304F18
:104ED00068197909E5E760337E0708F0E3C50E94A9
:104EE000304FDC01CB0184199509A609B709893E29
:104EF000F3E09F07F0E0AF07F0E0BF0708F0F3CE64
:104F000074CF83E50E94EB14882361F00E94CF14D4
:104F10000E944D51DC01CB010E94BD2F9093AF0543
:104F20008093AE050E94304F6B017C01E5EDFCE003
:104F3000B490E8EDFCE08490ECEDFCE004911AE024
:104F400072C00E94304FDC01CB018C199D09AE0963
:104F5000BF09893E23E0920720E0A20720E0B207C4
:104F600008F45FC06091B403E62FF0E0EE0FFF1F7E
:104F7000E455FA4F808191810E94C02FAB01BC01A2
:104F80008B2DE5EDFCE008C09091C00095FFFCCFB3
:104F90008093C600319684918823B1F78EEE95E018
:104FA00022E030E00E94CF36882DE8EDFCE008C01A
:104FB0009091C00095FFFCCF8093C60031968491FC
:104FC0008823B1F76091B4038EEE95E070E04AE07B
:104FD00050E00E94D335802FECEDFCE008C09091AA
:104FE000C00095FFFCCF8093C60031968491882342
:104FF000B1F78091AA059091AB050E943032AB01C8
:10500000BC018EEE95E022E030E00E94CF36809128
:10501000C00085FFFCCF1093C6000E94304F6B018B
:105020007C010E9411302091AE053091AF05809136
:10503000AA059091AB05821793070CF482CF3EC569
:1050400083E50E94EB148823F9F00E94CF1420E03E
:1050500030E040E050E00E94DE5087FD0FC00E942B
:10506000CF1420E030E04FE753E40E94E1521816DD
:105070003CF00E94CF140E94525103C060E001C076
:105080006FEF6093B3030BC58FEF8093B30307C536
:105090001092B30304C5269A02C50E945E100E94B6
:1050A000CC14FDC41092D703FAC481E08093D703D7
:1050B000F6C483E50E94EB148823A9F00E94CF1464
:1050C00020E030E04AE754E40E94B3530E9452517A
:1050D000DC01CB018093150390931603A093170373
:1050E000B0931803DCC488E50E94EB14882309F010
:1050F000F2C489E50E94EB14882309F0ECC48AE528
:105100000E94EB14882309F0E6C485E40E94EB14A6
:10511000882309F0E0C40E945E10A09A0E94CE107D
:10512000BEC4159A89E50E94EB148111179A8AE58D
:105130000E94EB148111429A85E40E94EB148823AB
:1051400009F4ADC4A09AABC483E50E94EB140E949D
:10515000CF1420E030E04AE754E40E94B3530E94A9
:105160005251DC01CB018093920590939305A0935B
:105170009405B093950593C44CE2C42E43E0D42E1D
:1051800002E91BE0EE24F60181916F010E94EB140D
:10519000882349F00E94CF14DC01CB01F801808301
:1051A0009183A283B383E3940C5F1F4FF4E0EF1667
:1051B00051F775C4E0EEFCE007C09091C00095FF88
:1051C000FCCF8093C600319684918823B1F767C4E1
:1051D000EBE7FDE007C09091C00095FFFCCF809306
:1051E000C600319684918823B1F74091C103509154
:1051F000C2036091C3037091C4038EEE95E022E078
:1052000030E00E94CF36EEE7FDE007C09091C0008D
:1052100095FFFCCF8093C600319684918823B1F727
:105220004091C5035091C6036091C7037091C803B4
:105230008EEE95E022E030E00E94CF36E1E8FDE01E
:1052400007C09091C00095FFFCCF8093C6003196B7
:1052500084918823B1F74091C9035091CA036091AA
:10526000CB037091CC038EEE95E022E030E00E94FB
:10527000CF36E4E8FDE007C09091C00095FFFCCF79
:105280008093C600319684918823B1F74091CD0375
:105290005091CE036091CF037091D0038EEE95E0D4
:1052A00022E030E00E94CF36E7E8FDE007C09091B1
:1052B000C00095FFFCCF8093C6003196849188236F
:1052C000B1F70E94B8100E9480512091920B30914A
:1052D000930B4091940B5091950B0E94E550AB01BC
:1052E000BC018EEE95E022E030E00E94CF36E1E98D
:1052F000FDE007C09091C00095FFFCCF8093C600F1
:10530000319684918823B1F781E00E94B8100E9401
:1053100080512091960B3091970B4091980B5091B2
:10532000990B0E94E550AB01BC018EEE95E022E0A6
:1053300030E00E94CF36E4E9FDE007C09091C00064
:1053400095FFFCCF8093C600319684918823B1F7F6
:1053500082E00E94B8100E94805120919A0B3091F7
:105360009B0B40919C0B50919D0B0E94E550AB0113
:10537000BC018EEE95E022E030E00E94CF368091B5
:10538000C00085FFFCCF88C3E7E9FDE007C090912E
:10539000C00095FFFCCF8093C6003196849188238E
:1053A000B1F780B180FD03C0E1E6F2E009C0E4E6B8
:1053B000F2E006C09091C00095FFFCCF8093C6003C
:1053C00081918823B9F7EEE9FDE007C09091C00014
:1053D00095FFFCCF8093C600319684918823B1F766
:1053E000029903C0E1E6F2E009C0E4E6F2E006C09B
:1053F0009091C00095FFFCCF8093C60081918823D7
:10540000B9F7E5EAFDE007C09091C00095FFFCCF39
:105410008093C600319684918823B1F7049903C024
:10542000E1E6F2E009C0E4E6F2E006C09091C000D7
:1054300095FFFCCF8093C60081918823B9F7ECEAF1
:10544000FDE007C09091C00095FFFCCF8093C6009F
:10545000319684918823B1F7069903C0E1E6F2E022
:1054600009C0E4E6F2E006C09091C00095FFFCCFD1
:105470008093C60081918823B9F7E3EBFDE007C074
:105480009091C00095FFFCCF8093C6003196849127
:105490008823B1F7379903C0E1E6F2E009C0E4E6FA
:1054A000F2E006C09091C00095FFFCCF8093C6004B
:1054B00081918823B9F7EAEBFDE007C09091C00025
:1054C00095FFFCCF8093C600319684918823B1F775
:1054D000359903C0E1E6F2E009C0E4E6F2E006C077
:1054E0009091C00095FFFCCF8093C60081918823E6
:1054F000B9F78091C00085FFFCCFCEC23CE2C32E3D
:1055000033E0D32E00E010E0F60181916F010E949C
:10551000EB14882359F10E94CF14E2E8EE2EEBE061
:10552000FE2EE00EF11E0E945251DC01CB01F7016C
:1055300080839183A283B3830E94CF1426E5E22E59
:105540002BE0F22EE00EF11EF801EE56F44F208112
:105550003181428153810E94B3530E945251DC0138
:10556000CB01F70180839183A283B3830C5F1F4F2C
:105570000031110549F693C25CE2C52E53E0D52EE9
:1055800002EA1BE064E0E62EF60181916F010E94C1
:10559000EB14882349F00E94CF14DC01CB01F80101
:1055A00080839183A283B383EA940C5F1F4FEE2024
:1055B00059F775C283E50E94EB14882361F00E94BD
:1055C000CF14DC01CB0180937A0B90937B0BA093DB
:1055D0007C0BB0937D0B84E50E94EB14882309F4C7
:1055E0005EC20E94CF14DC01CB018093760B9093B6
:1055F000770BA093780BB093790B51C283E50E948F
:10560000EB14882361F00E94CF14DC01CB0180935E
:105610007E0B90937F0BA093800BB093810B84E55E
:105620000E94EB14882361F00E94CF14DC01CB01AF
:105630008093660B9093670BA093680BB093690BF4
:1056400082E40E94EB14882371F00E94CF140E9420
:105650005251DC01CB018093B20B9093B30BA0931A
:10566000B40BB093B50B88E50E94EB14882361F06E
:105670000E94CF14DC01CB018093720B9093730BCB
:10568000A093740BB093750B8AE50E94EB148823EA
:1056900061F00E94CF14DC01CB0180936E0B9093DC
:1056A0006F0BA093700BB093710B85E40E94EB1409
:1056B000882309F4F4C10E94CF14DC01CB0180934C
:1056C0006A0B90936B0BA0936C0BB0936D0BE7C1BF
:1056D0003CE2C32E33E0D32E05EB13E043E0E42E8F
:1056E000F60181916F010E94EB14882349F00E941A
:1056F000CF14DC01CB01F80180839183A283B383B3
:10570000EA940C5F1F4FEE2059F7C9C183E50E9450
:10571000EB14882309F4C3C10E94CF140E944D5199
:10572000DC01CB019093FF028093FE0281E0809325
:10573000D103B5C183E50E94EB14882309F4AFC1FE
:105740000E94CF140E944D51DC01CB019093FD02C9
:105750008093FC02A4C180E50E94EB14882361F0D1
:105760000E94CF14DC01CB01809325039093260384
:10577000A0932703B093280389E40E94EB148823A5
:1057800091F00E94CF142FE632E143E05EE30E94E5
:10579000B353DC01CB018093210390932203A093A8
:1057A0002303B093240384E40E94EB14882391F034
:1057B0000E94CF142FE632E143E05EE30E94E55001
:1057C000DC01CB0180931D0390931E03A0931F0364
:1057D000B093200383E40E94EB14882361F00E94BD
:1057E000CF14DC01CB018093190390931A03A0938B
:1057F0001B03B0931C030E94562FEDEBF2E006C092
:105800009091C00095FFFCCF8093C60081918823C2
:10581000B9F7E0ECF2E006C09091C00095FFFCCF34
:105820008093C60081918823B9F740912503509158
:10583000260360912703709128038EEE95E022E005
:1058400030E00E94CF36E4ECF2E006C09091C00058
:1058500095FFFCCF8093C60081918823B9F76091B2
:1058600021037091220380912303909124032FE65A
:1058700032E143E05EE30E94E550AB01BC018EEEF5
:1058800095E022E030E00E94CF36E8ECF2E006C07E
:105890009091C00095FFFCCF8093C6008191882332
:1058A000B9F760911D0370911E0380911F039091C1
:1058B00020032FE632E143E05EE30E94B353AB01E5
:1058C000BC018EEE95E022E030E00E94CF36ECEC99
:1058D000F2E006C09091C00095FFFCCF8093C60017
:1058E00081918823B9F76091190370911A0380910F
:1058F0001B0390911C032FE632E143E05EE30E941C
:10590000B353AB01BC018EEE95E022E030E00E9483
:10591000CF368091C00085FFFCCFBEC081E00E94E1
:10592000B34BBDC00E945E10BAC00E949E1AB7C0A1
:1059300080E001C081E00E94AC1BB1C00E94D51084
:10594000AEC084E50E94EB14882309F461C00E9474
:10595000CF140E94525160939105E0E5F9E066236F
:1059600081F107C09091C00095FFFCCF8093C600E5
:10597000319684918823B1F7E0EDF2E006C0909172
:10598000C00095FFFCCF8093C60081918823B9F7B2
:105990008EEE95E06091910540E050E00E949635D2
:1059A000E2EDF2E006C09091C00095FFFCCF80933D
:1059B000C60081918823B9F78091C00085FFFCCF94
:1059C0006BC01092B40307C09091C00095FFFCCF4C
:1059D0008093C600319684918823B1F7E3EEF2E01C
:1059E00006C09091C00095FFFCCF8093C6008191C6
:1059F0008823B9F76091B4038EEE95E070E04AE039
:105A000050E00E94D3358091C00085FFFCCF44C098
:105A1000E0E5F9E007C09091C00095FFFCCF8093CE
:105A2000C600319684918823B1F7E1ECFDE007C010
:105A30009091C00095FFFCCF8093C6003196849171
:105A40008823B1F7209160053091610580E690E0F0
:105A5000289FF001299FF00D389FF00D1124E4528A
:105A6000FC4F06C09091C00095FFFCCF8093C6000C
:105A700081918823B9F7E3EDFDE007C09091C00064
:105A800095FFFCCF8093C600319684918823B1F7AF
:105A90008091C00085FFFCCF8AE08093C6000E9401
:105AA0000A1522C00E94304FDC01CB0180938D0586
:105AB00090938E05A0938F05B09390050E94304F70
:105AC000DC01CB018093700590937105A093720562
:105AD000B0937305E4CF0E945E1088E50E94EB143A
