:100000000C94B80B0C94AB9F0C94DC9F0C940DA03B
:100010000C943EA00C946FA00C94A0A00C94D1A0C2
:100020000C9402A10C94E90B0C94E90B0C94E90BD1
:100030000C94E90B0C94E90B0C94E90B0C94E90B70
:100040000C94E90B0C94290F0C94E90B0C94E90B1C
:100050000C94E90B0C94E90B0C94877D0C94DBA2B7
:100060000C94E90B0C94CB7E0C94E90B0C94E90BEB
:100070000C94E90B0C94E90B0C94E90B0C94E90B30
:100080000C94E90B0C94E90B0C94E90B0C94E90B20
:100090000C94E90B0C94E90B0C94E90B0C94E90B10
:1000A0000C94E90B0C94E90B0C94E90B0C94E90B00
:1000B0000C94E90B0C94E90B0C94E90B0C94E90BF0
:1000C0000C94E90B0C94E90B0C94E90B0C94E90BE0
:1000D0000C94E90B0C94E90B0C94E90B0C94E90BD0
:1000E0000C94E90B084AD73B3BCE016E84BCBFFDA4
:1000F000C12F3D6C74319ABD56833DDA3D00C77FF8
:1001000011BED9E4BB4C3E916BAAAABE0000008090
:100110003F05A84CCDB2D44EB93836A9020C50B91F
:10012000918688083CA6AAAA2ABE000000803F65E6
:1001300063686F3A00656E6473746F7073206869EA
:10014000743A200020583A0020593A00205A3A00C8
:1001500024F404D9201BC40C5C0E9804C4095F026B
:1001600065077101F405F900FB04B300480487003A
:10017000C10369005803550003034500BE023A005D
:100180008402310053022A002902250004022000C3
:10019000E4011C00C8011900AF0117009801140008
:1001A00084011300710110006101100051010E0063
:1001B00043010D0036010B002B010B0020010B0049
:1001C000150109000C01090003010800FB000800EB
:1001D000F3000800EB000700E4000600DE00060064
:1001E000D8000600D2000600CC000500C7000500BC
:1001F000C2000500BD000400B9000400B500040001
:10020000B1000400AD000400A9000400A500030033
:10021000A20003009F0004009B000300980003005D
:100220009500020093000300900003008D0002007F
:100230008B00030088000200860002008400030097
:10024000810002007F0002007D0002007B000200AE
:1002500079000200770001007600020074000200BD
:1002600072000100710002006F0002006D000100C9
:100270006C0002006A0001006900020067000100D2
:1002800066000100650001006400020062000100D8
:1002900061000100600001005F0002005D000100DC
:1002A0005C0001005B0001005A00010059000100E0
:1002B00058000100570001005600010055000100E0
:1002C00054000100530000005300010052000100DF
:1002D00051000100500001004F0001004E000000DD
:1002E0004E0001004D0001004C0001004B000000D9
:1002F0004B0001004A0001004900010048000000D5
:1003000048000100470001004600000046000100CF
:1003100045000000450001004400010043000000CA
:1003200043000100420000004200010041000000C3
:1003300041000100400001003F0000003F000100BB
:100340003E0000003E0001003D0000003D000100B5
:100350003C0000003C0000003C0001003B000000AD
:100360003B0001003A0000003A00010039000000A3
:10037000390001003800000038000000380001009A
:100380003700000037000100360000003600000092
:100390003600010035000000350000003500010086
:1003A000340000003400000034000100330000007D
:1003B0003300000033000100320000003200000072
:1003C0003200010031000000310000003100010066
:1003D0003000000030000000300001002F0000005D
:1003E0002F0000002F0000002F0001002E00000051
:1003F0002E0000002E0001002D0000002D00000046
:100400002D0000002D0001002C0000002C00000039
:100410002C0000002C0001002B0000002B0000002D
:100420002B0000002B0001002A0000002A00000021
:100430002A0000002A000100290000002900000015
:100440002900000029000000290001002800000008
:1004500028000000280000002800000028000100FB
:1004600027000000270000002700000027000000F0
:1004700027000100260000002600000026000000E2
:1004800026000000260001002500000025000000D5
:1004900025000000250000002500000025000100C7
:1004A00024000000240000002400000024000000BC
:1004B00024000100230000002300000023000000AE
:1004C000230000002300000023000000230001009F
:1004D0002200000022000000220000002200000094
:1004E0002200000022000100210000002100000085
:1004F0002100000021000000210000002100000078
:100500002100010020000000200000002000000069
:10051000200000002000000020000000200000005B
:10052000200001001F0000001F0000001F0000004D
:100530001F0000001F0000001F0000001F0001003E
:100540001E0000001E0000001E0000001E00000033
:1005500024F4D43050C38E20C2A24017828B701175
:10056000127A910D816CD90AA861E108C758660713
:10057000615143061E4B5D05C145A7041A41110494
:10058000093D9803713931034036DB02653391022E
:10059000D4305402802E1D02632CEE01752AC50151
:1005A000B028A001102781018F2564012B244B0165
:1005B000E0223401AC211F018D200D01801FFC00C1
:1005C000841EED00971DDF00B81CD200E61BC6009C
:1005D000201BBC00641AB200B219A8000A19A000BE
:1005E0006A189900D117910040178B00B516840046
:1005F00031167E00B31579003A157300C7146F00E9
:1006000058146A00EE1366008813630025135E0019
:10061000C7125B006C12570015125400C111510033
:1006200070114F0021114B00D61049008D1047006A
:100630004610440002104200C00F4000800F3E00F0
:10064000420F3C00060F3B00CB0E3800930E3700E4
:100650005C0E3500270E3400F30D3200C10D310061
:10066000900D3000600D2E00320D2D00050D2C0078
:10067000D90C2B00AE0C2900850C29005C0C27003E
:10068000350C27000E0C2600E80B2400C40B2400B8
:10069000A00B23007D0B23005A0B2100390B2100F6
:1006A000180B2000F80A1F00D90A1E00BB0A1E0002
:1006B0009D0A1D00800A1D00630A1C00470A1B00DA
:1006C0002C0A1B00110A1A00F7091A00DD0919008B
:1006D000C4091900AB091900920917007B09180019
:1006E000630917004C091600360916002009160088
:1006F0000A091500F5081500E0081400CC081400DC
:10070000B8081400A4081400900813007D08120013
:100710006B08130058081200460812003408110034
:10072000230811001208110001081100F007100041
:10073000E0071000D0071000C0071000B0070F003E
:10074000A107100091070E0083070F0074070F0028
:1007500065070E0057070E0049070E003B070D0006
:100760002E070E0020070D0013070D0006070D00D1
:10077000F9060C00ED060D00E0060C00D4060C0096
:10078000C8060C00BC060C00B0060C00A4060B004A
:1007900099060C008D060B0082060B0077060B00F5
:1007A0006C060B0061060A0057060B004C060A0097
:1007B00042060A0038060A002E060A0024060A002D
:1007C0001A060A001006090007060A00FD050900BE
:1007D000F4050900EB050900E2050900D905090047
:1007E000D0050900C7050900BE050900B5050800C8
:1007F000AD050800A50509009C0508009405080042
:100800008C050800840508007C05080074050800B4
:100810006C050700650508005D0507005605080022
:100820004E0507004705070040050800380507008A
:10083000310507002A050700230507001C050600EF
:10084000160507000F05070008050600020507004A
:10085000FB040600F5040700EE040600E8040600A9
:10086000E2040700DB040600D5040600CF040600FE
:10087000C9040600C3040600BD040600B704060050
:10088000B1040500AC040600A6040600A00405009F
:100890009B04060095040500900406008A040500E8
:1008A00085040500800406007A040500750405002F
:1008B000700405006B040500660405006104050072
:1008C0005C04050057040500520405004D040500B2
:1008D00048040500430405003E0404003A040500F2
:1008E00035040500300404002C040500270404002E
:1008F000230405001E0404001A0404001604050065
:10090000110404000D04040009040500040404009B
:1009100000040400FC030400F8030400F4030400D2
:10092000F0030400EC030400E8030400E403040003
:10093000E0030400DC030400D8030400D403040033
:10094000D0030400CC030400C8030300C503030064
:1009500052656C65617365642E007C3C3E5E2B3D88
:100960003F2F5B5D3B2C2A225C006563686F3A0079
:10097000656E717565696E6720220022007374616F
:10098000727400506F7765725570002045787465F9
:10099000726E616C205265736574002042726F77CD
:1009A0006E206F75742052657365740020576174F2
:1009B0006368646F672052657365740020536F66C7
:1009C0007477617265205265736574004D61726C55
:1009D000696E2000312E302E302052433200204CE0
:1009E00061737420557064617465643A20004D61D0
:1009F000726C696E2D4D6F6E2C203131204A756EF0
:100A000020323031322031373A33333A3432202BEE
:100A100030323030202D20623637646163646338B1
:100A20006631626434383965303538653136643959
:100A3000326261323963333634623261386535008F
:100A4000207C20417574686F723A20004275696C91
:100A5000642D4D652D4D61726C696E002046726586
:100A600065204D656D6F72793A20002020506C61D1
:100A70006E6E657242756666657242797465733A28
:100A8000200053746F7265642073657474696E67B7
:100A900073207265747265697665643A0053746593
:100AA00070732070657220756E69743A0020204D55
:100AB0003932205800205900205A002045004D614D
:100AC00078696D756D206665656472617465732003
:100AD000286D6D2F73293A0020204D323033205875
:100AE00000205900205A002045004D6178696D753D
:100AF0006D20416363656C65726174696F6E202857
:100B00006D6D2F7332293A0020204D32303120583C
:100B100000205900205A00204500416363656C6540
:100B2000726174696F6E3A20533D616363656C65F1
:100B3000726174696F6E2C20543D726574726163CA
:100B40007420616363656C65726174696F6E002007
:100B5000204D323034205300205400416476616EC1
:100B6000636564207661726961626C65733A2053D3
:100B70003D4D696E20666565647261746520286DFF
:100B80006D2F73292C20543D4D696E20747261764F
:100B9000656C20666565647261746520286D6D2FD3
:100BA00073292C20423D6D696E696D756D207365EA
:100BB000676D656E742074696D6520286D73292CCE
:100BC00020583D6D6178696D756D207859206A6592
:100BD000726B20286D6D2F73292C20205A3D6D617A
:100BE00078696D756D205A206A65726B20286D6D6D
:100BF0002F73290020204D3230352053002054001F
:100C0000204200205800205A00204500504944202E
:100C100073657474696E67733A002020204D333019
:100C2000312050002049002044006F6B00446F6E5B
:100C30006520736176696E672066696C652E004574
:100C400072726F723A004C696E65204E756D626506
:100C500072206973206E6F74204C617374204C692C
:100C60006E65204E756D6265722B312C204C617360
:100C700074204C696E653A00636865636B73756DCB
:100C8000206D69736D617463682C204C61737420EE
:100C90004C696E653A004E6F20436865636B7375EF
:100CA0006D2077697468206C696E65206E756D6261
:100CB00065722C204C617374204C696E653A004E4D
:100CC0006F204C696E65204E756D62657220776984
:100CD000746820636865636B73756D2C204C617359
:100CE00074204C696E653A006F6B005072696E74C7
:100CF00065722073746F707065642064657520740C
:100D00006F206572726F72732E2046697820746846
:100D100065206572726F7220616E64207573652044
:100D20004D39393920746F20726573746172742182
:100D30002E202854656D7065726174757265206926
:100D4000732072657365742E205365742069742056
:100D50006265666F72652072657374617274696E24
:100D600067290053544F505045442E2000446F6E65
:100D700065207072696E74696E672066696C6500C3
:100D8000536C6565702E2E2E005761697420666F56
:100D90007220757365722E2E2E004E6F206D6F7649
:100DA000652E00426567696E2066696C65206C6916
:100DB000737400456E642066696C65206C69737499
:100DC000006F6B20543A00202F0020423A00202F61
:100DD0000020403A0048656174696E672E2E2E002F
:100DE000543A0020453A0020573A0048656174693A
:100DF0006E6720646F6E652E0042656420486561F1
:100E000074696E672E00543A0020453A0020423A39
:100E10000042656420646F6E652E005061727469D3
:100E2000616C2052656C65617365004649524D578F
:100E30004152455F4E414D453A4D61726C696E209D
:100E400056313B20537072696E7465722F677262FF
:100E50006C206D617368757020666F722067656EB7
:100E600036204649524D574152455F55524C3A68DB
:100E70007474703A2F2F6669726D776172652E7582
:100E80006C74696D616B65722E636F6D2050524F8B
:100E9000544F434F4C5F56455253494F4E3A312EB3
:100EA00030204D414348494E455F545950453A55CD
:100EB0006C74696D616B6572204558545255444598
:100EC000525F434F554E543A310A00583A00593A4E
:100ED000005A3A00453A0020436F756E7420583A24
:100EE00000593A005A3A00785F6D696E3A00785FAF
:100EF0006D61783A00795F6D696E3A00795F6D6176
:100F0000783A007A5F6D696E3A007A5F6D61783A7F
:100F100000556E6B6E6F776E20636F6D6D616E64E2
:100F20003A2200220053657474696E67732053740B
:100F30006F72656400526573656E643A006F6B0092
:100F40005072696E7465722068616C7465642E20DD
:100F50006B696C6C28292063616C6C6564202121AD
:100F6000004B494C4C45442E20005072696E74650C
:100F7000722073746F707065642064657520746F7F
:100F8000206572726F72732E2046697820746865CE
:100F9000206572726F7220616E6420757365204DDA
:100FA00039393920746F2072657374617274212E1F
:100FB000202854656D70657261747572652069735F
:100FC0002072657365742E205365742069742062E5
:100FD00065666F72652072657374617274696E679D
:100FE000290053544F505045442E2000556C7469CD
:100FF0006D616B65722052656164792E00022D2D42
:101000002D2F2D2D2D0120006820006D005A3A0053
:1010100025200025534400204D61696E20030020E7
:101020004175746F737461727400204469736162F6
:101030006C6520537465707065727300204175741F
:101040006F20486F6D650020536574204F7269678B
:10105000696E00205072656865617420504C4100D3
:101060002050726568656174204142530020436FCF
:101070006F6C646F776E00204D6F766520417869E4
:10108000732020202020207E002050726570617225
:101090006520030020583A0020593A00205A3A00AF
:1010A000204578747275646500204D61696E200377
:1010B000002053706565643A0020024E6F7A7A6CA6
:1010C000653A0020024265643A002046616E207352
:1010D000706565643A0020466C6F773A0020436F74
:1010E0006E74726F6C20030020024E6F7A7A6C650A
:1010F0003A002046616E2073706565643A002050A6
:1011000049442D503A2000205049442D493A2000AE
:10111000205049442D443A2000205049442D433A60
:10112000200020436F6E74726F6C200300204163B7
:10113000633A00303000303000205678792D6A65EF
:10114000726B3A200020566D61782000783A007961
:101150003A007A3A00653A0020566D696E3A0020EE
:101160005654726176206D696E3A0020416D617847
:101170002000783A00793A007A3A00653A00303037
:101180000030300020412D726574726163743A0042
:10119000303000303000205873746570732F6D6DDF
:1011A0003A00205973746570732F6D6D3A00205AA0
:1011B00073746570732F6D6D3A002045737465709C
:1011C000732F6D6D3A00204D61696E202020202024
:1011D00020202003002054656D7065726174757263
:1011E00065207E00204D6F74696F6E2020202020C6
:1011F000207E002053746F7265206D656D6F72796B
:1012000000204C6F6164206D656D6F727900205213
:101210006573746F7265204661696C736166650001
:10122000204D61696E200300045265667265736823
:1012300000200020576174636820202003002050A4
:10124000726570617265207E002054756E65202085
:1012500020207E0020436F6E74726F6C207E002011
:1012600053746F70205072696E742020207E0020AD
:1012700043617264204D656E75202020207E002021
:101280004E6F204361726400536F6D657468696EC0
:10129000672069732077726F6E6720696E207468AB
:1012A00065204D656E755374727563747572652E25
:1012B000004361726420696E7365727465640043F3
:1012C0006172642072656D6F766564002062696189
:1012D000733A200020643A2000206D696E3A2000A5
:1012E000206D61783A2000204B753A20002054751B
:1012F0003A200020436C6173696320504944200008
:10130000204B703A2000204B693A2000204B643A71
:101310002000504944204175746F74756E652066D5
:1013200061696C6564212054656D706572617475C6
:10133000726520746F2068696768006F6B20543A8B
:101340000020403A00504944204175746F74756E16
:1013500065206661696C6564212074696D656F75CF
:101360007400504944204175746F74756E65206631
:10137000696E6973686564202120506C6163652023
:10138000746865204B702C204B6920616E64204B83
:101390006420636F6E7374616E747320696E207461
:1013A000686520636F6E66696775726174696F6ED8
:1013B0002E68004572726F723A00202D20496E76B9
:1013C000616C6964206578747275646572206E75ED
:1013D0006D6265722100202D20496E76616C696412
:1013E000206578747275646572206E756D626572C1
:1013F0002021003A204578747275646572207377F5
:10140000697463686564206F66662E204D41585488
:10141000454D5020747269676765726564202100CC
:101420003A204578747275646572207377697463C5
:10143000686564206F66662E204D494E54454D50B8
:101440002074726967676572656420210054656D58
:101450007065726174757265206865617465642079
:10146000626564207377697463686564206F66667B
:101470002E204D415854454D502074726967676560
:10148000726564202121006563686F3A005344202F
:10149000696E6974206661696C004572726F723A98
:1014A00000766F6C756D652E696E69742066616972
:1014B0006C6564006F70656E526F6F742066616951
:1014C0006C65640053442063617264206F6B006F2D
:1014D00070656E206661696C65642C2046696C6578
:1014E0003A20002E0046696C65206F70656E656459
:1014F0003A002053697A653A0046696C6520736545
:101500006C6563746564006F70656E206661696CFC
:1015100065642C2046696C653A20002E006F70656A
:101520006E206661696C65642C2046696C653A20A2
:10153000002E0057726974696E6720746F206669A7
:101540006C653A20006F70656E206661696C656439
:101550002C2046696C653A20002E0046696C652097
:1015600064656C657465643A0044656C6574696FA4
:101570006E206661696C65642C2046696C653A2052
:10158000002E005344207072696E74696E67206289
:1015900079746520002F004E6F74205344207072C0
:1015A000696E74696E67006572726F722077726916
:1015B00074696E6720746F2066696C650043616EA4
:1015C0006E6F7420656E74657220737562646972E3
:1015D0003A006563686F3A0020636F6C6420657839
:1015E00074727573696F6E2070726576656E74655E
:1015F000640020746F6F206C6F6E67206578747262
:101600007573696F6E2070726576656E74656400BF
:101610000000090A02080B0C0D0706030401000074
:1016200000000000000000000000000000000000BA
:1016300000000000000000000000000011100F007A
:10164000000000000000000000000000000000009A
:1016500000000000000001021020200808102040B7
:101660001020408002010201080402010102040866
:1016700010204080804020100804020180040201F4
:10168000804020100804020108040201010204083D
:101690001020408001020408102040800505050547
:1016A000070508080808020202020A0A08080404DA
:1016B0000404010101010101010103030303030308
:1016C0000303040707070C0C0C0C0C0C0C0C020297
:1016D000020206060606060606060B0B0B0B0B0B94
:1016E0000B0B000020002300260029002C002F00F7
:1016F0003200000100000301060109010000220080
:10170000250028002B002E003100340002010000CB
:10171000050108010B0100002100240027002A0018
:101720002D003000330001010000040107010A010F
:10173000494E46494E4954594E414E000020410001
:1017400000C84200401C4620BCBE4CCA1B0E5AAE0C
:10175000C59D74CDCCCC3D0AD7233C17B7D1387783
:10176000CC2B329595E6241FB14F0A00F974FE7414
:1017700011241FBECFEFD1E2DEBFCDBF00E00CBF12
:1017800014E0A0E0B2E0EEE4F3E601E00BBF02C03B
:1017900007900D92AC38B107D9F710E1ACE8B4E08E
:1017A00001C01D92AA35B107E1F717E1CEE6D7E1F6
:1017B00000E006C022970109FE010BBF0E9451AB59
:1017C000CC36D10780E00807A9F70E94F6A30C9455
:1017D00095B10C940000282F30E0A901559547954C
:1017E00040654CBD80FD03C091E0863009F490E077
:1017F0009DBD08958FEF8EBD0DB407FEFDCF8EB554
:1018000008958EBD0DB407FEFDCF0895FC018081C3
:1018100061E00E94A4A20895CF93DF93EC018A8136
:101820000E94EB0B888160E00E94A4A2DF91CF911F
:101830000895CF92DF92EF92FF920F931F93CF9371
:10184000DF93EC016B018A010E9425A3DC01CB012F
:101850007C010AC00E9425A36E197F0981E06D32C8
:10186000780710F081E108C00E94FA0B8B838F3F4C
:1018700089F38E3F39F08FE08983CE010E94060CF8
:1018800080E027C098012150304001151105C9F0B2
:101890008FEF8EBDF60180E090E04FEF07C00DB4F2
:1018A00007FEFDCF5EB551934EBD0196821793079B
:1018B000B0F30DB407FEFDCF8EB52C0D3D1DF90123
:1018C00080830E94FA0B0E94FA0BCE010E94060C44
:1018D00081E0DF91CF911F910F91FF90EF90DF900A
:1018E000CF9008950F931F93CF93DF93EB010E9446
:1018F00025A38B019C0107C00E9425A3601B710BCF
:101900006C177D0730F40E94FA0B8F3FA9F781E036
:1019100001C080E0DF91CF911F910F9108958F92C8
:101920009F92AF92BF92EF92FF920F931F93CF932C
:101930007C01C62F49015A010E940C0CC7016CE2C0
:1019400071E00E94720C8C2F80640E94010C08E1EF
:1019500010E0D501C401002E04C0B695A795979557
:1019600087950A94D2F70E94010C085010408FEF1F
:10197000083F180771F7CC2321F0C83021F08FEF12
:1019800003C085E901C087E80E94010CCC3011F446
:101990000E94FA0BC0E00E94FA0BF701838387FFD5
:1019A00004C0CF3F11F0CF5FF6CFCF911F910F91C1
:1019B000FF90EF90BF90AF909F908F900895CF923F
:1019C000DF92EF92FF920F931F93CF93DF93EC017F
:1019D0006A017B0189018C81833039F0A9E0CC0C4C
:1019E000DD1CEE1CFF1CAA95D1F7CE0161E1A70119
:1019F00096010E948F0C882339F084E08983CE0100
:101A00000E94060C80E006C0CE01B80140E052E022
:101A10000E94190CDF91CF911F910F91FF90EF90D1
:101A2000DF90CF900895AF92BF92CF92DF92EF9266
:101A3000FF920F931F93CF93DF93EC01162F1C821D
:101A4000198248830E9425A3DC01CB015C018881B7
:101A500061E00E9483A2CE010E94060C82E360E056
:101A60000E9483A283E361E00E9483A284E361E099
:101A70000E9483A285E361E00E9483A285E361E086
:101A80000E94A4A285E08A830E94EB0B0AE08FEFFC
:101A90000E94010C0150D9F70AC00E9425A36A19BF
:101AA0007B0987E0613D780710F081E05AC0CE01E4
:101AB00060E020E030E040E050E00E948F0C082F12
:101AC0008B83813051F7CE0168E02AEA31E040E0B3
:101AD00050E00E948F0C82FF02C00C830CC004E017
:101AE0000E94FA0B8B830150D9F78A3A11F082E0F9
:101AF00038C082E08C838C81823031F4C12CD12CAF
:101B0000E12CB0E4FB2E0EC0CC24DD2476010AC00B
:101B10000E9425A36A197B0987E0613D780710F0D0
:101B20008AE01FC0CE0167E320E030E040E050E0F3
:101B30000E948F0CCE0169E2A70196010E948F0CD2
:101B40008B83882329F78C818230E9F4CE016AE304
:101B500020E030E040E050E00E948F0C882331F01C
:101B600088E08983CE010E94060C18C00E94FA0BFF
:101B7000807C803C11F483E08C830E94FA0B0E94ED
:101B8000FA0B0E94FA0BCE010E94060C173018F0D7
:101B900088E1898303C01A8381E001C080E0DF917E
:101BA000CF911F910F91FF90EF90DF90CF90BF905A
:101BB000AF900895CF93DF93EC016EBDFA0180E002
:101BC00090E00DB407FEFDCF20812EBD0DB407FEC1
:101BD000FDCF21812EBD0296329622E08030920701
:101BE00081F70DB407FEFDCF8FEF0E94010C8FEF40
:101BF0000E94010C0E94FA0B8B838F71853039F0A3
:101C000083E18983CE010E94060C80E001C081E05F
:101C1000DF91CF910895CF92DF92EF92FF920F93D1
:101C20001F93CF93DF93EC016A017B0189018C81C3
:101C3000833039F089E0CC0CDD1CEE1CFF1C8A954A
:101C4000D1F7CE0168E1A70196010E948F0C88238D
:101C500011F086E01FC0CE016EEFA8010E94DA0DE0
:101C60008823C9F0CE0168E572E00E94720C8823D7
:101C700011F487E10FC0CE016DE020E030E040E0DC
:101C800050E00E948F0C882321F40E94FA0B8823D5
:101C900079F086E18983CE010E94060C80E0DF9115
:101CA000CF911F910F91FF90EF90DF90CF9008950B
:101CB000CE010E94060C81E0F2CF80919E04882321
:101CC00049F480919D04882329F480919C04882301
:101CD00009F4AEC0EFE2F1E007C09091C00095FFBB
:101CE000FCCF8093C600319684918823B1F7E5E359
:101CF000F1E007C09091C00095FFFCCF8093C60033
:101D0000319684918823B1F780919E04882349F10C
:101D1000E4E4F1E007C09091C00095FFFCCF809310
:101D2000C600319684918823B1F760919F04709129
:101D3000A0048091A1049091A2040E94D5A72091B3
:101D400003103091041040910510509106100E942C
:101D50003AA7AB01BC018FE59AE022E030E00E9497
:101D60002B8180919D04882349F1E8E4F1E007C0CC
:101D70009091C00095FFFCCF8093C600319684916E
:101D80008823B1F76091A3047091A4048091A50405
:101D90009091A6040E94D5A72091071030910810B9
:101DA0004091091050910A100E943AA7AB01BC0162
:101DB0008FE59AE022E030E00E942B8180919C0424
:101DC000882349F1ECE4F1E007C09091C00095FF51
:101DD000FCCF8093C600319684918823B1F760913F
:101DE000A7047091A8048091A9049091AA040E946C
:101DF000D5A720910B1030910C1040910D105091EF
:101E00000E100E943AA7AB01BC018FE59AE022E0D8
:101E100030E00E942B818091C00085FFFCCF8AE0DA
:101E20008093C60010929E0410929D0410929C0410
:101E3000089510929E0410929D0410929C0408959F
:101E4000809307040895EFE6F0E08081826080834C
:101E500008951F920F920FB60F920BB60F92112496
:101E60000F931F932F933F934F935F936F937F93A2
:101E70008F939F93AF93BF93CF93DF93EF93FF9392
:101E80008091AF049091B004009709F086C19091C1
:101E9000E60A8091E50A9817A1F02091E50A30E062
:101EA0008DE490E0289FF001299FF00D389FF00D00
:101EB0001124E951F54FDF01A45BBF4F81E08C9302
:101EC00002C0E0E0F0E0F093B004E093AF0430979C
:101ED00009F45DC1DF01A45BBF4F81E08C931092D8
:101EE000B1041092B2041092B3041092B40460AD25
:101EF00071AD2CE96134720728F49EE461327907F0
:101F000048F002C060E47CE9769567957695679520
:101F100084E007C0E7E261317E0730F0769567958F
:101F200082E08093B50407C08093B50460327105E8
:101F300010F460E270E060527040F8E060307F07BB
:101F4000E0F0272F30E0220F331F220F331F205BDA
:101F50003E4FF901329685919491AA27699FE0013D
:101F6000689FC10DDA1F0694CA1FDA1F1124F901F8
:101F7000459154914C1B5D0B1FC0CB0196958795E5
:101F80008C7F805B9A4FFC01459154910296FC0135
:101F9000A591B491862F90E087709070A89F9001D2
:101FA000A99F300DB89F300D1124D3E036952795A9
:101FB000DA95E1F7421B530B44365105A0F4E0E0FB
:101FC000F2E006C09091C00095FFFCCF8093C60060
:101FD00081918823B9F78FE59AE04AE050E00E94AA
:101FE000508044E650E05093B7044093B604E0912B
:101FF000AF04F091B00464AD75AD7093B904609313
:10200000B8042CE96134720728F48EE46132780751
:1020100048F002C060E47CE976956795769567950F
:1020200084E007C097E26131790730F076956795D3
:1020300082E08093B50408C081E08093B5046032EB
:10204000710510F460E270E060527040E8E06030CA
:102050007E07E0F0272F30E0220F331F220F331FBF
:10206000205B3E4FF901329685919491AA27699F92
:10207000E001689FC10DDA1F0694CA1FDA1F112400
:10208000F901459154914C1B5D0B1FC0CB019695F6
:1020900087958C7F805B9A4FFC0145915491029605
:1020A000FC01A591B491862F90E087709070A89F55
:1020B0009001A99F300DB89F300D1124E3E03695B3
:1020C0002795EA95E1F7421B530B44365105A0F4DE
:1020D000E0E0F2E006C09091C00095FFFCCF809355
:1020E000C60081918823B9F78FE59AE04AE050E075
:1020F0000E94508044E650E0CA01A0E0B0E0809326
:10210000BA049093BB04A093BC04B093BD04509355
:10211000890040938800E091AF04F091B004808979
:102120009189A289B389B695A79597958795B0951A
:10213000A095909581959F4FAF4FBF4F8093BE0460
:102140009093BF04A093C004B093C1048093C204D1
:102150009093C304A093C404B093C5048093C604B1
:102160009093C704A093C804B093C9048093CA0491
:102170009093CB04A093CC04B093CD041092AB0405
:102180001092AC041092AD041092AE0406C080ED23
:1021900097E09093890080938800E091AF04F091DC
:1021A000B004309709F435C580A18093CE0480FF38
:1021B0003CC0119A8FEF8093030480910704882319
:1021C00009F46DC020B1217031E0232759F18091CD
:1021D000CF04882339F180819181A281B3811816BF
:1021E00019061A061B06F4F480918C0490918D0454
:1021F000A0918E04B0918F0480939F049093A004CB
:10220000A093A104B093A20430939E048089918985
:10221000A289B3898093AB049093AC04A093AD04DE
:10222000B093AE042093CF043AC0119881E080931C
:10223000030480910704882391F121E0029B02C0EE
:1022400020E02BC08091D004882339F180819181D6
:10225000A281B381181619061A061B06F4F48091A0
:102260008C0490918D04A0918E04B0918F04809382
:102270009F049093A004A093A104B093A204209380
:102280009E0480899189A289B3898093AB0490933D
:10229000AC04A093AD04B093AE042093D00480911D
:1022A000CE0481FF40C044988FEF80930404809156
:1022B0000704882309F475C021E0049B02C020E0D4
:1022C0002FC08091D104882359F1E091AF04F0919F
:1022D000B00484819581A681B781181619061A0663
:1022E0001B06F4F48091900490919104A0919204C3
:1022F000B09193048093A3049093A404A093A504A5
:10230000B093A60420939D0480899189A289B38902
:102310008093AB049093AC04A093AD04B093AE044F
:102320002093D1043EC0449A81E0809304048091BC
:1023300007048823B1F121E0069B02C020E02FC0F2
:102340008091D204882359F1E091AF04F091B00458
:1023500084819581A681B781181619061A061B0675
:10236000F4F48091900490919104A0919204B09122
:1023700093048093A3049093A404A093A504B09322
:10238000A60420939D0480899189A289B3898093B2
:10239000AB049093AC04A093AD04B093AE0420932F
:1023A000D2048091CE0482FF42C0A29A8FEF809324
:1023B000050480910704882309F477C026B120958D
:1023C000221F2227221F81F18091D304882361F1EB
:1023D000E091AF04F091B00480859185A285B3852A
:1023E000181619061A061B06FCF4809194049091A5
:1023F0009504A0919604B09197048093A7049093BC
:10240000A804A093A904B093AA0481E080939C043B
:1024100080899189A289B3898093AB049093AC049D
:10242000A093AD04B093AE042093D3043EC0A29811
:1024300081E080930504809107048823B1F121E0B5
:10244000359B02C020E02FC08091D404882359F12D
:10245000E091AF04F091B00480859185A285B385A9
:10246000181619061A061B06F4F48091940490912C
:102470009504A0919604B09197048093A70490933B
:10248000A804A093A904B093AA0420939C04808973
:102490009189A289B3898093AB049093AC04A093F3
:1024A000AD04B093AE042093D4048091CE049FB7C2
:1024B000F89483FF08C080910B018F7E80930B01FD
:1024C0009FBF8FEF07C080910B01806180930B014C
:1024D0009FBF81E080930604C0E0D0E086C1809178
:1024E000C00087FF1AC06091C6008091E00A9091F9
:1024F000E10AAC014F5F5F4F4F7750702091E20AC5
:102500003091E30A4217530741F0805A954FFC017E
:1025100060835093E10A4093E00AE091AF04F091A8
:10252000B0044091BE045091BF046091C00470910A
:10253000C10480819181A281B381480F591F6A1F14
:102540007B1F4093BE045093BF046093C0047093FC
:10255000C104141615061606170644F5139A808949
:102560009189A289B389481B590B6A0B7B0B409355
:10257000BE045093BF046093C0047093C1041398C9
:1025800080918C0490918D04A0918E04B0918F0461
:1025900020910304820F911DA11DB11D80938C0415
:1025A00090938D04A0938E04B0938F04E091AF04B8
:1025B000F091B0044091C2045091C3046091C404EE
:1025C0007091C50484819581A681B781480F591FF8
:1025D0006A1F7B1F4093C2045093C3046093C404DA
:1025E0007093C504141615061606170644F5469A88
:1025F00080899189A289B389481B590B6A0B7B0B8F
:102600004093C2045093C3046093C4047093C50400
:1026100046988091900490919104A0919204B09179
:10262000930420910404820F911DA11DB11D80937C
:10263000900490939104A0939204B0939304E0913A
:10264000AF04F091B0044091C6045091C70460916A
:10265000C8047091C90480859185A285B385480F0F
:10266000591F6A1F7B1F4093C6045093C704609391
:10267000C8047093C904141615061606170644F507
:10268000409A80899189A289B389481B590B6A0BAA
:102690007B0B4093C6045093C7046093C8047093A7
:1026A000C90440988091940490919504A091960457
:1026B000B091970420910504820F911DA11DB11DB9
:1026C0008093940490939504A0939604B0939704F8
:1026D000E091AF04F091B0048091CA049091CB04D2
:1026E000A091CC04B091CD0444855585668577854D
:1026F000840F951FA61FB71F8093CA049093CB0425
:10270000A093CC04B093CD04181619061A061B0624
:102710000CF042C09FB7F89480910B0180648093C5
:102720000B019FBFE091AF04F091B0048091CA0407
:102730009091CB04A091CC04B091CD0440895189F3
:1027400062897389841B950BA60BB70B8093CA040F
:102750009093CB04A093CC04B093CD049FB7F8948E
:1027600080910B018F7B80930B019FBF8091980418
:1027700090919904A0919A04B0919B042091060431
:10278000820F911DA11DB11D80939804909399040F
:10279000A0939A04B0939B048091AB049091AC04F5
:1027A000A091AD04B091AE040196A11DB11D80931E
:1027B000AB049093AC04A093AD04B093AE048091AD
:1027C000AB049091AC04A091AD04B091AE042196FD
:1027D000E091AF04F091B004408951896289738916
:1027E00084179507A607B70738F48091B50490E0E1
:1027F000C817D9070CF473CE4091AB045091AC04C8
:102800006091AD047091AE04E091AF04F091B0041A
:1028100084899589A689B78984179507A607B7077C
:1028200008F4DCC00091BA041091BB042091BC04F0
:102830003091BD04448D558D668D778DAA27059FF7
:10284000B12D169FC001269F900D259F800D911DD3
:10285000069FB00D811D9A1F159FB00D811D9A1FF7
:10286000249FB00D811D9A1F149FB10D8A1F9A1FBE
:10287000B6958A1F9A1F112424AD35AD280F391F34
:102880003093B9042093B80480AD91ADA2ADB3AD3F
:10289000A90160E070E084179507A607B70720F448
:1028A0009093B9048093B8046091B8047091B9040E
:1028B000FCE961347F0728F42EE46132720748F0A6
:1028C00002C060E47CE9769567957695679584E02B
:1028D00007C087E26131780730F07695679582E02E
:1028E0008093B50408C081E08093B504603271051F
:1028F00010F460E270E06052704098E06030790758
:10290000E0F0272F30E0220F331F220F331F205B10
:102910003E4FF901329685919491AA27699FE00173
:10292000689FC10DDA1F0694CA1FDA1F1124F9012E
:10293000459154914C1B5D0B1FC0CB01969587951B
:102940008C7F805B9A4FFC01459154910296FC016B
:10295000A591B491862F90E087709070A89F900108
:10296000A99F300DB89F300D1124D3E036952795DF
:10297000DA95E1F7421B530B44365105A0F4E0E031
:10298000F2E006C09091C00095FFFCCF8093C60096
:1029900081918823B9F78FE59AE04AE050E00E94E0
:1029A000508044E650E0509389004093880060E0F6
:1029B00070E08091BA049091BB04A091BC04B091E6
:1029C000BD04840F951FA61FB71F8093BA04909370
:1029D000BB04A093BC04B093BD04F6C04091AB040B
:1029E0005091AC046091AD047091AE04808D918DD6
:1029F000A28DB38D84179507A607B70708F0DCC032
:102A00000091B1041091B2042091B3043091B40448
:102A1000448D558D668D778DAA27059FB12D169F04
:102A2000E001269FD00D259FC00DD11D069FB00D42
:102A3000C11DDA1F159FB00DC11DDA1F249FB00DF7
:102A4000C11DDA1F149FB10DCA1FDA1FB695CA1F28
:102A5000DA1F11248091B8049091B904E05CFF4F13
:102A60008C179D0718F48081918102C08C1B9D0BEF
:102A700040815181628173818C0120E030E0041734
:102A800015072607370708F4CA01ECE981349E07C9
:102A900028F4FEE481329F0748F002C080E49CE9FC
:102AA000969587959695879524E007C027E2813112
:102AB000920730F09695879522E02093B50408C0E0
:102AC00021E02093B5048032910510F480E290E07B
:102AD000BC016052704088E060307807E0F0272F3A
:102AE00030E0220F331F220F331F205B3E4FF901CE
:102AF000329685919491AA27699FE001689FC10D44
:102B0000DA1F0694CA1FDA1F1124F9014591549166
:102B10004C1B5D0B1FC0CB01969587958C7F805B0E
:102B20009A4FFC01459154910296FC01A591B491F4
:102B3000862F90E087709070A89F9001A99F300D1C
:102B4000B89F300D1124E3E036952795EA95E1F71B
:102B5000421B530B44365105A0F4E0E0F2E006C0FE
:102B60009091C00095FFFCCF8093C600819188238F
:102B7000B9F78FE59AE04AE050E00E94508044E6C1
:102B800050E0509389004093880060E070E08091AD
:102B9000B1049091B204A091B304B091B404840F35
:102BA000951FA61FB71F8093B1049093B204A09302
:102BB000B304B093B40408C08091B6049091B704F4
:102BC00090938900809388004091AB045091AC04AD
:102BD0006091AD047091AE04E091AF04F091B00447
:102BE00080899189A289B389481759076A077B07A9
:102BF00080F01092B0041092AF049091E60A809198
:102C0000E50A981731F08091E50A8F5F8F70809305
:102C1000E50AFF91EF91DF91CF91BF91AF919F9125
:102C20008F917F916F915F914F913F912F911F9164
:102C30000F910F900BBE0F900FBE0F901F90189525
:102C4000099A3C9A9A9AEAE0F1E080818061808357
:102C50008081846080830D9A159A0F9A179A3A9A08
:102C6000429A989AA09A8081826080839FB7F89454
:102C7000ABE0B1E08C9182608C939FBF0898109A72
:102C80000C98149A3F98479A0A98129A0E98169A96
:102C90003D98459A0B9A159A3E9A179A389A429AF5
:102CA000808180648083A09A8081816080839FB7C7
:102CB000F8948C9182608C939FBFA1E8B0E08C91D6
:102CC0008F7E8C938C9188608C93E0E8F0E080811B
:102CD0008D7F808380818E7F808380818F738083CE
:102CE00080818F7C80838C91887F82608C9380E050
:102CF00090E4909389008093880010928500109250
:102D00008400EFE6F0E080818260808381E0809340
:102D10000704789408959091E60A8091E50A98173F
:102D200041F00E94BE7581E00E942A2D0E94DA5E69
:102D3000F2CF0895CF93DF93EFB7F894EC01888139
:102D40009981AA81BB8180938C0490938D04A09378
:102D50008E04B0938F04EB0188819981AA81BB8195
:102D60008093900490939104A0939204B093930461
:102D7000EA0188819981AA81BB8180939404909310
:102D80009504A0939604B0939704E90188819981F2
:102D9000AA81BB818093980490939904A0939A048C
:102DA000B0939B04EFBFDF91CF9108952FB7F894B4
:102DB000FC0180819181A281B381809398049093DA
:102DC0009904A0939A04B0939B042FBF08950F9386
:102DD0001F939FB7F894E82FF0E0EE0FFF1FEE0F60
:102DE000FF1FE457FB4F00811181228133819FBF78
:102DF000B801C9011F910F9108950E948B1680E5BB
:102E000099E00E94A42C159A179A429AA09A0895C4
:102E100080916F008D7F80936F0006C08091E50ADE
:102E20008F5F8F708093E50A9091E60A8091E50AA2
:102E3000981751F41092B0041092AF0480916F0073
:102E4000826080936F0008959091E60A8091E50A70
:102E5000981751F3E3CFCF93DF93EC019C012C5FE4
:102E60003F4F898D9A8D41E050E060E070E00E9414
:102E70003E228823A1F08D899E89AF89B88D009765
:102E8000A105B10571F48C819D81AE81BF818D8BCF
:102E90009E8BAF8BB88F89818068898302C080E068
:102EA00001C081E0DF91CF910895CF92DF92EF9240
:102EB000FF920F931F93CF938C01FC01818992891C
:102EC000A389B489803EFFEF9F07FFE1AF07F0E0E1
:102ED000BF0708F079C0C8010E942B17882309F4A6
:102EE00073C00E943E20882309F46EC0D801599611
:102EF000ED91FC915A971496CD90DD90ED90FC9059
:102F000017978EEF9FEFAFEFBFEFC80ED91EEA1EE7
:102F1000FB1E058404C0CC0CDD1CEE1CFF1C0A94B7
:102F2000D2F786859785A089B189C80ED91EEA1E79
:102F3000FB1E81E08093DB04C092DE06D092DF06A8
:102F4000E092E006F092E10680E092E0EEEDF4E03F
:102F5000DF019C011D9221503040E1F7C1E011C01A
:102F6000B701A6014C0F511D611D711D8091DC043C
:102F70009091DD042EED34E00E940B0E882321F1A8
:102F8000CF5FD8015996ED91FC915A978481C8176B
:102F900038F380E092E0A0E0B0E0058404C0880F40
:102FA000991FAA1FBB1F0A94D2F7F80141895289C1
:102FB00063897489480F591F6A1F7B1F418B528B8D
:102FC000638B748B81E001C080E0CF911F910F91E2
:102FD000FF90EF90DF90CF900895CF93DF93EC01B7
:102FE0008C859D85AE85BF8541E0662309F440E070
:102FF000BC01CD010E947B20882351F0888990E09C
:1030000025E0880F991F2A95E1F782529B4F02C055
:1030100080E090E0DF91CF910895FC0190E080E0A6
:103020002EE23081303269F0983029F4DB01A80FAC
:10303000B11D2C938F5F3081DB01A80FB11D3C9334
:103040008F5F9F5F31969B3061F7680F711DFB01A9
:1030500010820895CF93DF93EB01FC01238122239B
:1030600089F02250223020F48FE28883198208C030
:1030700060E00E94ED17009729F0BE010E940D1834
:1030800081E001C080E0DF91CF910895CF93DF937D
:10309000EA01FB012BE030E231932150E9F7DC013A
:1030A00030E047E01CC04A3069F138E04AE017C020
:1030B000E21741F1FC010196E491EE23C9F74317B1
:1030C00008F12132F8F02F37E8F4FB01E30FF11D8E
:1030D000822F81568A3108F4205220833F5F9A2F35
:1030E0008B2F2D91222339F02F3229F02E32D9F255
:1030F0008AE599E0DFCF9883898381E0FB019081A5
:10310000903209F480E0DF91CF9108950F931F93DF
:10311000CF93DF93EC018B018B81882309F040C0B2
:10312000FB018789803109F041C082E08B831D8AD1
:103130001E8A1F8A188E808D918DA0E0B0E035E048
:10314000880F991FAA1FBB1F3A95D1F7898B9A8BBD
:10315000AB8BBC8B13C083E08B83F801428D538D06
:10316000648D758D4D8B5E8B6F8B788F9E012F5E7E
:103170003F4FC8010E943821882391F01A8F098F90
:1031800081E089831C821D821E821F821886198617
:103190001A861B861C861D861E861F86188A01C0FD
:1031A00080E0DF91CF911F910F9108958032C1F798
:1031B000D2CF2F923F924F925F926F927F928F92D7
:1031C0009F92AF92BF92CF92DF92EF92FF920F93B6
:1031D0001F93CF93DF9300D000D0CDB7DEB79C8391
:1031E0008B83662E272E2A01DC0113968C91139770
:1031F000882309F4D2C011968C91119780FFCDC01D
:10320000E7C02A01481A590A5201862C922CEB81F8
:10321000FC813496FA83E983212C02E0302EB7C07A
:10322000EB81FC8180859185A285B3857FEF672E38
:1032300071E0772E6822792223816C017D0119E0EB
:10324000F694E794D794C7941A95D1F7418D528D8F
:103250005E834D83223061F4DA015A964D915D917F
:103260006D917C915D974C0D5D1D6E1D7F1D4EC057
:10327000ED81FE81048101500C216114710411F56E
:10328000002301F50097A105B10559F4EB81FC81FC
:1032900085899689A789B08D84839583A683B78312
:1032A00011C0AB81BC8114964D915D916D917C9163
:1032B00017978D819E8129813A810E94B5208823AC
:1032C00009F46BC0AB81BC815996ED91FC915A9782
:1032D00014964D915D916D917C911797425050409D
:1032E00060407040058404C0440F551F661F771F5F
:1032F0000A94D2F786859785A089B189480F591F0E
:103300006A1F7B1F400F511D611D711DC101861970
:10331000970985018A159B0508F48C01B2E00030FD
:103320001B0709F073C08091DE069091DF06A09123
:10333000E006B091E106481759076A077B0709F4D0
:1033400065C08091DC049091DD0494010E94DF0C43
:10335000882341F422C0B30162527B4FC401A8010B
:103360000E9448AE800E911EA80160E070E0EB81E3
:10337000FC8180859185A285B385840F951FA61F4A
:10338000B71F80879187A287B387A01AB10AA114BB
:10339000B10409F045CFC20102C08FEF9FEF26961E
:1033A0000FB6F894DEBF0FBECDBFDF91CF911F9156
:1033B0000F91FF90EF90DF90CF90BF90AF909F90D4
:1033C0008F907F906F905F904F903F902F900895D7
:1033D000AB81BC8151964D915D916D917C915497DB
:1033E00018968D919D910D90BC91A02D820120E0A9
:1033F00030E06A017B01C81AD90AEA0AFB0A0C15F7
:103400001D052E053F0508F0FCCEFECECB01BA010E
:1034100040E00E947B20882309F09DCFBECFCF9350
:10342000DF930F92CDB7DEB7BE016F5F7F4F41E0F4
:1034300050E00E94D9188130910519F4898190E0FB
:1034400002C08FEF9FEF0F90DF91CF9108950F9300
:103450001F93CF93DF938C01EB01FC0183818230BA
:1034600020F180859185A285B3858F719070A070C1
:10347000B0700097A105B105C1F4C801BE0140E2DA
:1034800050E00E94D9188032910519F0009769F434
:103490000EC08881882359F0853E79F38E3269F316
:1034A0008B8583FDEACF80E203C08FEF01C080E00F
:1034B000DF91CF911F910F910895CF92DF92EF92FC
:1034C000FF92CF93DF93EC018B81823038F1C88477
:1034D000D984EA84FB84CE010E940F1A97FD1EC096
:1034E00088859985AA85BB854F96A11DB11D8887C2
:1034F0009987AA87BB87D701C60125E0B695A7950E
:10350000979587952A95D1F78F7090E035E0880FD1
:10351000991F3A95E1F782529B4F02C080E090E0FC
:10352000DF91CF91FF90EF90DF90CF9008958F9231
:103530009F92AF92BF92CF92DF92EF92FF920F9342
:103540001F93CF93DF93EC014A015B012B81222370
:1035500009F475C089899A89AB89BC898417950754
:10356000A607B70708F46BC078C081149104A104C2
:10357000B10449F41C821D821E821F82188619869E
:103580001A861B865AC0488559856A857B85E98DD0
:10359000FA8D258530E0275F3F4FDB01CA01019797
:1035A000A109B109022E04C0B695A79597958795F4
:1035B0000A94D2F7750164010894C108D108E108A2
:1035C000F10804C0F694E794D794C7942A95D2F7EB
:1035D000C816D906EA06FB0628F041155105610513
:1035E000710549F48D899E89AF89B88D8C839D833F
:1035F000AE83BF8316C0C81AD90AEA0AFB0A11C0F3
:103600004C815D816E817F81898D9A8D98010E94A8
:10361000B5200894C108D108E108F108882321F4F5
:103620000EC08E010C5F1F4FC114D104E104F104E0
:1036300039F788869986AA86BB8681E001C080E03A
:10364000DF91CF911F910F91FF90EF90DF90CF907E
:10365000BF90AF909F908F900895223009F085CF52
:10366000E8CF40E050E060E070E00E94971A0895D3
:103670000F931F93CF93DF938C01FC0183818823E9
:10368000C9F1818187FF33C0C80161E00E94ED1755
:10369000EC01009779F18881853E61F1F801838121
:1036A000823040F481899289A389B4898C8F9D8F5F
:1036B000AE8FBF8FF80185899689A789B08D9B8FC2
:1036C0008A8FBD8BAC8BE091D504F091D6043097F6
:1036D00051F0BE016A5E7F4FCE0148961995888DE4
:1036E000998D9B8B8A8BF80181818F7781830E94D2
:1036F0003E2004C081E0F801808380E0DF91CF911B
:103700001F910F910895CF93DF93EC010E94381B16
:103710001B82DF91CF910895CF93DF93EC018B81D2
:10372000882321F0CE010E94381B1B82DF91CF91AC
:1037300008954F925F926F927F928F929F92AF9275
:10374000BF92EF92FF920F931F93CF93DF9300D01E
:103750000F92CDB7DEB77C014A015B01FC0183818A
:10376000813009F085C0818181FF82C095C00097BA
:10377000A105B10509F47AC0F7014084518462843F
:103780007384C701B501A4010E94971A882309F424
:103790006FC0F701818D928D81149104A104B10451
:1037A00079F4458956896789708D0E944F23882353
:1037B00009F45EC0F701158A168A178A108E3CC07C
:1037C000F70144815581668177819E012F5F3F4FCC
:1037D0000E94B520882309F44BC0F701818D928D9A
:1037E00049815A816B817C81FC012789203149F410
:1037F000483FFFEF5F07F0E06F07F0E07F07E0F47E
:1038000008C0483F2FEF52072FEF62072FE07207E3
:1038100098F40E944F23882359F1F7014481558180
:1038200066817781818D928D0FEF1FEF2FEF3FE043
:103830000E94A6218823E1F0F701818A928AA38A57
:10384000B48A818180688183C7010E94381B8823E4
:1038500079F0B501A401481459046A047B0410F4FA
:10386000B301A201C7010E94971A03C081E001C001
:1038700080E00F900F900F900F90DF91CF911F91EC
:103880000F91FF90EF90BF90AF909F908F907F909F
:103890006F905F904F900895F70181899289A38975
:1038A000B48984179507A607B70708F060CFE0CF63
:1038B000CF93DF93EC0140E050E060E070E00E94C5
:1038C000991B882369F0CE0161E00E94ED170097F3
:1038D00039F025EEFC0120831B820E943E2001C0AE
:1038E00080E0DF91CF9108951F93CF93DF93EC0198
:1038F000142FE62FF0E035E0EE0FFF1F3A95E1F7C9
:10390000E252FB4F8385817121F0842F827109F08F
:103910005DC08091DE069091DF06A091E006B09137
:10392000E1068C879D87AE87BF87688B4489558960
:1039300060E070E0BA0155274427828D938DA0E0A6
:10394000B0E0482B592B6A2B7B2B4D8B5E8B6F8BFA
:10395000788F838590E088719070009751F4848D02
:10396000958DA68DB78D898B9A8BAB8BBC8B81E0A7
:103970000DC08031910551F59E012F5E3F4F898D1D
:103980009A8D0E943821882309F184E08B83812F4E
:103990008F7089831C821D821E821F821886198661
:1039A0001A861B8614FF18C0CE0140E050E060E08C
:1039B00070E00E94991B882351F00EC049895A89F2
:1039C0006B897C89CE010E94971A02C01B8280E01D
:1039D000DF91CF911F91089515FDF0CF81E0F8CFD1
:1039E0007F928F929F92AF92BF92CF92DF92EF928F
:1039F000FF920F931F93CF93DF935C01EB01942E03
:103A0000852E722E898D9A8DF501928F818FCB0133
:103A10000E94311B10E037C0CE010E945D1ABC012C
:103A2000009709F490C0D701C60135E0B695A79577
:103A3000979587953A95D1F7082F0F70FB018081F4
:103A4000882311F0853EB1F4112379F48091DE06CC
:103A50009091DF06A091E006B091E106F501848720
:103A60009587A687B787008B11E0FB0180818823AB
:103A700051F417C0892D982D4BE050E00E943BAEC9
:103A8000009709F46FC0C884D984EA84FB848989CB
:103A90009A89AB89BC89C816D906EA06FB0608F4E0
:103AA000BBCF76FE50C071FE4EC0112351F0F50120
:103AB0000089C50161E00E94ED17EC01009769F4EF
:103AC00042C08B81823009F43EC0CE010E9455175E
:103AD0008823C9F1CEEDD4E000E080E2FE0111922E
:103AE0008A95E9F7FE01A92DB82D8BE00D90019282
:103AF0008150E1F7E091D504F091D604309739F088
:103B0000BE01625F7F4FCE014096199508C081E2E9
:103B100098E2998B888B80E098E09F878E878889D0
:103B200099899B8B8A8B998F888F8E859F859F8B98
:103B30008E8B0E943E20882331F0C501602F472DD7
:103B40000E94741C01C080E0DF91CF911F910F9102
:103B5000FF90EF90DF90CF90BF90AF909F908F90AD
:103B60007F90089577FEE9CFEECF5F926F927F92BC
:103B70008F929F92AF92BF92CF92DF92EF92FF927D
:103B80000F931F93CF93DF93CDB7DEB7C354D040CD
:103B90000FB6F894DEBF0FBECDBF4C016B0124966B
:103BA0005FAF4EAF2497522E1FA21AA61C861F8607
:103BB0006115710509F47AC0FC018381882309F03D
:103BC00075C0FA0180818F3291F405C03196249638
:103BD000FFAFEEAF24972496EEADFFAD2497808122
:103BE0008F32A1F3F60183818250823050F4860136
:103BF00057E2E52EF12CEC0EFD1E3701BE2CAF2C4A
:103C000011C0F601618D728DCE010C960E9486184E
:103C1000882309F44BC08E01045F1F4FE9CF870151
:103C2000EB2CFA2C24968EAD9FAD2497BE016F5FCE
:103C30007F4FAE014E5B5F4F0E944618882331F4E0
:103C400035C031962496FFAFEEAF24972496EEADA3
:103C5000FFAD249780818F32A1F38823E9F0C7015B
:103C6000B801AE014F5F5F4F21E00E94F01C882336
:103C7000E9F00C151D0529F0C8010E94381BF80158
:103C80001382E614F70459F64CE0E42EF12CEC0E06
:103C9000FD1E0B2D1A2DC6CFC401B801AE014F5F1A
:103CA0005F4F252D0E94F01C082F01C000E0CE01BF
:103CB0000C960E948C1BCE0187960E948C1B802F35
:103CC000CD5BDF4F0FB6F894DEBF0FBECDBFDF91E7
:103CD000CF911F910F91FF90EF90DF90CF90BF9009
:103CE000AF909F908F907F906F905F9008951F93FB
:103CF000CF93DF93CDB7DEB76B970FB6F894DEBFE7
:103D00000FBECDBF9C01AB0119821C82CE01019672
:103D1000B90122E00E94B51D882331F0CE01019641
:103D20000E94581C182F01C010E0CE0101960E947D
:103D30008C1B812F6B960FB6F894DEBF0FBECDBFE4
:103D4000DF91CF911F9108952F923F924F925F92F2
:103D50006F927F928F929F92BF92CF92DF92EF925B
:103D6000FF920F931F93CF93DF9300D000D0CDB776
:103D7000DEB78C01B62EC72E5E834D83DC01139611
:103D80008C911397813009F059C111968C9111973C
:103D900081FF54C170C1F8014189528963897489D6
:103DA00080859185A285B38584179507A607B707F7
:103DB00031F0C8010E94971A882309F43FC14D8051
:103DC0005E802B2C3C2C07C1F801218D328DF9012E
:103DD000B480BA94AC01BD01032E39E076956795A5
:103DE000579547953A95D1F7302DB4224FEF642E71
:103DF00041E0742E68227922BB2009F04BC0611487
:103E0000710409F047C0D80114964D915D916D91F0
:103E10007C911797411551056105710559F4559627
:103E20008D919D910D90BC91A02D0097A105B1059C
:103E300061F525C0C9019E012F5F3F4F0E94B5204B
:103E4000882309F4FBC089819A81AB81BC81F80188
:103E5000218D328DF9012789203149F4883FFFEF08
:103E60009F07F0E0AF07F0E0BF0748F40EC0883FBF
:103E70002FEF92072FEFA2072FE0B20730F0C80113
:103E80000E942B17882331F4D9C0F80184839583CD
:103E9000A683B78380E092E08619970942018415D2
:103EA000950508F44C01D8015996ED91FC915A976B
:103EB0001496CD90DD90ED90FC9017978EEF9FEFCC
:103EC000AFEFBFEFC80ED91EEA1EFB1E058404C06B
:103ED000CC0CDD1CEE1CFF1C0A94D2F7868597855E
:103EE000A089B189C80ED91EEA1EFB1ECB0CD11CBD
:103EF000E11CF11C90E0891692E0990639F5809159
:103F0000DE069091DF06A091E006B091E1068C15E7
:103F10009D05AE05BF0571F41092DB048FEF9FEF96
:103F2000AFEFBFEF8093DE069093DF06A093E0062D
:103F3000B093E1068091DC049091DD04B701A60105
:103F400091010E940B0E882391F578C061147104D1
:103F5000F9F4F80180859185A285B385418952895C
:103F60006389748984179507A607B70788F00E94AC
:103F70003E20882309F462C081E08093DB04C09274
:103F8000DE06D092DF06E092E006F092E10608C07D
:103F9000C701B60141E00E947B20882309F44EC08E
:103FA000C30182529B4FB101A4010E9448AEA401FB
:103FB00060E070E0F80180859185A285B385840F6B
:103FC000951FA61FB71F80879187A287B387280CEC
:103FD000391C48185908F80180859185A285B38558
:103FE0004114510409F0F0CE4189528963897489E2
:103FF000481759076A077B0740F4818B928BA38B84
:10400000B48B8181806881830DC08091D5049091AB
:10401000D604009739F08D819E81009719F0818137
:1040200080688183F801818183FF05C0C8010E94F7
:10403000381B882319F08D819E8105C081E0D8014D
:104040008C938FEF9FEF26960FB6F894DEBF0FBECE
:10405000CDBFDF91CF911F910F91FF90EF90DF9037
:10406000CF90BF909F908F907F906F905F904F9078
:104070003F902F90089582FD8ECEA1CE8091DB04DB
:10408000882399F14091DE065091DF066091E006A9
:104090007091E1068091DC049091DD042EED34E016
:1040A0000E940B0E882319F14091D7045091D80437
:1040B0006091D9047091DA044115510561057105CB
:1040C00091F08091DC049091DD042EED34E00E94AB
:1040D0000B0E882371F01092D7041092D80410921E
:1040E000D9041092DA041092DB0481E0089580E094
:1040F000089580E00895CF92DF92EF92FF92CF93E0
:104100006B017C01C42F8091DE069091DF06A091A7
:10411000E006B091E1068C159D05AE05BF05C1F026
:104120000E943E208823D1F08091DC049091DD0430
:10413000B701A6012EED34E00E94DF0C882371F058
:10414000C092DE06D092DF06E092E006F092E10631
:1041500081E0CC2321F08093DB0401C080E0CF918B
:10416000FF90EF90DF90CF900895CF92DF92EF9283
:10417000FF920F931F93CF93DF93EC016A017B01B2
:10418000890189859A85AB85BC850196A11DB11DE4
:1041900084179507A607B70708F460C08F89803198
:1041A00029F4BB27AF2D9E2D8D2D0CC0803209F038
:1041B00055C0DB01CA0147E0B695A795979587954D
:1041C0004A95D1F74B895C896D897E89840F951F4B
:1041D000A61FB71F4091DE065091DF066091E006F2
:1041E0007091E10684179507A607B70739F0BC015F
:1041F000CD0140E00E947B20882381F18F898031AE
:1042000091F48FEF90E0A0E0B0E0C822D922EA223A
:10421000FB22F601EE0FFF1FE252FB4F80819181DE
:10422000A0E0B0E014C08FE790E0A0E0B0E0C822CA
:10423000D922EA22FB22F601EE0FFF1FEE0FFF1F2D
:10424000E252FB4F80819181A281B381BF70F8015E
:1042500080839183A283B38381E001C080E0DF91FA
:10426000CF911F910F91FF90EF90DF90CF90089525
:104270006F927F928F929F92AF92BF92CF92DF9276
:10428000EF92FF920F931F93CF93DF9300D00F9283
:10429000CDB7DEB78C0149835A836B837C833901A8
:1042A000CC24DD247601812CE2E09E2EA12CB12CC1
:1042B00049815A816B817C81C8019E012F5F3F4FEC
:1042C0000E94B520882371F1D501C401F80105844D
:1042D00004C0880F991FAA1FBB1F0A94D2F7C80EEB
:1042E000D91EEA1EFB1E89819A81AB81BC81278978
:1042F000203149F4883FFFEF9F07F0E0AF07F0E07F
:10430000BF0748F4D5CF883F2FEF92072FEFA207C2
:104310002FE0B20768F2F301C082D182E282F38219
:1043200081E001C080E00F900F900F900F90DF911F
:10433000CF911F910F91FF90EF90DF90CF90BF90A2
:10434000AF909F908F907F906F9008954F925F9263
:104350006F927F928F929F92AF92BF92CF92DF9295
:10436000EF92FF920F931F93CF93DF93EC014A01DB
:104370005B0128013901423051056105710508F4DE
:104380006BC089859A85AB85BC850196A11DB11D41
:1043900084179507A607B70708F45EC08F89803198
:1043A00029F4C52ED62EE72EFF240CC0803209F04A
:1043B00053C06A017B0187E0F694E794D794C794D1
:1043C0008A95D1F78B899C89AD89BE89C80ED91E83
:1043D000EA1EFB1EC701B60141E00E947B20882334
:1043E000D9F18F89803181F48FEF90E0A0E0B0E0C7
:1043F00088229922AA22BB22F401EE0FFF1FE2526B
:10440000FB4F5182408213C08FE790E0A0E0B0E004
:1044100088229922AA22BB22F401EE0FFF1FEE0F81
:10442000FF1FE252FB4F40825182628273828A896F
:10443000823080F08D819E81AF81B8858C0D9D1D6D
:10444000AE1DBF1D8093D7049093D804A093D904C8
:10445000B093DA0481E001C080E0DF91CF911F9139
:104460000F91FF90EF90DF90CF90BF90AF909F9013
:104470008F907F906F905F904F9008952F923F9212
:104480004F925F926F927F928F929F92AF92BF9264
:10449000CF92DF92EF92FF920F931F93CF93DF9310
:1044A000CDB7DEB72F970FB6F894DEBF0FBECDBFE6
:1044B0001C014C875D876E877F873B872A87DC01DD
:1044C00019962D913D914D915C911C972F5F3F4F17
:1044D0004F4F5F4F2E833F8348875987EA85FB857F
:1044E00040805180628073804114510461047104E2
:1044F00031F00894411C511C611C711C10C0DC017E
:104500004D905D906D907C90B1E0BD832C853D8594
:104510004E855F85213031054105510509F01D8229
:1045200053014201CC24DD247601F101818592857D
:10453000A385B485C816D906EA06FB0608F093C021
:104540002E813F8148855985281539054A055B0527
:1045500050F422E0822E912CA12CB12C32E0432E7B
:10456000512C612C712CC101B501A4019E012F5F5A
:104570003F4F0E94B520882309F475C049815A81B4
:104580006B817C81D501C4010196A11DB11D41152E
:1045900051056105710519F02C013D010DC084190B
:1045A0009509A609B7092C853D854E855F8582173B
:1045B0009307A407B50759F00894C11CD11CE11C4E
:1045C000F11C0894811C911CA11CB11CAECFC1012F
:1045D000A401B5010FEF1FEF2FEF3FE00E94A621CE
:1045E000882391F440C0680179010894C108D1087A
:1045F000E108F108C101B701A6010E94A6218823A4
:1046000091F19701860102C095018401401651067F
:104610006206730640F3AA85BB854D915D916D914D
:104620007C911397411551056105710539F0C10160
:10463000930182010E94A6218823A9F0EA85FB85C7
:104640004082518262827382FD81FF2371F008945F
:10465000411C511C611C711CD1014D925D926D92E7
:104660007C92139702C080E001C081E02F960FB6C4
:10467000F894DEBF0FBECDBFDF91CF911F910F9198
:10468000FF90EF90DF90CF90BF90AF909F908F9072
:104690007F906F905F904F903F902F900895AF92D2
:1046A000BF92CF92DF92EF92FF920F931F93CF931F
:1046B000DF9300D00F92CDB7DEB75C016A017B01BA
:1046C00082E090E0A0E0B0E0F50180839183A283D6
:1046D000B383C501B701A6019E012F5F3F4F0E9422
:1046E000B520882341F1C501B701A60100E010E023
:1046F00020E030E00E94A6218823E9F0C980DA801A
:10470000EB80FC80F5018789803151F4F8EFCF16FA
:10471000FFEFDF06F0E0EF06F0E0FF0650F4D9CF40
:1047200088EFC8168FEFD8068FEFE8068FE0F806FF
:1047300080F281E001C080E00F900F900F900F9009
:10474000DF91CF911F910F91FF90EF90DF90CF906D
:10475000BF90AF9008956F927F928F929F92AF9289
:10476000BF92CF92DF92EF92FF921F93CF93DF938E
:10477000EC01142F7093DD046093DC041F8A82E047
:1047800090E0A0E0B0E088839983AA83BB83109275
:10479000DB041092D7041092D8041092D90410921E
:1047A000DA048FEF9FEFAFEFBFEF8093DE069093B9
:1047B000DF06A093E006B093E106442389F145307B
:1047C00008F008C160E070E080E090E040E00E9406
:1047D0007B20882309F4FEC0E12FF0E0A4E0EE0F77
:1047E000FF1FAA95E1F7E457F94F808190E08F779A
:1047F0009070009709F0EEC084859585A685B785F1
:1048000084369105A105B10508F4E4C08084918443
:10481000A284B38481149104A104B10421F4DAC008
:10482000882499245401C501B40140E00E947B20F2
:10483000882309F4CFC08091E9049091EA0422E032
:104840008030920709F0C6C03091EE04332309F49A
:10485000C1C08091EC049091ED04009709F4BAC0B6
:104860002091EB04222309F4B5C03A8B2C831D86DA
:1048700030E041E050E006C0812F8F5F8D87183017
:1048800008F0A8C01D85CA01012E02C0880F991F1B
:104890000A94E2F72817390779F78091F404909188
:1048A000F504009719F0A0E0B0E008C0809102057F
:1048B00090910305A0910405B09105058D839E8319
:1048C000AF83B8872091EC043091ED046901EE24A8
:1048D000FF24C80CD91CEA1CFB1CCB8ADC8AED8A9D
:1048E000FE8A6090EF047090F004798E688E2091BB
:1048F000EE0430E040E050E0BC01CD010E94CEAAC1
:10490000DC01CB018C0D9D1DAE1DBF1D8A8F9B8FC1
:10491000AC8FBD8FA301E5E0440F551FEA95E1F789
:1049200041505E4F452F5527469560E070E0480F97
:10493000591F6A1F7B1F4E875F87688B798B809119
:10494000F1049091F204009719F0A0E0B0E008C0E3
:104950008091FE049091FF04A0910005B0910105A3
:10496000841A950AA60AB70A880E991EAA1EBB1EAB
:1049700004C0B694A794979487941A95D2F7898621
:104980009A86AB86BC8685EF88168FE0980680E015
:10499000A80680E0B80618F48CE08F8B1BC025EFCA
:1049A00082162FEF920620E0A20620E0B20610F455
:1049B00080E10DC080910A0590910B05A0910C0536
:1049C000B0910D058A8F9B8FAC8FBD8F80E28F8B4E
:1049D00081E001C080E0DF91CF911F91FF90EF90C7
:1049E000DF90CF90BF90AF909F908F907F906F900F
:1049F0000895CF93DF930F92CDB7DEB76983049606
:104A0000BE016F5F7F4F41E050E00E94A41E0F90F7
:104A1000DF91CF910895DB010D900020E9F7AD0102
:104A200041505040461B570B04960E94A41E089507
:104A3000CF93DF93CAE6D9E0FE0107C09091C00092
:104A400095FFFCCF8093C600319684918823B1F7FF
:104A5000EDE9FAE007C09091C00095FFFCCF80938C
:104A6000C600319684918823B1F78091C00085FFFC
:104A7000FCCF8AE08093C600FE018491EAE6F9E06B
:104A800008C09091C00095FFFCCF8093C60031967E
:104A900084918823B1F7EDEAFAE007C09091C00055
:104AA00095FFFCCF8093C600319684918823B1F79F
:104AB0004091031050910410609105107091061000
:104AC0008FE59AE022E030E00E942B81E5EBFAE0EE
:104AD00007C09091C00095FFFCCF8093C60031962F
:104AE00084918823B1F7409107105091081060918C
:104AF000091070910A108FE59AE022E030E00E94E0
:104B00002B81E8EBFAE007C09091C00095FFFCCF45
:104B10008093C600319684918823B1F740910B10A1
:104B200050910C1060910D1070910E108FE59AE06D
:104B300022E030E00E942B81EBEBFAE007C090917D
:104B4000C00095FFFCCF8093C600319684918823E6
:104B5000B1F740910F1050911010609111107091A9
:104B600012108FE59AE022E030E00E942B818091C4
:104B7000C00085FFFCCF8AE08093C600FE018491CF
:104B8000EAE6F9E008C09091C00095FFFCCF809361
:104B9000C600319684918823B1F7EEEBFAE007C0A6
:104BA0009091C00095FFFCCF8093C6003196849110
:104BB0008823B1F78091C00085FFFCCF8AE0809305
:104BC000C600FE018491EAE6F9E008C09091C000B9
:104BD00095FFFCCF8093C600319684918823B1F76E
:104BE000E8EDFAE007C09091C00095FFFCCF8093FC
:104BF000C600319684918823B1F7409113105091EB
:104C0000141060911510709116108FE59AE022E053
:104C100030E00E942B81E1EEFAE007C09091C000E5
:104C200095FFFCCF8093C600319684918823B1F71D
:104C300040911710509118106091191070911A102E
:104C40008FE59AE022E030E00E942B81E4EEFAE06A
:104C500007C09091C00095FFFCCF8093C6003196AD
:104C600084918823B1F740911B1050911C106091E2
:104C70001D1070911E108FE59AE022E030E00E9436
:104C80002B81E7EEFAE007C09091C00095FFFCCFC2
:104C90008093C600319684918823B1F740911F100C
:104CA0005091201060912110709122108FE59AE0B0
:104CB00022E030E00E942B818091C00085FFFCCF74
:104CC0008AE08093C600FE018491EAE6F9E008C01C
:104CD0009091C00095FFFCCF8093C60031968491DF
:104CE0008823B1F7EAEEFAE007C09091C00095FF83
:104CF000FCCF8093C600319684918823B1F78091D0
:104D0000C00085FFFCCF8AE08093C600FE0184913D
:104D1000EAE6F9E008C09091C00095FFFCCF8093CF
:104D2000C600319684918823B1F7E8E0FBE007C024
:104D30009091C00095FFFCCF8093C600319684917E
:104D40008823B1F74091F30F5091F40F6091F50F64
:104D50007091F60F8FE59AE02AE030E00E94E57F3F
:104D6000E1E1FBE007C09091C00095FFFCCF80938C
:104D7000C600319684918823B1F74091F70F509186
:104D8000F80F6091F90F7091FA0F8FE59AE02AE021
:104D900030E00E94E57FE4E1FBE007C09091C000B5
:104DA00095FFFCCF8093C600319684918823B1F79C
:104DB0004091FB0F5091FC0F6091FD0F7091FE0F21
:104DC0008FE59AE02AE030E00E94E57FE7E1FBE032
:104DD00007C09091C00095FFFCCF8093C60031962C
:104DE00084918823B1F74091FF0F5091001060919A
:104DF0000110709102108FE59AE02AE030E00E94E5
:104E0000E57F8091C00085FFFCCF8AE08093C600DB
:104E1000FE018491EAE6F9E008C09091C00095FF98
:104E2000FCCF8093C600319684918823B1F7EAE1E4
:104E3000FBE007C09091C00095FFFCCF8093C600B7
:104E4000319684918823B1F78091C00085FFFCCF13
:104E50008AE08093C600FE018491EAE6F9E008C08A
:104E60009091C00095FFFCCF8093C600319684914D
:104E70008823B1F7EFE4FBE007C09091C00095FFF5
:104E8000FCCF8093C600319684918823B1F740917E
:104E9000EB0F5091EC0F6091ED0F7091EE0F8FE5DD
:104EA0009AE022E030E00E942B81E8E5FBE007C0B9
:104EB0009091C00095FFFCCF8093C60031968491FD
:104EC0008823B1F74091E70F5091E80F6091E90F07
:104ED0007091EA0F8FE59AE022E030E00E942B818A
:104EE0008091C00085FFFCCF8AE08093C600FE0160
:104EF0008491EAE6F9E008C09091C00095FFFCCFEC
:104F00008093C600319684918823B1F7EBE5FBE0EE
:104F100007C09091C00095FFFCCF8093C6003196EA
:104F200084918823B1F78091C00085FFFCCF8AE08F
:104F30008093C600FE018491EAE6F9E008C09091F2
:104F4000C00095FFFCCF8093C600319684918823E2
:104F5000B1F7E4EFFBE007C09091C00095FFFCCFF4
:104F60008093C600319684918823B1F74091EF0F6A
:104F70005091F00F6091F10F7091F20F8FE59AE070
:104F800022E030E00E942B81EDEFFBE007C0909122
:104F9000C00095FFFCCF8093C60031968491882392
:104FA000B1F74091D70F5091D80F6091D90F709100
:104FB000DA0F8FE59AE022E030E00E942B81E0E0FA
:104FC000FCE007C09091C00095FFFCCF8093C60025
:104FD000319684918823B1F7409123105091241089
:104FE00060912510709126108FE59AE02AE030E05C
:104FF0000E94E57FE3E0FCE007C09091C00095FFD0
:10500000FCCF8093C600319684918823B1F74091FC
:10501000E30F5091E40F6091E50F7091E60F8FE57B
:105020009AE022E030E00E942B81E6E0FCE007C03D
:105030009091C00095FFFCCF8093C600319684917B
:105040008823B1F74091DF0F5091E00F6091E10F9D
:105050007091E20F8FE59AE022E030E00E942B8110
:10506000E9E0FCE007C09091C00095FFFCCF809381
:10507000C600319684918823B1F74091DB0F50919F
:10508000DC0F6091DD0F7091DE0F8FE59AE022E07A
:1050900030E00E942B818091C00085FFFCCF8AE028
:1050A0008093C600FE018491EAE6F9E008C0909181
:1050B000C00095FFFCCF8093C60031968491882371
:1050C000B1F7ECE0FCE007C09091C00095FFFCCF89
:1050D0008093C600319684918823B1F78091C000F7
:1050E00085FFFCCF8AE08093C600FE01C491EAE60A
:1050F000F9E008C08091C00085FFFCCFC093C600D6
:105100003196C491CC23B1F7EAE1FCE007C090915D
:10511000C00095FFFCCF8093C60031968491882310
:10512000B1F7409136045091370460913804709182
:1051300039048FE59AE022E030E00E942B81E4E21E
:10514000FCE007C09091C00095FFFCCF8093C600A3
:10515000319684918823B1F76091320470913304C1
:1051600080913404909135042FE632E143E05EE310
:105170000E943AA7AB01BC018FE59AE022E030E043
:105180000E942B81E7E2FCE007C09091C00095FFF0
:10519000FCCF8093C600319684918823B1F760914B
:1051A0002E0470912F0480913004909131042FE6E9
:1051B00032E143E05EE30E9408AAAB01BC018FE547
:1051C0009AE022E030E00E942B818091C00085FFB0
:1051D000FCCF8AE08093C600DF91CF910895CF93F2
:1051E000DF930F920F92CDB7DEB78091541090915C
:1051F00055109E012F5F3F4F009719F42A553041FB
:1052000002C0281B390B3A83298389819A810F9028
:105210000F90DF91CF910895BC0180910808909183
:105220000908843091050CF06EC020910A08309175
:105230000B0840E650E0249FC001259F900D349F4D
:10524000900D1124845F974F0E9467AEEAE6F9E063
:1052500007C09091C00095FFFCCF8093C6003196A7
:1052600084918823B1F7E0E7F9E007C09091C0008E
:1052700095FFFCCF8093C600319684918823B1F7C7
:1052800020910A0830910B0880E690E0289FF001F9
:10529000299FF00D389FF00D1124E45FF74F06C0F1
:1052A0009091C00095FFFCCF8093C6008191882328
:1052B000B9F7EBE7F9E007C09091C00095FFFCCF8C
:1052C0008093C600319684918823B1F78091C00005
:1052D00085FFFCCF8AE08093C60080910A089091F8
:1052E0000B08019664E070E00E9401AB90930B08FC
:1052F00080930A088091080890910908019690937C
:105300000908809308080895809A889A0895809AD9
:10531000889808958091960990919709019660E088
:1053200070E00E9455AB462F572F682F792FCB0185
:10533000BA0108958091960990919709019660E0CD
:1053400070E04AE050E00E94D4AC0895682FE091EC
:105350009009F091910940E650E0E49F9001E59FAB
:10536000300DF49F300D1124C901845F974F70E018
:105370000E945CAE9C01909397098093960981E00E
:105380002115310509F480E008950E9425A3DC0170
:10539000CB018093A8099093A909A093AA09B0937F
:1053A000AB09E0919009F0919109E457F64F8081A3
:1053B0008823A1F4EDE3FFE007C09091C00095FFC2
:1053C000FCCF8093C600319684918823B1F78091F9
:1053D000C00085FFFCCF8AE08093C60008958FE56A
:1053E0009AE00E945E7FE5E3FFE007C09091C00075
:1053F00095FFFCCF8093C600319684918823B1F746
:1054000040919C0950919D0960919E0970919F095E
:105410004F5F5F4F6F4F7F4F8FE59AE02AE030E09C
:105420000E94FA7F8091C00085FFFCCF8AE08093C4
:10543000C6000E94C52908956F927F928F929F9215
:10544000AF92BF92CF92DF92EF92FF920F931F9392
:10545000CF9385E4682E84E0782E0DE017E090EB82
:10546000C92E99E0D92E20E2E22E27E0F22EC0E0EC
:10547000F30181913F010E94A629882309F10E942E
:105480008A294B015C01F7018081882319F460911E
:10549000C00901C061E070E080E090E00E94D5A703
:1054A000F80120813181428153810E9408AA9B0129
:1054B000AC01C501B4010E945AA6DC01CB0105C0B4
:1054C000F80180819181A281B381F601808391836B
:1054D000A283B383CF5F0C5F1F4F84E090E0C80EC0
:1054E000D91E0894E11CF11CC43011F686E40E9418
:1054F000A6298823E1F00E948A296B017C01609330
:10550000CA097093CB098093CC099093CD0920E010
:1055100030E040E050E00E9436A9181644F4C092F2
:105520001C04D0921D04E0921E04F0921F04CF913F
:105530001F910F91FF90EF90DF90CF90BF90AF90B1
:105540009F908F907F906F9008950E941C2A89E40D
:105550000E94A629882329F00E948A29DC01CB0118
:1055600004C080E090E0A0E0B0E08093CE0990938A
:10557000CF09A093D009B093D1098AE40E94A6294B
:10558000882329F00E948A29DC01CB0104C080E035
:1055900090E0A0E0B0E08093D2099093D309A0936B
:1055A000D409B093D50908958F929F92AF92BF927C
:1055B000CF92DF92EF92FF920F931F93CF93DF93DF
:1055C0000E9425A3DC01CB018093A8099093A9092F
:1055D000A093AA09B093AB0960910A0470910B04DF
:1055E000C0EBD9E034E0C32ED12CCC0EDD1E48E058
:1055F000A42EB12CAC0EBD1E5CE0852E912C8C0E21
:105600009D1E882777FD8095982F0E94D5A7209111
:105610001C0430911D0440911E0450911F040E94EF
:1056200008AA20E030E040E752E40E943AA720E0D8
:1056300030E048EC52E40E943AA77B018C01CE0195
:10564000B601A5019401E0E0CE2EE7E0DE2E0E9437
:105650000C948091B0099091B109A091B209B091D8
:10566000B30980930D0790930E07A0930F07B09393
:1056700010078091B4099091B509A091B609B09135
:10568000B7098093110790931207A0931307B09363
:1056900014078091B8099091B909A091BA09B09105
:1056A000BB098093150790931607A0931707B09333
:1056B00018078091BC099091BD09A091BE09B091D5
:1056C000BF098093190790931A07A0931B07B09303
:1056D0001C07DF91CF911F910F91FF90EF90DF900A
:1056E000CF90BF90AF909F908F9008954F925F9210
:1056F0006F927F92AF92BF92CF92DF92EF920F9311
:105700001F93CF93C82F6091CE097091CF098091DC
:10571000D0099091D1092091D2093091D3094091BB
:10572000D4095091D5090E9443A92B013C016091F5
:105730000A0470910B0400D000D00DB71EB70F5FA4
:105740001F4F882777FD8095982F0E94D5A720911D
:105750001C0430911D0440911E0450911F040E94AE
:1057600008AA20E030E040E752E40E943AA720E097
:1057700030E048EC52E40E943AA75B016C01F8016A
:105780004082518262827382C48380910007858344
:105790008DE097E060EB79E04EEC59E020E001E02D
:1057A000A2E0EA2E0E941A8B8091B0099091B10973
:1057B000A091B209B091B30980930D0790930E07A1
:1057C000A0930F07B09310078091B4099091B50989
:1057D000A091B609B091B709809311079093120771
:1057E000A0931307B09314078091B8099091B90959
:1057F000A091BA09B091BB09809315079093160741
:10580000A0931707B09318078091BC099091BD0928
:10581000A091BE09B091BF098093190790931A0710
:10582000A0931B07B0931C078DB79EB706960FB6C3
:10583000F8949EBF0FBE8DBF0E9425A3DC01CB0153
:105840008093A8099093A909A093AA09B093AB09E2
:10585000CF911F910F91EF90DF90CF90BF90AF90BD
:105860007F906F905F904F9008958091FE0608950D
:1058700067707070E82FF0E0E05FF94EE491EB3074
:1058800028F4E830A0F4E63090F106C0EE30D0F015
:10589000EF50E33060F521C08091B1008C7F8093A0
:1058A000B1008091B100862B8093B1000895809162
:1058B00091008C7F8093910080919100862B809342
:1058C000910008958091A1008C7F8093A100809128
:1058D000A100862B8093A1000895809121018C7FE7
:1058E0008093210180912101862B809321010895CD
:1058F000CF93DF93EC0105C082EE96E00E943CA4BA
:105900002196FE0164916623B9F7DF91CF91089546
:105910000F931F93CF93DF938C01CAEDD9E0CE0193
:10592000B80144E150E00E947CAEF80101900020F3
:10593000E9F73197E01BF10BEC0FFD1F1082DF91AF
:10594000CF911F910F910895FC01349120E0AAEDB1
:10595000B9E08A1B9B0B332349F0243139F03D9386
:105960002F5FFD01E80FF91F3491F5CF1C920895C8
:105970000E9445788091FE068823C1F581E08093DE
:10598000FE0680919C0990919D09A0919E09B0917D
:105990009F098093C6099093C709A093C809B09343
:1059A000C909EFE3FCE007C09091C00095FFFCCF70
:1059B0008093C600319684918823B1F7EAE6FFE030
:1059C00007C09091C00095FFFCCF8093C600319630
:1059D00084918823B1F78091C00085FFFCCF8AE0D5
:1059E0008093C60082EE9FE00E94A42C0895F89454
:1059F0000E944578159A179A429AA09A8CE060E026
:105A00000E9483A2EFE3FCE007C09091C00095FFE5
:105A1000FCCF8093C600319684918823B1F7E0E4EF
:105A2000FFE007C09091C00095FFFCCF8093C600B7
:105A3000319684918823B1F78091C00085FFFCCF17
:105A40008AE08093C60081E69FE00E94A42C0E9419
:105A50008729FFCF0F931F930E9425A3DC01CB0161
:105A60004091C2095091C3096091C4097091C50960
:105A70000091A8091091A9092091AA093091AB09B8
:105A8000801B910BA20BB30B481759076A077B07C2
:105A900038F4411551056105710511F00E94F72C8C
:105AA0008091210490912204A0912304B0912404B8
:105AB0000097A105B10539F10E9425A3DC01CB01B6
:105AC0004091A8095091A9096091AA097091AB0968
:105AD000841B950BA60BB70B409121045091220417
